:020000040000FA
:100000000F0EC16EFF0E926EFF0E936E070E956E71
:10001000000E946E000E966E83B411EF00F013EF95
:1000200000F03EEF00F083B218EF00F01DEF00F09B
:1000300083B037EF00F030EF00F083B029EF00F02D
:1000400022EF00F0839C839A839845EC00F00CEF3C
:1000500000F0839C839A838857EC00F00CEF00F04B
:10006000839C838A83986CEC00F00CEF00F0839CF7
:10007000838A838881EC00F00CEF00F0838C839AF4
:10008000839896EC00F00CEF00F081500F0B246E7B
:10009000241C0F0B266E26C082FF02E053EF00F0F7
:1000A000848256EF00F0849256EF00F012008050E8
:1000B0000F0B226E81500F0B246E24502224266ECB
:1000C00026C082FF02E068EF00F084826BEF00F050
:1000D00084926BEF00F0120080500F0B226E815063
:1000E0000F0B246E24502210266E26C082FF02E0E1
:1000F0007DEF00F0848280EF00F0849280EF00F0CA
:10010000120080500F0B226E81500F0B246E225074
:100110002418266E26C082FF02E092EF00F084824F
:1001200095EF00F0849295EF00F0120081500F0BD4
:10013000246E0A0E24609FEF00F0A2EF00F024501E
:10014000060F246E24C082FF02E0AAEF00F0848232
:0C015000ADEF00F08492ADEF00F0120063
:02015C000000A1
:020000040030CA
:0100010008F6
:0100020019E4
:010003001EDE
:010006008178
:00000001FF
