:040000000CEF00F011
:10000800FACF03F0FBCF04F0E9CF05F04DED17F080
:1000180099EF18F046AE23D02D0E0001D96F465047
:100028007F0B0008800F01013E6F3EC134F10101D2
:10003800356B000E0101376F0A0E366F3AEC12F07D
:1000480001013451300F0001DA6F3EC13BF03C6AC8
:10005800000E3E6E0A0E3D6ED9EC17F01DD02B0E29
:100068000001D96F46C034F147C035F1000E0101D7
:10007800376F0A0E366F3AEC12F001013451300F27
:100088000001DA6F46C03BF047C03CF0000E3E6E00
:100098000A0E3D6ED9EC17F03B50300F0001DB6FB4
:1000A80000D049AE35D02D0E0001DD6F7F0E48140B
:1000B8000001FD6F000E49140001FE6F0001FD1FD5
:1000C800FE1FFD4BFE2B800E0001FD2501013C6F3C
:1000D800000E0001FE2101013D6F3CC134F13DC11C
:1000E80035F1000E0101376F0A0E366F3AEC12F047
:1000F80001013451300F0001DE6F3CC13BF03DC1BE
:100108003CF0000E3E6E0A0E3D6ED9EC17F01DD085
:100118002B0E0001DD6F48C034F149C035F1000EE7
:100128000101376F0A0E366F3AEC12F001013451B3
:10013800300F0001DE6F48C03BF049C03CF0000EB4
:100148003E6E0A0E3D6ED9EC17F03B50300F0001A1
:10015800DF6F00D05F380F0B300F0001AF6F5F50BB
:100168000F0B300F0001B06F60380F0B300F00011C
:10017800B26F60500F0B300F0001B36F63380F0B75
:10018800300F0001B56F63500F0B300F0001B66FD1
:1001980061380F0B300F00018B6F61500F0B300F60
:1001A80000018C6F5B380F0B300F00018E6F5B50B6
:1001B8000F0B300F00018F6F6E380F0B300F0001DF
:1001C800916F6E500F0B300F0001926F56380F0B66
:1001D800300F0001826F56500F0B300F0001836FF4
:1001E80057380F0B300F0001856F57500F0B300F2A
:1001F8000001866F58380F0B300F0001886F585078
:100208000F0B300F0001896F44044510D8A40BD0A0
:10021800CD0E116E000E126EE90E136EFF0E146EE7
:10022800CCEC1CF00BD0CD0E116E000E126EED0E44
:10023800136EFF0E146ECCEC1CF000D06FC034F1BE
:100248000101356B000E0101376F640E366F3AEC11
:1002580012F001013451300F0001BE6F000E3E6EE6
:10026800640E3D6E6FC03BF03C6AD9EC17F03BC0A2
:1002780034F13CC035F1000E0101376F0A0E366FBC
:100288003AEC12F001013451300F0001BF6F6FC01A
:100298003BF03C6A000E3E6E0A0E3D6ED9EC17F03C
:1002A8003B50300F0001C06F5004D8A40BD0D50EBE
:1002B800116E000E126EE90E136EFF0E146ECCEC6A
:1002C8001CF00BD0D50E116E000E126EED0E136ED3
:1002D800FF0E146ECCEC1CF000D081B402D0310EAD
:1002E80001D0300E0001E16F00D05DC034F1010192
:1002F800356B000E0101376F640E366F3AEC12F061
:1003080001013451300F0001D16F000E3E6E640EB2
:100318003D6E5DC03BF03C6AD9EC17F03BC034F150
:100328003CC035F1000E0101376F0A0E366F3AEC0A
:1003380012F001013451300F0001D26F5DC03BF063
:100348003C6A000E3E6E0A0E3D6ED9EC17F03B502B
:10035800300F0001D36FE7C02CF0E8C02DF0E9C0E2
:100368002EF0E8EC10F02C50300F0001B86F000EA2
:10037800206E200E216E410E226EE7C01DF0E8C0EF
:100388001EF0E9C01FF001EC0FF01DC02CF01EC0DC
:100398002DF01FC02EF0E8EC10F02CC03BF02DC063
:1003A8003CF0000E3E6E0A0E3D6ED9EC17F03B5045
:1003B800300F0001BA6F000E206EC80E216E420E7B
:1003C800226EE7C01DF0E8C01EF0E9C01FF001EC86
:1003D8000FF01DC02CF01EC02DF01FC02EF0E8EC51
:1003E80010F02CC03BF02DC03CF0000E3E6E0A0E03
:1003F8003D6ED9EC17F03B50300F0001BB6F4CC07D
:1004080034F14DC035F1030E0101376FE80E366F38
:100418003AEC12F001013451300F0001C36F030EA2
:100428003E6EE80E3D6E4CC03BF04DC03CF0D9EC42
:1004380017F03BC034F13CC035F1000E0101376FB5
:10044800640E366F3AEC12F001013451300F00019E
:10045800C46F000E3E6E640E3D6E4CC03BF04DC046
:100468003CF0D9EC17F03BC034F13CC035F1000E3C
:100478000101376F0A0E366F3AEC12F00101345160
:10048800300F0001C56F4CC03BF04DC03CF0000E72
:100498003E6E0A0E3D6ED9EC17F03B50300F00014E
:1004A800C66F170E396ED90E3A6E000E3B6EFF0EF0
:1004B8003D6EE00E3C6E000E3F6E000E3E6E020E6C
:1004C800406E010EEAEC0CF0170E396EDD0E3A6E36
:1004D800000E3B6EFF0E3D6EE00E3C6E000E3F6E52
:1004E800000E3E6E020E406E460EEAEC0CF0340E24
:1004F800396EAF0E3A6E000E3B6E070E3D6E3C68CD
:10050800000E3F6E000E3E6E020E406E0F0EEAECBD
:100518000CF0520E396E8B0E3A6E000E3B6E070EC3
:100528003D6EE00E3C6E000E3F6E000E3E6E020EFB
:10053800406E0F0EEAEC0CF06E0E396E820E3A6EBB
:10054800000E3B6E070E3D6E3C68000E3F6E000EBF
:100558003E6E010E406E0A0EEAEC0CF06E0E396E1D
:10056800CD0E3A6E000E3B6E070E3D6E3C68000ED7
:100578003F6E000E3E6E010E406E5F0EEAEC0CF010
:10058800820E396EBE0E3A6E000E3B6EF80E3D6E50
:10059800000E3C6E000E3F6E000E3E6E010E406E69
:1005A800230EEAEC0CF0820E396ED50E3A6E000E70
:1005B8003B6EF80E3D6E000E3C6E000E3F6E000E58
:1005C8003E6E010E406E5F0EEAEC0CF0960E396E30
:1005D800D10E3A6E000E3B6E070E3D6EE00E3C6E7D
:1005E800000E3F6E000E3E6E010E406E0A0EEAECE3
:1005F8000CF0960E396EE10E3A6E000E3B6E070E49
:100608003D6EE00E3C6E000E3F6E000E3E6E010E1B
:10061800406E230EEAEC0CF0960E396EB80E3A6E68
:10062800000E3B6E070E3D6EE00E3C6E000E3F6EF8
:10063800000E3E6E010E406E320EEAEC0CF0960E85
:10064800396EC30E3A6E000E3B6E070E3D6EE00E1D
:100658003C6E000E3F6E000E3E6E010E406E5D0E4B
:10066800EAEC0CF0120080EC1EF012EC1DF0000E0B
:10067800256E000E246EB3EC1DF04EC011F04FC075
:1006880012F0280E136EFF0E146ECCEC1CF0010E47
:10069800396E4EC03AF04FC03BF0FF0E3D6E3C68DD
:1006A800000E3F6E000E3E6E010E406E010EEAEC2B
:1006B8000CF04EC011F04FC012F06E0E136EFF0E0C
:1006C800146ECCEC1CF00B0E396E4EC03AF04FC0D5
:1006D8003BF0F80E3D6E1F0E3C6E000E3F6E000E96
:1006E8003E6E010E406E180EEAEC0CF0000E1D6E08
:1006F800280E1C6E000E1F6E170E1E6E000E216E49
:10070800020E206EFF0E236EE00E226E48EC09F0FA
:100718004EC011F04FC012F0F50E136EFF0E146E9E
:10072800CCEC1CF0170E396E4EC03AF04FC03BF0BF
:10073800FF0E3D6EE00E3C6E000E3F6E000E3E6EEC
:10074800020E406E2D0EEAEC0CF04EC011F04FC0B8
:1007580012F0EF0E136EFF0E146ECCEC1CF0000EB0
:100768001D6E6E0E1C6E000E1F6E170E1E6E000E96
:10077800216E020E206EFF0E236EE00E226E48ECF4
:1007880009F0170E396E4EC03AF04FC03BF0FF0E1D
:100798003D6EE00E3C6E000E3F6E000E3E6E020E89
:1007A800406E730EEAEC0CF04EC011F04FC012F020
:1007B800B00E136EFF0E146ECCEC1CF0280E396EC2
:1007C8004EC03AF04FC03BF0000E3D6E1F0E3C6E1F
:1007D800000E3F6E000E3E6E010E406E320EEAECC9
:1007E8000CF04EC011F04FC012F0DF0E136EFF0E6A
:1007F800146ECCEC1CF0470E396E4EC03AF04FC068
:100808003BF0F80E3D6E000E3C6E000E3F6E000E83
:100818003E6E010E406E320EEAEC0CF04EC011F046
:100828004FC012F0AA0E136EFF0E146ECCEC1CF023
:10083800640E396E4EC03AF04FC03BF0FF0E3D6E6D
:10084800E00E3C6E000E3F6E000E3E6E010E406ED6
:10085800040EEAEC0CF04EC011F04FC012F0BF0EBF
:10086800136EFF0E146ECCEC1CF0640E396E4EC085
:100878003AF04FC03BF0FF0E3D6EE00E3C6E000EAE
:100888003F6E000E3E6E010E406E4D0EEAEC0CF00F
:100898004EC011F04FC012F07B0E136EFF0E146E97
:1008A800CCEC1CF0780E396E4EC03AF04FC03BF0DD
:1008B800000E3D6E1F0E3C6E000E3F6E000E3E6E2B
:1008C800010E406E060EEAEC0CF04EC011F04FC05F
:1008D80012F0D80E136EFF0E146ECCEC1CF0780ECE
:1008E800396E4EC03AF04FC03BF0000E3D6E1F0E01
:1008F8003C6E000E3F6E000E3E6E010E406E550EB1
:10090800EAEC0CF04EC011F04FC012F0F80E136E66
:10091800FF0E146ECCEC1CF08C0E396E4EC03AF003
:100928004FC03BF0FF0E3D6E3C68000E3F6E000E60
:100938003E6E010E406E0C0EEAEC0CF04EC011F04B
:100948004FC012F0FB0E136EFF0E146ECCEC1CF0B1
:100958008C0E396E4EC03AF04FC03BF0FF0E3D6E24
:100968003C68000E3F6E000E3E6E010E406E210E7A
:10097800EAEC0CF04EC011F04FC012F0E40E136E0A
:10098800FF0E146ECCEC1CF08C0E396E4EC03AF093
:100998004FC03BF0FF0E3D6E3C68000E3F6E000EF0
:1009A8003E6E010E406E320EEAEC0CF04EC011F0B5
:1009B8004FC012F0F10E136EFF0E146ECCEC1CF04B
:1009C8008C0E396E4EC03AF04FC03BF0FF0E3D6EB4
:1009D8003C68000E3F6E000E3E6E010E406E5F0ECC
:1009E800EAEC0CF012001F0E306E000E316E99D139
:1009F800250E3818D8B404D03850EEEC1EF091D13A
:100A0800000E376E000E366E000E356E05D035843A
:100A18001D4A1E2A01D00BD01DC0F6FF1EC0F7FFCD
:100A28000800F550300AD8B4F2D701D0F5D71DC068
:100A3800F6FF1EC0F7FF0800F55073EC1DF0D8A0B4
:100A48003BD0000E376E000E366E00D036C011F067
:100A580037C012F0000E146E0A0E136E27EC1DF04C
:100A680011C036F012C037F0D00E2B6EFF0E2C6E70
:100A78001DC0F6FF1EC0F7FF0800F5502D6E2E6A48
:100A88002B502D262C502E222D5036262E50372214
:100A98001D4A1E2A1DC0F6FF1EC0F7FF0800F550AC
:100AA80073EC1DF0D8A008D0D1D706D048D11BD000
:100AB800358E19D036D117D01DC0F6FF1EC0F7FFEE
:100AC8001D4A1E2A0800F5CF38F03850000AD8B45D
:100AD80036D1640AD8B407D00D0AD8B404D0110AA4
:100AE800D8B4E6D71ED135BE15D030C0D9FF31C035
:100AF800DAFFDECF33F0DDCF34F0020E3026000E01
:100B0800312234AE4ED0030E3512336C341ED8B0B9
:100B1800342A47D030C0D9FF31C0DAFFDECF33F0F6
:100B2800DDCF34F0020E3026000E31223AD0010E0D
:100B3800386E050E3818D8B43DD001D03BD03850A7
:100B4800020DA60EF324F66EFE0EF420F76E0900D1
:100B5800F550335C0900F5503458D8A02BD001D09B
:100B680029D0382AE6D726D0010E386E040E381858
:100B7800D8B420D001D01ED03850020DB00EF324C6
:100B8800F66EFE0EF420F76E0900F550335C09008E
:100B9800F5503458D8A00ED001D00CD0382AE6D75A
:100BA80009D03550800B000AD8B4C1D7800AD8B410
:100BB800DBD700D036503710D8B40AD035C02BF068
:100BC800030E2B16D8B404D03606D8A0370600D0AA
:100BD800800E38BE7F0E2B6E3650385C3750800A38
:100BE8002B58D8B007D03850365E000E38BEFF0EEE
:100BF800375A05D0000E376E000E366E00D035A479
:100C08001AD035C02BF0030E2B16D8B404D02D0EF5
:100C1800EEEC1EF000D036503710D8B426D0300E87
:100C2800EEEC1EF03606D8A0370636503710D8B48A
:100C38001CD0F5D71AD036503710D8B40CD0200EA7
:100C4800EEEC1EF03606D8A0370636503710D8B46A
:100C580002D0F5D700D035C02BF0030E2B16D8B430
:100C680004D02D0EEEEC1EF000D038C032F053D078
:100C780045D03250020DA60EF324F66EFE0EF42077
:100C8800F76E0900F5CF13F00A00F5CF14F033C062
:100C980011F034C012F0D6EC19F011C018F012C0DF
:100CA80019F0000E1B6E0A0E1A6E70EC1BF018502D
:100CB800300F386E2CD033C011F034C012F03250DF
:100CC800020DB00EF324F66EFE0EF420F76E090046
:100CD800F5CF13F00A00F5CF14F0D6EC19F0115047
:100CE8000F0B2F6E2F50010D4D0EF324F66EFF0ED5
:100CF800F420F76E0800F5CF38F009D03550800B96
:100D0800000AD8B4B6D7800AD8B4D5D700D038509E
:100D1800EEEC1EF000D032063228D8B402D0EED75E
:100D280000D01DC0F6FF1EC0F7FF1D4A1E2A08008E
:100D3800F5CF38F03850D8B402D05AD600D01200C7
:100D480004EC1AF037EC03F05BEC1AF04AEC1BF0F9
:100D58000001806900D072EC19F06350000180191D
:100D6800D8B497D063C080F0DFEC1BF041C04CF0E2
:100D780042C04DF0ADEC1AF02CC0E7F02DC0E8F001
:100D88002EC0E9F07BEC1CF014C046F015C047F00B
:100D980046AE1DD046C041F147C042F10101411F96
:100DA800421F414B422B800E01014127000E422376
:100DB8007F0E01014117000E42170101411F421F1A
:100DC800414B422B41C146F042C147F000D046C0DA
:100DD80011F047C012F0000E146E090E136E27ECC6
:100DE8001DF011C034F112C035F1000E0101376F4A
:100DF800050E366F3AEC12F0200E01013425486ECC
:100E0800000E01013521496EB80E1D6EFE0E1E6ED4
:100E18005FC01FF0206A60C021F0226A63C023F01F
:100E2800246A61C025F0266A5BC027F0286A6EC074
:100E380029F02A6AF7EC04F0EC0E1D6EFE0E1E6E09
:100E480046C01FF047C020F048C021F049C022F03A
:100E5800F7EC04F0010E1D6EFF0E1E6E4CC01FF065
:100E68004DC020F05DC021F0226AF7EC04F04CC0C0
:100E780041F04DC042F0E6EC14F05DC041F0426A2A
:100E8800E0EC15F03FEC19F07DEC0EF00EEC00F004
:100E980000D01AEC18F0E806D8A42CD0000E0001F7
:100EA800F36F000EF26F17D04FEC1EF008EC13F042
:100EB80021D04FEC1EF0D0EC13F01CD04FEC1EF0FC
:100EC8002AEC16F017D04FEC1EF0B6EC1EF012D03C
:100ED80059EC1EF00FD05E50000AD8B4E5D7010ACD
:100EE800D8B4E7D7030AD8B4E9D7070AD8B4EBD7F8
:100EF800EFD700D00001F605D8A42DD7000E0001C9
:100F0800F66F44504510D8A402D0010E01D0000E4F
:100F1800446E456A20D70CEF00F02E6E240E306E1A
:100F28001E0E2F6EC2D02F50440F236E190E246E42
:100F3800020E256E000E276E000E266E3050020D32
:100F4800F3500E0F96EC1BF0440E236E190E246E10
:100F5800020E256E000E276E000E266E3050020D12
:100F6800F3500E0F96EC1BF0440E236E190E246EF0
:100F7800020E256E070E276E26680E0E96EC1BF0E5
:100F8800A8D0440E236E190E246E020E256E000E94
:100F9800276E000E266E0E0E96EC1BF0440E236E86
:100FA800190E246E020E256E070E276E2668305025
:100FB8000E0F96EC1BF08DD0440E236E190E246E86
:100FC800020E256E000E276E000E266E30500E0F94
:100FD80096EC1BF0440E236E190E246E020E256E3D
:100FE800070E276E26683050020DF3500E0F96EC50
:100FF8001BF06FD0440E236E190E246E020E256E60
:10100800000E276E000E266E3050020DF3500E0FA4
:1010180096EC1BF02F50440F236E190E246E020E0F
:10102800256E070E276E26680E0E96EC1BF051D023
:101038002F50440F236E190E246E020E256E000EDB
:10104800276E000E266E0E0E96EC1BF02F50440FE6
:10105800236E190E246E020E256E070E276E266863
:1010680030500E0F96EC1BF034D02F50440F236EE7
:10107800190E246E020E256E000E276E000E266EC7
:1010880030500E0F96EC1BF02F50440F236E190EA4
:10109800246E020E256E070E276E26683050020D4C
:1010A800F3500E0F96EC1BF014D02E50000AD8B453
:1010B8003AD7010AD8B465D7030AD8B47DD7010A4C
:1010C800D8B498D7070AD8B4B3D7010AD8B4CDD7BB
:1010D80000D012002E6E240E306E1E0E2F6EBFD062
:1010E800440E236E190E246E020E256E000E276E16
:1010F800000E266E30500E0F96EC1BF0440E236E39
:10110800190E246E020E256E070E276E26680E0E27
:1011180096EC1BF0B8D0440E236E190E246E020E06
:10112800256E000E276E000E266E3050020DF3500D
:101138000E0F96EC1BF0440E236E190E246E020E51
:10114800256E070E276E266830500E0F96EC1BF0A2
:101158009AD0440E236E190E246E020E256E000ED0
:10116800276E000E266E0E0E96EC1BF02F50440FC5
:10117800236E190E246E020E256E000E276E000EC9
:10118800266E0E0E96EC1BF0440E236E190E246E7E
:10119800020E256E070E276E26683050020DF3509A
:1011A8000E0F96EC1BF06FD02F50440F236E190EC4
:1011B800246E020E256E000E276E000E266E30502D
:1011C8000E0F96EC1BF02F50440F236E190E246E51
:1011D800020E256E070E276E26680E0E96EC1BF083
:1011E80052D02F50440F236E190E246E020E256E16
:1011F800000E276E000E266E3050020DF3500E0FB3
:1012080096EC1BF02F50440F236E190E246E020E1D
:10121800256E070E276E266830500E0F96EC1BF0D1
:1012280032D0440E236E190E246E020E256E000E67
:10123800276E000E266E0E0E96EC1BF02F50440FF4
:10124800236E190E246E020E256E070E276E266871
:101258003050020DF3500E0F96EC1BF014D02E50A8
:10126800000AD8B43DD7010AD8B455D7030AD8B470
:1012780070D7010AD8B498D7070AD8B4B2D7010AE8
:10128800D8B4CFD700D0120020C024F021C025F058
:10129800241E251E244A252A010E24242A6E000E07
:1012A80025202B6E000E276E010E266E20C024F01E
:1012B80021C025F0D89024362536241E251E244A20
:1012C800252A24C028F025C029F0000E2D6E000E16
:1012D8002C6E20C02EF021C02FF01E502024186E36
:1012E80022C019F023C01AF01C50E5EC1CF0205065
:1012F80000081E24186E22C019F023C01AF01C50D2
:10130800E5EC1CF01EC018F022C019F023C01AF03A
:101318001C502024E5EC1CF01EC018F022C019F067
:1013280023C01AF0205000081C24E5EC1CF078D0EB
:101338002BBE0BD02E06D8A02F06020E2826000E94
:10134800292228502A2629502B222C4A2D2A020EDF
:101358002626000E272226502A2627502B221E50EA
:101368002E24186E22C019F023C01AF01C502C2409
:10137800E5EC1CF01E502E24186E22C019F023C074
:101388001AF02C5000081C24E5EC1CF02E50000824
:101398001E24186E22C019F023C01AF01C502C24E9
:1013A800E5EC1CF02E5000081E24186E22C019F01F
:1013B80023C01AF02C5000081C24E5EC1CF01E5029
:1013C8002C24186E22C019F023C01AF01C502E24A9
:1013D800E5EC1CF01E502C24186E22C019F023C016
:1013E8001AF02E5000081C24E5EC1CF02C500008C4
:1013F8001E24186E22C019F023C01AF01C502E2487
:10140800E5EC1CF02C5000081E24186E22C019F0C0
:1014180023C01AF02E5000081C24E5EC1CF000D064
:101428002E502C5C2D50800A246E2F50800A245890
:10143800D8A07ED7120069C034F10101356B000EC7
:101448000101376F0A0E366F3AEC12F00101345180
:10145800300F0001A66F69C03BF03C6A000E3E6E7B
:101468000A0E3D6ED9EC17F03B50300F0001A76F04
:101478006AC034F10101356B000E0101376F0A0EA5
:10148800366F3AEC12F001013451300F0001A96FA8
:101498006AC03BF03C6A000E3E6E0A0E3D6ED9EC07
:1014A80017F03B50300F0001AA6F6CC034F10101F6
:1014B800356B000E0101376F0A0E366F3AEC12F0E9
:1014C80001013451300F0001AC6F6CC03BF03C6A35
:1014D800000E3E6E0A0E3D6ED9EC17F03B50300FF1
:1014E8000001AD6F6BC034F10101356B000E0101D5
:1014F800376F0A0E366F3AEC12F001013451300F93
:1015080000019D6F6BC03BF03C6A000E3E6E0A0EF8
:101518003D6ED9EC17F03B50300F00019E6F67C04D
:1015280034F10101356B000E0101376F0A0E366F79
:101538003AEC12F001013451300F0001A06F67C07E
:101548003BF03C6A000E3E6E0A0E3D6ED9EC17F079
:101558003B50300F0001A16F6DC034F10101356BB4
:10156800000E0101376F0A0E366F3AEC12F00101D6
:101578003451300F0001A36F6DC03BF03C6A000E80
:101588003E6E0A0E3D6ED9EC17F03B50300F00014D
:10159800A46F340E396EA60E3A6E000E3B6E070E1F
:1015A8003D6E3C68000E3F6E000E3E6E020E406EB1
:1015B8000F0EEAEC0CF0520E396E9D0E3A6E000ECC
:1015C8003B6E070E3D6EE00E3C6E000E3F6E000E49
:1015D8003E6E020E406E0F0EEAEC0CF01200F29214
:1015E8005150D8B4AED0CE50CFCF01F0026A01C06E
:1015F80002F0016A01104A6E02504B6E000ECF6E67
:10160800000ECE6E9ED0000ECF6E000ECE6E9E9057
:10161800900ECD6ECD80000E596E000E0001E36F66
:10162800000EE46F000EE56F000EE66F010E516EBE
:1016380086D098D0350E4A5C210E4B58D8A009D0D8
:101648001C0E4A5C250E4B58D8B003D0020E516EC2
:101658002AD036EC1FF027D026D084D0A10E4A5CC1
:101668000F0E4B58D8A009D0880E4A5C130E4B5861
:10167800D8B003D0030E516E62D036EC1FF05FD0A5
:101688005ED070D0900E4A5C010E4B58D8A008D09E
:10169800BD0E4A5C020E4B58D8B002D0040ED7D704
:1016A80036EC1FF000D0F19C5DD0910E4A5C010E23
:1016B8004B58D8A041D0080E4A5C070E4B58D8B0FA
:1016C8003BD0D8900001E3350001E36F0001E43519
:1016D8000001E46F0001E5350001E56F0001E63522
:1016E8000001E66FE90E4A5C030E4B58D8A014D0EF
:1016F800010E0001E3250001E36F000E0001E42163
:101708000001E46F000E0001E5210001E56F000E05
:101718000001E6210001E66F5928596E1F0E596431
:10172800A9D7000E0001F36F010EF26FE4C0FBF0C1
:10173800F298000E516E9ED736EC1FF000D0F18C57
:1017480011D05150000AD8B45ED7010AD8B472D764
:10175800030AD8B483D7010AD8B494D7070AD8B4EF
:10176800A4D700D01200366E800E3660A6D09F0E29
:101778002E6401D0A2D03450D8A403D0010E346E08
:1017880000D01F0E2F6404D07E0E2F6403D000D02B
:101798003F0E2F6E000E386E040E386401D08DD0C7
:1017A800530E2F6015D0E00E2F24116E126AFF0E13
:1017B8001222000E146E050E136E27EC1DF0385021
:1017C8001126000E1222CB0E1124F66EFC0E14D038
:1017D800AD0E2F24116E126AFF0E1222000E146E27
:1017E800050E136E27EC1DF038501126000E12223C
:1017F800CA0E1124F66EFD0E1220F76E0800F5CF02
:1018080035F000D0000E376E060E376401D053D085
:1018180035A023D03404D8A40CD02E503724186E09
:1018280030C019F031C01AF036503824E5EC1CF0FD
:101838003ED037503402F3502E24236E34C024F0A7
:1018480034C025F030C026F031C027F038503402BB
:10185800F350362496EC1BF02AD03050321804E1AD
:1018680031503318D8B423D03404D8A40CD02E5017
:101878003724186E32C019F033C01AF036503824A5
:10188800E5EC1CF014D037503402F3502E24236EAC
:1018980034C024F034C025F032C026F033C027F01D
:1018A80038503402F350362496EC1BF000D0372A17
:1018B800D8903532A9D7382A6FD71200010EE6EC36
:1018C8001EF0000E186E960E176E84EC1AF0110EAC
:1018D800E6EC1EF0010E186EF40E176E84EC1AF08A
:1018E800B10EE6EC1EF0010EDEEC1EF02C0EDEEC66
:1018F8001EF02D0EDEEC1EF0B20EE6EC1EF0010E10
:10190800DEEC1EF02C0EDEEC1EF02D0EDEEC1EF0D2
:10191800B30EE6EC1EF0010EDEEC1EF02C0EDEEC33
:101928001EF02D0EDEEC1EF0010EDEEC1EF02C0E6D
:10193800DEEC1EF02D0EDEEC1EF0B40EE6EC1EF012
:10194800070EDEEC1EF0C00EE6EC1EF0A20EDEEC7A
:101958001EF0020EDEEC1EF0840EDEEC1EF0C10E50
:10196800E6EC1EF0C50EDEEC1EF0C20EE6EC1EF034
:101978000A0EDEEC1EF0000EDEEC1EF0C30EE6ECE6
:101988001EF08A0EDEEC1EF02A0EDEEC1EF0C40EEF
:10199800E6EC1EF08A0EDEEC1EF0EE0EDEEC1EF01B
:1019A800C50EE6EC1EF00E0EDEEC1EF0200EE6EC88
:1019B8001EF0360EE6EC1EF0C80EDEEC1EF03A0EF7
:1019C800E6EC1EF0050EDEEC1EF012000101346F8D
:1019D80034C13AF139C039F13AC011F03BC012F0C4
:1019E8001FEC1CF011C035F112C036F1000E0101D8
:1019F800386F000E376F66D0000181510001D8B4EE
:101A080034D04050050D01013A51416E426AF350FD
:101A18004126F450422242BE28D0425004E1810EB1
:101A2800415CD8A022D0000E01013A6F4050070D4A
:101A3800F35001013925030F0101396FA00E01018F
:101A4800396504D0A00E0101396F00D0010137516A
:101A58003A24D96E010138513B20DA6E200EDE1887
:101A6800D8B42CD002D02AD000D039C12EF0010130
:101A780037513A24D96E010138513B20DA6EDF50D4
:101A88002F6E3CC030F03DC031F03EC032F03FC058
:101A980033F040C034F001013A51B7EC0BF040503C
:101AA800060DF35001013A2501013A6F800E01013C
:101AB8003A6504D0800E01013A6F00D00101374B1E
:101AC800382B00D0010135510101375D0101365134
:101AD80001013859D8A090D71200000E256E000ECB
:101AE800246EB3EC1DF04EC011F04FC012F0150E6D
:101AF800136EFF0E146ECCEC1CF0010E396E4EC046
:101B08003AF04FC03BF0FF0E3D6E3C68000E3F6E52
:101B1800000E3E6E010E406E010EEAEC0CF04EC057
:101B280011F04FC012F0880E136EFF0E146ECCEC3D
:101B38001CF0100E396E4EC03AF04FC03BF0F80E54
:101B48003D6E1F0E3C6E000E3F6E000E3E6E020E86
:101B5800406E040EEAEC0CF04EC011F04FC012F0CB
:101B6800B00E136EFF0E146ECCEC1CF0280E396EFE
:101B78004EC03AF04FC03BF0000E3D6E1F0E3C6E5B
:101B8800000E3F6E000E3E6E010E406E320EEAEC05
:101B98000CF0440E236E190E246E020E256E070EED
:101BA800276E26680E0E96EC1BF04EC011F04FC043
:101BB80012F0DF0E136EFF0E146ECCEC1CF0470E05
:101BC800396E4EC03AF04FC03BF0F80E3D6E000E35
:101BD8003C6E000E3F6E000E3E6E010E406E320EE1
:101BE800EAEC0CF01200000E256E000E246EB3EC29
:101BF8001DF04EC011F04FC012F03B0E136EFF0ED9
:101C0800146ECCEC1CF0010E396E4EC03AF04FC089
:101C18003BF0FF0E3D6E3C68000E3F6E000E3E6EC0
:101C2800010E406E010EEAEC0CF04EC011F04FC0F0
:101C380012F0C80E136EFF0E146ECCEC1CF00B0ED7
:101C4800396E4EC03AF04FC03BF0F80E3D6E1F0E95
:101C58003C6E000E3F6E000E3E6E020E406E060E8B
:101C6800EAEC0CF04EC011F04FC012F0D00E136E1B
:101C7800FF0E146ECCEC1CF01A0E396E4EC03AF002
:101C88004FC03BF0F80E3D6E1F0E3C6E000E3F6ECF
:101C9800000E3E6E020E406E060EEAEC0CF04EC0D0
:101CA80011F04FC012F0B00E136EFF0E146ECCEC94
:101CB8001CF0280E396E4EC03AF04FC03BF0000EB3
:101CC8003D6E1F0E3C6E000E3F6E000E3E6E010E06
:101CD800406E320EEAEC0CF0440E236E190E246EA0
:101CE800020E256E070E276E26680E0E96EC1BF068
:101CF80012000001EC510001ED11D8A40BD04404EE
:101D08004510D8A407D032EC1AF0000E0001ED6F90
:101D1800010E70D00001EC050001ED11D8A411D01E
:101D280044504510D8A40DD05BEC1AF0000E000109
:101D3800ED6F000EEC6F000E26EC1FF02AEC1FF082
:101D48005BD00001EC050001ED11D8A455D0440486
:101D58004510D8A451D081B408D0000E0001EB6F13
:101D6800010EEA6F77EC1EF000D00001EA050001D1
:101D7800EB11D8A441D00001EE5126EC1FF0000170
:101D8800EE4BEF2B0001EFBF0ED00001EF5105E144
:101D9800080E0001EE5DD8A006D0000E0001EF6F1E
:101DA800000EEE6F00D0000E116E200E126E400E67
:101DB800136EE7C014F0E8C015F0E9C016F095EC12
:101DC80015F0D8B019D0000E0001EB6F000EEA6FC5
:101DD800000E0001EF6F000EEE6F0001EE5126ECD1
:101DE8001FF02AEC1FF05D508BEC14F0000E000180
:101DF800ED6F000EEC6F00D012001FC023F0246AB4
:101E0800256A1E34233601E324802350266E26508B
:101E1800D8A402D00ED06CD022C023F0246A256A40
:101E28002134233601E3248023502B6E2B50D8A471
:101E380007D0000E1D6E000E1E6E000E1F6E58D0CD
:101E48002B507B0F26261FC02BF022502B1A800EFA
:101E58002B161E8E218EFF0E2016FF0E2116000E49
:101E68002216000E276E000E286E000E296E070E31
:101E78002A6E00D01DA007D02050272621502822E6
:101E88002250292200D0D8901F321E321D32D890FD
:101E98002036213622362A2EEDD700D0090E2A6E9A
:101EA80000D01DA007D020502726215028222250DC
:101EB800292200D0D8901F321E321D32D8902932E4
:101EC800283227322A2EEDD700D027C011F028C09B
:101ED80012F029C013F026C014F02BC015F06DECD9
:101EE80013F011C01DF012C01EF013C01FF000D077
:101EF8001200000E256E000E246EB3EC1DF04EC0CD
:101F080011F04FC012F0150E136EFF0E146ECCECCC
:101F18001CF0010E396E4EC03AF04FC03BF0FF0E78
:101F28003D6E3C68000E3F6E000E3E6E010E406E28
:101F3800010EEAEC0CF04EC011F04FC012F0940EF6
:101F4800136EFF0E146ECCEC1CF01A0E396E4EC0D8
:101F58003AF04FC03BF0FF0E3D6EE00E3C6E000EB7
:101F68003F6E000E3E6E020E406E010EEAEC0CF063
:101F78004EC011F04FC012F0B50E136EFF0E146E66
:101F8800CCEC1CF0290E396E4EC03AF04FC03BF035
:101F9800FF0E3D6EE00E3C6E000E3F6E000E3E6E74
:101FA800020E406E010EEAEC0CF04EC011F04FC06C
:101FB80012F05E0E136EFF0E146ECCEC1CF03C0E8D
:101FC800396E4EC03AF04FC03BF0070E3D6E3C688C
:101FD800000E3F6E000E3E6E010E406E0F0EEAECD4
:101FE8000CF01200E00EE6EC1EF0020EDEEC1EF025
:101FF8001C0EDEEC1EF0070EDEEC1EF0120EDEEC00
:102008001EF0370EDEEC1EF0320EDEEC1EF0290E4E
:10201800DEEC1EF02D0EDEEC1EF0290EDEEC1EF0BE
:10202800250EDEEC1EF02B0EDEEC1EF0390EDEEC7B
:102038001EF0000EDEEC1EF0010EDEEC1EF0030EAC
:10204800DEEC1EF0100EDEEC1EF0E10EE6EC1EF0EB
:10205800030EDEEC1EF01D0EDEEC1EF0070EDEECAD
:102068001EF0060EDEEC1EF02E0EDEEC1EF02C0E20
:10207800DEEC1EF0290EDEEC1EF02D0EDEEC1EF05E
:102088002E0EDEEC1EF02E0EDEEC1EF0370EDEEC11
:102098001EF03F0EDEEC1EF0000EDEEC1EF0000E11
:1020A800DEEC1EF0020EDEEC1EF0100EDEEC1EF072
:1020B800130EE6EC1EF0000E186E0A0E176E84EC76
:1020C8001AF0290EE6EC1EF0000E186E640E176E5C
:1020D80084EC1AF012009F0E1D6EFF0E1E6E64C077
:1020E8001FF0206A65C021F0226A66C023F0246AC6
:1020F800F7EC04F064C034F10101356B000E010106
:10210800376F0A0E366F3AEC12F001013451300F76
:102118000001946F64C03BF03C6A000E3E6E0A0EEC
:102128003D6ED9EC17F03B50300F0001956F65C03C
:1021380034F10101356B000E0101376F0A0E366F5D
:102148003AEC12F001013451300F0001976F65C06D
:102158003BF03C6A000E3E6E0A0E3D6ED9EC17F05D
:102168003B50300F0001986F66C034F10101356BA8
:10217800000E0101376F0A0E366F3AEC12F00101BA
:102188003451300F00019A6F66C03BF03C6A000E74
:102198003E6E0A0E3D6ED9EC17F03B50300F000131
:1021A8009B6F340E396E940E3A6E000E3B6E070E1E
:1021B8003D6E3C68000E3F6E000E3E6E020E406E95
:1021C8000F0EEAEC0CF012002EC030F0316A326AC1
:1021D8002D34303601E3318030503A6E3A50D8A46D
:1021E80002D039D063D0170E306E2CC031F02DC01C
:1021F80032F02EC033F03028346E04D0D890333209
:1022080032323132342EFAD73150356E2D8EFF0EE0
:102218002C16FF0E2D16000E2E162C50366E2D5035
:10222800376E2E50386E396A8E0E3A5E3AAE10D03E
:102238003A50800A8F0FD8B003D00DD037D000D0D5
:10224800D89039323832373236323A3EF9D719D047
:10225800170E3A6411D0000E2C6E000E2D6E000E73
:102268002E6E000E2F6E22D007D0D8903636373615
:10227800383639363A0600D03A50D8B402D0F5D7B5
:1022880000D03550D8B409D0391E381E371E366CE8
:10229800000E37223822392200D036C02CF037C041
:1022A8002DF038C02EF039C02FF000D012002EC00B
:1022B80032F0336A346A2D34323601E333803250D7
:1022C800396E3950D8A402D00ED061D031C032F066
:1022D800336A346A3034323601E3338032503A6E2E
:1022E8003A50D8A407D0000E2C6E000E2D6E000EAA
:1022F8002E6E4DD0000E366E000E376E000E386E04
:102308003A50890F395E2EC03AF031503A1A800E91
:102318003A162D8EFF0E2C16FF0E2D16000E2E16B9
:10232800308EFF0E2F16FF0E3016000E3116180EC7
:10233800356E00D0D8903636373638362F502C5C6C
:1023480030502D5831502E58D8A007D02F502C5E21
:1023580030502D5A31502E5A3680D8902C362D3682
:102368002E36352EE7D700D036C011F037C012F020
:1023780038C013F039C014F03AC015F06DEC13F002
:1023880011C02CF012C02DF013C02EF000D0120096
:10239800236E800E236069D09F0E186401D065D02B
:1023A800FF0E1D6EFF0E1E6E195023C01FF0206A0F
:1023B8001F26000E20221D501F261E50202220BE40
:1023C8000AD0205004E1800E1F5CD8A004D023500E
:1023D8000008800F196EFF0E1D6EFF0E1E6E1A503C
:1023E80018C01FF0206A1F26000E20221D501F262D
:1023F8001E50202220BE0BD0205004E1A00E1F5CEE
:10240800D8A005D018500008A00F1A6E00D018C028
:1024180014F0235019241D6E1D04156E18501A242B
:102428001E6E1E04166E235023EC1BF01C50216EEA
:102438001BC022F08188819A1AC018F01850D8B4AD
:1024480013D001D011D019C023F02350D8B40AD02A
:1024580001D008D0215063EC1EF0225063EC1EF02E
:102468002306F3D71806EAD7818A1200000E010165
:10247800396F010137AF09D00101366D371FD8B068
:10248800372B010E0101396F00D0010135AF09D09A
:102498000101346D351FD8B0352B010E0101391BF0
:1024A80000D0000E01013B6F000E3A6F010136515A
:1024B80001013711D8B431D0010E0101386F07D0AE
:1024C8000101D890363737370101382B00D0010188
:1024D80037BF02D0F5D700D00101D8903A373B3743
:1024E800010136510101345D0101375101013559AE
:1024F800D8A00BD0010136510101345F01013751D9
:102508000101355B01013A8100D00101D8903733D0
:1025180036330101382FE0D700D0010139510101CC
:10252800D8B406D001013A6D3B1FD8B03B2B00D080
:102538003AC134F13BC135F100D012001350115C9F
:102548001250800A156E1450800A1558D8A002D06F
:10255800000E53D011C015F012C016F0151E161E2D
:10256800154A162A13501524176E14501620186E83
:1025780018BE08D0185004E1330E175CD8A002D05A
:10258800640E3BD018BE15D0185004E1190E175C24
:10259800D8A00FD018BE06D018500BE1320E175C29
:1025A800D8B007D0115000081324156ED8901534F0
:1025B80024D018BE15D0185004E10A0E175CD8A014
:1025C8000FD018BE06D018500BE1190E175CD8B002
:1025D80007D0115000081324010DF3CF5DF00FD080
:1025E80018BE0DD018BE06D0185009E10A0E175CA7
:1025F800D8B005D01150000813245D6E00D05DC01E
:1026080011F0126A00D01200000E536E72EC19F02D
:102618006350FDEC1CF06C6E6050FDEC1CF06A6EB3
:102628005F50FDEC1CF0696E5B50FDEC1CF0676EB2
:102638006150FDEC1CF06B6E6E50FDEC1CF06D6E85
:1026480071EC0DF01FEC0AF0010E0001FA6F3CD09E
:102658001AEC18F0E806D8A437D0020E5E6431D020
:10266800090E5E602ED04FEC1EF0030E5E18D8A443
:1026780003D0DCEC1DF000D0040E5E18D8A403D003
:10268800E8EC1DF000D0050E5E18D8A403D03BEC92
:102698001EF000D0060E5E18D8A403D005EC17F083
:1026A80000D0070E5E18D8A403D0BDEC16F000D0F9
:1026B800080E5E18D8A403D0C6EC1EF000D05E68E1
:1026C80003D059EC1EF000D00001FA05D8B4C0D7E9
:1026D80012001450D8B405D0115012101310D8A4F9
:1026E8000ED0000E116E000E126E000E136E53D037
:1026F80006D0142AD89013321232113200D0000EAC
:102708001114166E000E1214176EFE0E1314186EA6
:10271800165017101810D8B40ED0EBD70CD0142AB6
:10272800010E1126000E1222000E1322D890133229
:102738001232113200D0000E1114166E000E12144F
:10274800176EFF0E1314186E165017101810D8B401
:1027580008D0E5D706D01406D890113612361336AD
:1027680000D012BE04D0020E1460F5D700D014B009
:1027780002D0129E00D0D890143214501312155063
:10278800D8B402D0138E00D011C011F012C012F0CC
:1027980013C013F000D01200000E526E010E00019B
:1027A800F86F4AEC1BF05850FDEC1CF0586E57506F
:1027B800FDEC1CF0576E5650FDEC1CF0566E58C0E0
:1027C80066F057C065F056C064F0F7EC0DF06FEC9A
:1027D80010F03CD01AEC18F0E806D8A437D0020E56
:1027E8005E6431D0090E5E602ED04FEC1EF0030EF1
:1027F8005E18D8A403D00CEC1EF000D0040E5E18AE
:10280800D8A403D018EC1EF000D0050E5E18D8A48A
:1028180003D024EC1EF000D0060E5E18D8A403D016
:10282800FCEC1AF000D0070E5E18D8A403D0D5EC43
:102838001AF000D0080E5E18D8A403D0D6EC1EF00B
:1028480000D05E6803D059EC1EF000D00001F805F6
:10285800D8B4C0D71200680E1A6E070E176E0E0E87
:10286800186E18C014F01A50B3EC1CF0196E1950F9
:10287800010B196E19502509196E18C013F019C0EB
:1028880014F01A5084EC1DF0A4EC1EF01A501A240F
:102898003EEC1CF017503EEC1CF030EC1EF0D880DB
:1028A8001A343EEC1CF0010EBBEC1BF0586E010E06
:1028B800BBEC1BF0576E010EBBEC1BF0566E000E06
:1028C800BBEC1BF0556E58507F0B586E57507F0B62
:1028D800576E56507F0B566E55508009556EA4ECB6
:1028E8001EF01A501A243EEC1CF017503EEC1CF057
:1028F80058503EEC1CF057503EEC1CF056503EEC45
:102908001CF055503EEC1CF09BEC1EF01200416E82
:10291800040ECB6E070ECA6E000E206E800E216E5E
:10292800400E226E41504EEC1DF019C01DF01AC029
:102938001EF01BC01FF001EC0FF01DC02CF01EC0D4
:102948002DF01FC02EF0000E2F6EA00E306E410E1F
:10295800316E5BEC11F02CC03EF02DC03FF02EC064
:1029680040F03EC02CF03FC02DF040C02EF0E8EC07
:1029780010F02CC042F02DC043F041503B6E3C6A31
:1029880042503B5C3C50800A3D6E4350800A3D58A3
:10299800D8B003D0424A432A00D042C03BF0030ECD
:1029A8003B163B38F00B0C09BD6E42C03BF043C0F0
:1029B8003CF03C343C323B323C343C323B323B50C2
:1029C800BE6E120041504210D8A403D03CC183FF10
:1029D80051D041C034F142C035F1010E0101376FC9
:1029E800F40E366F3AEC12F034C13EF135C13FF1C6
:1029F80001013E5101013F11D8A405D0000E01018B
:102A08003D6F010E2FD001013FBF1DD001013F5185
:102A180004E101013E05D8A016D001013FBF08D04E
:102A280001013F5110E1060E01013E5DD8B00BD007
:102A3800010E01013E2501013C6F000E01013F21FD
:102A480001013D6F11D001013FBF0ED001013F517F
:102A580005E1060E01013E5DD8A006D0000E010179
:102A68003D6F070E3C6F00D001013C39E842F80B7E
:102A7800836E00D0120068C034F10101356B000E7E
:102A88000101376F640E366F3AEC12F001013451D0
:102A98000001FD6F000E3E6E640E3D6E68C03BF097
:102AA8003C6AD9EC17F03BC034F13CC035F1000E5C
:102AB8000101376F0A0E366F3AEC12F001013451FA
:102AC8000001FE6F68C03BF03C6A000E3E6E0A0EC5
:102AD8003D6ED9EC17F03B500001FF6F0001FD512E
:102AE800300F0001C86F0001FE51300F0001C96F9F
:102AF8000001FF51300F0001CA6F4A0E396EC80E2F
:102B08003A6E000E3B6EF80E3D6E000E3C6E000EE7
:102B18003F6E000E3E6E020E406E280EEAEC0CF080
:102B2800120013AE17D011C017F012C018F013C05E
:102B380019F0171E181E191E172A000E182219221E
:102B4800000E1724116E000E1820126E800E192028
:102B5800136E00D016AE17D014C017F015C018F0B9
:102B680016C019F0171E181E191E172A000E182253
:102B78001922000E1724146E000E1820156E800EF0
:102B88001920166E00D0000E111A000E121A800EAF
:102B9800131A000E141A000E151A800E161A145065
:102BA800115C1550125816501358D8B002D0D8904E
:102BB80002D0D88000D0120041C034F142C035F1B3
:102BC800000E0101376F0A0E366F3AEC12F034C16D
:102BD8003EF135C13FF101013E5101013F11D8A439
:102BE80005D0000E01013D6F000E29D001013FBF45
:102BF80017D001013F5104E101013E05D8A010D0D2
:102C080001013FBF08D001013F510AE1070E010150
:102C18003E5DD8B005D03EC13CF13FC13DF111D079
:102C280001013FBF0ED001013F5105E1070E01012F
:102C38003E5DD8A006D0000E01013D6F070E3C6F27
:102C480000D0835001013C11836E1200010E000177
:102C5800F96F6FC068F07DEC0FF03FEC15F03BD0DA
:102C6800010E01013C6F000E01013D6F1AEC18F0D6
:102C780001013C193D11D8A42ED0000E0001F36FBC
:102C8800000EF26F040E5E6423D0090E5E6020D041
:102C98004FEC1EF0050E5E18D8A403D045EC1EF0CC
:102CA80000D0060E5E18D8A403D000EC1EF000D0A9
:102CB800070E5E18D8A403D0F4EC1DF000D0080E5F
:102CC8005E18D8A403D0CEEC1EF000D05E6803D006
:102CD80059EC1EF000D00001F905D8B4C1D7120094
:102CE800680E01013F6F000E0101406F6C500BEC44
:102CF80019F04150636E6A500BEC19F04150606E48
:102D080069500BEC19F041505F6E010E5C6E675014
:102D18000BEC19F041505B6E6B500BEC19F0415005
:102D2800616E6D500BEC19F041506E6EA4EC1EF004
:102D380001013F513F253EEC1CF0010140513EECA2
:102D48001CF063503EEC1CF060503EEC1CF05F50F1
:102D58003EEC1CF05C503EEC1CF05B503EEC1CF072
:102D680061503EEC1CF06E503EEC1CF09BEC1EF0EB
:102D7800120030D0692A180E6918D8A43FD0000E66
:102D8800696E3CD06A2A3C0E6A18D8A437D0000E67
:102D98006A6E34D06C2A3C0E6C18D8A42FD0000E62
:102DA8006C6E2CD06B2A0D0E6B18D8A427D0010E90
:102DB8006B6E24D0672A200E6718D8A41FD0010E86
:102DC800676E1CD06D2A640E6D18D8A417D0000E3B
:102DD8006D6E14D05350000AD8B4CCD7010AD8B4B9
:102DE800D1D7030AD8B4D6D7010AD8B4DBD7070A93
:102DF800D8B4E0D7010AD8B4E5D700D01FEC0AF060
:102E0800120030D06950D8A403D0170E696E3ED096
:102E180069063CD06A50D8A403D03B0E6A6E36D0FF
:102E28006A0634D06C50D8A403D03B0E6C6E2ED0FA
:102E38006C062CD06B04D8A403D00C0E6B6E26D075
:102E48006B0624D06704D8A403D01F0E676E1ED06B
:102E580067061CD06D50D8A403D0640E6D6E16D0D2
:102E68006D0614D05350000AD8B4CCD7010AD8B490
:102E7800D1D7030AD8B4D6D7010AD8B4DBD7070A02
:102E8800D8B4E0D7010AD8B4E5D700D01FEC0AF0CF
:102E980012000600EACF06F0E1CF07F0E2CF08F013
:102EA800D9CF09F0DACF0AF0F3CF0BF0F4CF0CF05A
:102EB800F6CF0DF0F7CF0EF0F8CF0FF0F5CF10F0FA
:102EC8009EA003D002EC1FF000D0F2A203D0F3ECD6
:102ED8000AF000D0F0A003D021EC1FF000D0F0A23F
:102EE80003D01CEC1FF000D010C0F5FF0FC0F8FF96
:102EF8000EC0F7FF0DC0F6FF0CC0F4FF0BC0F3FFC8
:102F08000AC0DAFF09C0D9FF08C0E2FF07C0E1FF25
:102F180006C0EAFF05C0E9FF04C0FBFF03C0FAFFD3
:102F28001100226E800E22603FD09F0E186401D0DF
:102F38003BD0FF0E1C6EFF0E1D6E195018C01EF000
:102F48001F6A1E26000E1F221C501E261D501F22FF
:102F58001FBE0BD01F5004E1A00E1E5CD8A005D0E8
:102F680018500008A00F196E00D01B50206E1AC010
:102F780021F018C014F022C015F0185019241C6E46
:102F88001C04166E225023EC1BF08188819A07D00E
:102F9800205063EC1EF0215063EC1EF000D019069F
:102FA8001928D8A4F5D7818A1200000E406E3CAECD
:102FB80007D03B6C3C1ED8B03C2A010E406E00D0B6
:102FC8003EAE05D03D6C3E1ED8B03E2A00D03D50E6
:102FD8003E10D8B41DD0010E3F6E05D0D8903D36B6
:102FE8003E363F2A00D03EBE02D0F8D700D03D5032
:102FF8003B5C3E503C58D8A005D03D503B5E3E500F
:103008003C5A00D0D8903E323D323F2EF0D700D007
:103018004050D8B405D03B6C3C1ED8B03C2A00D0F8
:103028003BC03BF03CC03CF000D012000001F20570
:103038000001F311D8A439D0000E0001F36F000E7F
:10304800F26FF288F19C5E68000E3B6E000E3A6EDD
:103058003BBE08D03B501CE1150E3A5CD8B018D0E6
:1030680001D016D01F0E3A24D96E010E3B20DA6E1D
:103078000001FB51DE18D8A407D03AC05EF0000E5C
:103088003B6E150E3A6E00D03A4A3B2AE1D700D083
:103098005E28D8A408D0D60E1D6EFE0E1E6EF7EC64
:1030A80004F0000E02D0010E00D0120072EC19F0EC
:1030B8005BC055F0680E01013F6F070E0101406FBC
:1030C80064500BEC19F04150566E65500BEC19F03A
:1030D8004150576E66500BEC19F04150586E5850DD
:1030E8007F0B586E57507F0B576E56507F0B566E9E
:1030F80055508009556EA4EC1EF001013F513F2543
:103108003EEC1CF0010140513EEC1CF058503EECE6
:103118001CF057503EEC1CF056503EEC1CF055503D
:103128003EEC1CF09BEC1EF0120000EEE3F01A0ED1
:10313800EE6AE806FDE100EE44F02B0EEE6AE806C2
:10314800FDE1320EF66E390EF76E000EF86E01EEE6
:1031580000F010EE34F00900F5CFEEFFE550E15035
:10316800FAE1480EF66E330EF76E000EF86E00EEBA
:1031780080F010EE63F00900F5CFEEFFE550E15066
:10318800FAE1740EF66E3E0EF76E000EF86E090048
:10319800F5CF6FF0000EF86E0001A4EF06F0136E85
:1031A800000EAC6E000EAB6E13A002D0AC8800D03F
:1031B80013A203D0AC8CAB8C00D013A402D0AC8E7D
:1031C80000D013A602D0AB8802D0AB8A00D013B8C7
:1031D800AC849E9813AA02D0AB8600D013AC02D060
:1031E8009D8A01D09D9A9E9A13AE02D09D8801D0E7
:1031F8009D9811C0AFFF1250B06EAC8AAB8E949CF4
:10320800948EACB8ACBE02D0948C00D012000101F0
:103218003E6F3EC134F10101356B000E0101376F7D
:103228000A0E366F3AEC12F034C1FDF035C1FEF0EB
:103238000001FD3BFE3BF00EFE17FD510F0BFE1388
:10324800F00EFD173EC13BF03C6A000E3E6E0A0EC2
:103258003D6ED9EC17F03B500001FD2501013C6F94
:103268003C500001FE2101013D6F3CC141F03DC1D0
:1032780042F000D012005050D8A402D0000E0AD05C
:1032880048C011F049C012F06FC013F0146AA2ECE4
:1032980012F011505D6E00D05D508BEC14F05004AC
:1032A800D8A418D06F500001FD6FFE6B0001FD51CE
:1032B800485C4950800A0001FF6F0001FE51800AF6
:1032C8000001FF59D8B003D0BEEC1EF006D0000EA6
:1032D800506E03D008EC1FF000D01200680E156E77
:1032E800000E146EA4EC1EF0155015243EEC1CF0D4
:1032F80014503EEC1CF030EC1EF0D88015343EEC37
:103308001CF0010EBBEC1BF0636E010EBBEC1BF056
:10331800606E010EBBEC1BF05F6E010EBBEC1BF088
:103328005C6E010EBBEC1BF05B6E010EBBEC1BF080
:10333800616E000EBBEC1BF06E6E9BEC1EF0120073
:10334800FF0130303A30303A30300030302F3030F2
:103358002F30300030303A30303A30300030312FB2
:1033680030312F30300030303A30303A30300030A1
:10337800303A30303A303000302E30305600303766
:10338800354600303030300030373546004F46463D
:1033980000303030004F4646002B3235002B37378F
:1033A80000300000000E166E000E156E135014103B
:1033B800D8B421D0010E176E05D0D8901336143624
:1033C800172A00D014BE02D0F8D700D0D8901536EE
:1033D80016361350115C14501258D8A006D013504A
:1033E800115E1450125A158000D0D890143213323E
:1033F800172EECD700D015C011F016C012F012002D
:103408006DEC1EF0F5EC1EF0700ED36E0E0EC16E54
:10341800110E926E070E936E010E946E000E956E4D
:10342800000E966E000E846E000E506EF19E000E19
:10343800B26E030EB16EA00E116E860E126E010EE4
:10344800136E000E146E0DEC1FF0A4EC1DF061EC71
:103458001DF008EC1FF04B0E6F6E1200680E1F6E09
:103468000E0E1B6E0F0E1C6E1BC014F01F50B3EC1B
:103478001CF01D6E1D5001091D6E1BC013F01DC0F0
:1034880014F01F5084EC1DF01CC014F01F50B3EC56
:103498001CF01E6E1E50FE0B1E6E1CC013F01EC0CC
:1034A80014F01F5084EC1DF02FEC14F01200680E7D
:1034B8001F6E0E0E1B6E0F0E1C6E1BC014F01F50DD
:1034C800B3EC1CF01D6E1D50FE0B1D6E1BC013F0DF
:1034D8001DC014F01F5084EC1DF01CC014F01F50C8
:1034E800B3EC1CF01E6E1E50FE0B1E6E1CC013F0BB
:1034F8001EC014F01F5084EC1DF02FEC14F01200C5
:1035080017C011F018C012F0000E146E7D0E136E65
:1035180027EC1DF011C01BF012C01CF01BC019F0E5
:103528001CC01AF0191E1A1E194A1A2AFF0E19244D
:103538001B6EFF0E1A201C6E030ED56E1BC0D6FF25
:103548001C50D76EF294D58E00D0F2A4FED7D59E2B
:1035580012003BEC1DF011C032F012C033F032C043
:1035680019F033C01AF05DEC1CF019C01DF01AC038
:103578001EF01BC01FF0120E206E830E216E3B0E34
:10358800226E01EC0FF01DC02FF01EC030F01FC0DE
:1035980031F02FC02CF030C02DF031C02EF000D00B
:1035A800120018D0642A180E6418D8A41ED0000E71
:1035B800646E1BD0652A3C0E6518D8A416D0000E80
:1035C800656E13D0662A3C0E6618D8A40ED0000E7D
:1035D800666E0BD05250000AD8B4E4D7010AD8B4AA
:1035E800E9D7030AD8B4EED700D06FEC10F0120078
:1035F80018D06450D8A403D0170E646E1DD064068A
:103608001BD06550D8A403D03B0E656E15D0650657
:1036180013D06650D8A403D03B0E666E0DD0660654
:103628000BD05250000AD8B4E4D7010AD8B4E9D76D
:10363800030AD8B4EED700D06FEC10F01200176E62
:103648002A0EE6EC1EF0000EDEEC1EF017505A248F
:10365800DEEC1EF0000EDEEC1EF015505A24DEECF7
:103668001EF02B0EE6EC1EF0000EDEEC1EF01450E1
:103678006224DEEC1EF0000EDEEC1EF01650622412
:10368800DEEC1EF02C0EE6EC1EF01200680E156E35
:10369800070E146EA4EC1EF0155015243EEC1CF019
:1036A80014503EEC1CF030EC1EF0D88015343EEC83
:1036B8001CF0010EBBEC1BF0586E010EBBEC1BF0AE
:1036C800576E010EBBEC1BF0566E000EBBEC1BF0E8
:1036D800556E9BEC1EF012001A501B10D8B41DD06A
:1036E800010E1C6E05D0D8901A361B361C2A00D045
:1036F8001BBE02D0F8D700D01A50185C1B501958BE
:10370800D8A005D01A50185E1B50195A00D0D8906E
:103718001B321A321C2EF0D700D018C018F019C06E
:1037280019F012002B6E2BC02CF02D6A0ED023C07E
:1037380018F025C019F026C01AF027C01BF02C502D
:1037480095EC17F02C4A2D2A00D024502BC028F0D5
:10375800296A2826000E292228502C5C2D50800A20
:103768002A6E2950800A2A58D8A0E1D71200116E73
:1037780032EC1FF0000E126E070E126401D00FD04B
:10378800FCEC1EF080A403D0D880133604D013506C
:103798001324136E00D02EEC1FF0122AEDD711500F
:1037A800D8B403D0ADEC1EF003D012EC1FF000D05B
:1037B800135000D01200B2CF34F10101356B000E66
:1037C8000101376F020E366F3AEC12F034C1FDF08A
:1037D80035C1FEF0000EB26EFDC011F0FEC012F051
:1037E800000E146E3C0E136E27EC1DF011C041F054
:1037F80012C042F000D012002A0EE6EC1EF0000EB5
:10380800DEEC1EF0000EDEEC1EF0000EDEEC1EF00C
:103818007F0EDEEC1EF02B0EE6EC1EF0000EDEEC4A
:103828001EF0000EDEEC1EF0000EDEEC1EF09F0E09
:10383800DEEC1EF0120011C015F012C016F003D015
:10384800154A162A00D015C0D9FF16C0DAFFDF5076
:10385800D8A4F6D711C013F012C014F0131E141E0A
:10386800134A142A15501324116E16501420126E80
:1038780000D01200116E000E126E070E126401D0F5
:1038880011D011AE03D032EC1FF003D017EC1FF0AB
:1038980000D0FCEC1EF02EEC1FF011501124116E1C
:1038A800122AEBD732EC1FF0FCEC1EF02EEC1FF0C6
:1038B8001200000E1C6E1AAE07D0196C1A1ED8B072
:1038C8001A2A010E1C6E00D019C011F01AC012F08D
:1038D800136A8E0E146E1CC015F06DEC13F011C037
:1038E80019F012C01AF013C01BF000D01200480ED5
:1038F800186EAA0E166EA4EC1EF0185018243EEC92
:103908001CF016503EEC1CF030EC1EF0D880183439
:103918003EEC1CF0000EBBEC1BF0176E9BEC1EF08F
:1039280017C014F0156A00D0120020454345333300
:1039380030314C20466C27323220533320000000AF
:10394800000000000000000000A262E22202C2E0C3
:10395800A8906898B030187A10385A424A52166EB1
:10396800A4EC1EF0165016243EEC1CF014503EEC4D
:103978001CF030EC1EF0D88016343EEC1CF0000E23
:10398800BBEC1BF0156E9BEC1EF0155000D012001E
:1039980011C015F012C016F005D0154A162A134AA0
:1039A800142A00D013C0F6FF14C0F7FF15C0D9FFC2
:1039B80016C0DAFF0800F5CFDFFFDF50D8A4EDD737
:1039C80012001B6E800E1B6013D09F0E186401D06E
:1039D8000FD018C014F01B28156E1828166E1B502F
:1039E80023EC1BF01A50DEEC1EF01950DEEC1EF032
:1039F8001200156E15C011F00F0E111615C012F039
:103A0800123A0F0E121612500A0D1150F324136EAB
:103A1800000EF420146E135000D01200818A819891
:103A2800800EC76E300EC66E62EC0CF000EC1CF017
:103A3800F6EC0FF0360EE6EC1EF0C00EDEEC1EF0D3
:103A4800010E546E120011501302F3CF15F0F4CF8B
:103A580016F011501402F350162612501302F350A8
:103A6800162615C011F016C012F000D01200C2823E
:103A780000D0C2B2FED7C450146E136AC3501324C8
:103A8800156E000E1420166E15C011F016C012F037
:103A980000D012001C6E1C50116E126A136A8E0E32
:103AA800146E000E156E6DEC13F011C019F012C0F3
:103AB8001AF013C01BF000D01200F292F090F092AE
:103AC800F288F086F088F19CF19AF198000ECF6E9A
:103AD800000ECE6E9E909D80F28CF28E1200136EB8
:103AE800000E126E3A0E136006D02F0E136403D028
:103AF800010E126E00D012C011F0113000D0120069
:103B0800156EA4EC1EF0155015243EEC1CF0135055
:103B18003EEC1CF014503EEC1CF09BEC1EF0120026
:103B2800156EA4EC1EF0155015243EEC1CF0135035
:103B38003EEC1CF014503EEC1CF09BEC1EF0120006
:103B4800480E166EAC0E136E020E146E165094ECE0
:103B58001DF0EE0E136E1650CFEC1DF01200000E85
:103B6800186E800E196EA00E1A6E24C01BF025C0A8
:103B78001CF0000ECCEC11F01200000E126E000EBC
:103B8800116E800E125CD8B005D001D003D0114A56
:103B9800122AF7D71200146EA4EC1EF01450142445
:103BA8003EEC1CF013503EEC1CF09BEC1EF0120097
:103BB8005350D8A403D0050E536E02D0530600D03C
:103BC80053506EEC08F01200532A060E5318D8A46E
:103BD80003D0000E536E00D0535091EC07F0120042
:103BE800780E6818D8A403D0780E686E02D0682AB8
:103BF80000D03FEC15F01200320E6818D8A403D09C
:103C0800320E686E02D0680600D03FEC15F0120044
:103C18005250D8A403D0020E526E02D0520600D0E1
:103C280052506EEC08F01200522A030E5218D8A413
:103C380003D0000E526E00D0525091EC07F01200E3
:103C48005AEC18F04AEC1BF072EC19F037EC03F060
:103C5800000E0001F86F12002EEC1FF032EC1FF07E
:103C6800FCEC1EF017EC1FF02EEC1FF0120074ECA9
:103C780016F072EC19F037EC03F0000E0001FA6F41
:103C8800120068C06FF072EC19F037EC03F0000E08
:103C98000001F96F120089EC1EF0C1EC1DF02AEC4E
:103CA8001FF05D508BEC14F0120092EC1EF0C1EC8A
:103CB8001DF02AEC1FF05D508BEC14F01200126E10
:103CC8009E96C9CF11F012C0C9FF00D0C7A0FED779
:103CD8001200000E126E190E116E3C0ED3EC18F085
:103CE800700ED36E12007C0ECB6E050ECA6E3E0EA1
:103CF800BB6E1C0EBA6E12008298000E186E640E0F
:103D0800176E84EC1AF082881200F90ECB6E050E3D
:103D1800CA6E7C0EBB6E3C0EBA6E1200F90ECB6EEC
:103D2800070ECA6E7C0EBB6E3C0EBA6E12002EECED
:103D38001FF017EC1FF0FCEC1EF032EC1FF0120025
:103D480032EC1FF0FCEC1EF017EC1FF02EEC1FF00D
:103D5800120017EC1FF0FCEC1EF02EEC1FF032ECFA
:103D68001FF012005050D8A402D0010E01D0000E4E
:103D7800506E12005D508BEC14F0010E506E808670
:103D8800808A120072EC19F037EC03F0000E000183
:103D9800FA6F120072EC19F037EC03F0000E000114
:103DA800F96F120072EC19F037EC03F0000E000105
:103DB800F86F1200136E819A8188135063EC1EF01D
:103DC800818A1200136E819A8198135063EC1EF059
:103DD800818A1200116E00D0ACA2FED711C0ADFFCF
:103DE8001200010EC26E0E0EC16EA90EC06E120038
:103DF8009288060EE82EFED700D01200000E516EF3
:103E0800F19CCD909E901200000E506E8096809A84
:103E18001200FCEC1EF032EC1FF01200FCEC1EF05D
:103E28002EEC1FF012008094929400D000D0120063
:103E3800F092010E0001F76F1200F090010E0001E0
:103E4800F66F1200116E11C084FF1200000EBA6ED8
:103E5800819612008098929800D01200928400D027
:0E3E680000D01200000E516ECD9012004B00E3
:10FCCA0000000000000000005F00000007000700BD
:10FCDA00147F147F14242A7F2A122313086462369D
:10FCEA00495620500008070300001C224100004129
:10FCFA00221C002A1C7F1C2A08083E080800807063
:10FD0A003000080808080800006060002010080495
:10FD1A00023E5149453E00427F40007249494946E8
:10FD2A002141494D331814127F1027454545393C66
:10FD3A004A49493141211109073649494936464953
:10FD4A0049291E0000140000004034000000081475
:10FD5A0022411414141414004122140802015909EE
:10FD6A00063E415D594E7C1211127C7F4949493643
:10FD7A003E414141227F4141413E7F494949417FBC
:10FD8A00090909013E414151737F0808087F004172
:10FD9A007F41002040413F017F081422417F4040BB
:10FDAA0040407F021C027F7F0408107F3E41414190
:10FDBA003E7F090909063E4151215E7F09192946FC
:10FDCA00264949493203017F01033F4040403F1F12
:10FDDA002040201F3F4038403F6314081463030447
:10FDEA007804036159494D43007F414141020408A7
:10FDFA001020004141417F0402010204404040407A
:10FE0A0040000307080020545478407F28444438AF
:10FE1A003844444428384444287F385454541800F9
:10FE2A00087E090218A4A49C787F08040478004478
:10FE3A007D40002040403D007F1028440000417F63
:10FE4A0040007C047804787C0804047838444444EC
:10FE5A0038FC1824241818242418FC7C08040408E4
:10FE6A00485454542404043F44243C4040207C1CFD
:10FE7A002040201C3C4030403C44281028444C90F0
:10FE8A0090907C4464544C4400083641000000774A
:10FE9A0000000041360800020102040201000A00C3
:10FEAA006400E8031027010010000001001025304B
:10FEBA0032783A253032783A253032782025303275
:10FECA00782F253032782F253032780043616E6ED4
:10FEDA006F742066696E6420627574746F6E200D8B
:10FEEA000A002054656D70203D2025642043203D82
:10FEFA002025642046200052504D203D20256420B4
:10FF0A00206463203D2025640D0A004543453333B0
:10FF1A0030314C205370273232205378000020456C
:10FF2A004345333330314C20462732322053330095
:10FF3A0000454345333330314C2053702732322049
:10FF4A0053780030313233343536373839616263A9
:10FF5A00646566005365742048656174657220544F
:10FF6A00656D700054656D70657261747572653A7D
:10FF7A0000485452205365742054656D70005469CA
:10FF8A006D652053657475700000202048656174A2
:10FF9A00657200200025783A25783A25780D0A00FE
:10FFAA00416C61726D2054696D650020205365743F
:10FFBA007570002000416C61726D2053570020203B
:10FFCA00416C61726D00202053657475700048544D
:10FFDA0052205357004461746500566F6C74004F89
:10FFEA004E20004F46460052504D00432F004443D6
:06FFFA0000524D00000062
:020000040020DA
:08000000FFFFFFFFFFFFFFFF00
:020000040030CA
:0E000000FF08191EFF8281FF0FC00FE00F40A6
:00000001FF
