:020000040000FA
:100000000F0EC16E000E936E000E956E000E966E72
:10001000200E506E700E516E400E526E000E536EDA
:10002000300E546E100E556E600E566E500E576E9A
:10003000060E606E070E616E000E626E020E636E3B
:10004000030E646E040E656E050E666E010E676E1D
:10005000000E206E080E216E00EE50F010EE60F0E3
:10006000EE50836EE650846E2050816E3DEC00F0C1
:10007000202A2106F5E128EF00F0FF0E286E00008F
:10008000FF0E296E00002906FDE12806F8E11200A6
:0200900000006E
:020000040030CA
:0100010008F6
:0100020019E4
:010003001EDE
:010006008178
:00000001FF
