:0400000099EF15F06F
:1010000000010000000A00000064000000E8030086
:101010000010270000A086010040420F0080969833
:101020000000E1F50500CA9A3B00803FCDCC3DD7DA
:10103000233C12833AB7D138C62737388635C0D615
:1010400033CC2B32708930E7DB2EE53C1E42A20DFB
:1010500000803F00204100C842007A44401C4650B6
:10106000C34724744997184BBCBE4C6B6E4E031596
:101070005079AD60F34971524C3A2025660D0A0053
:1010800000005D0E696E000E6A6EFFD2250E7C18A0
:10109000D8B404D07C500CEC16F0F7D2000E6C6E75
:1010A000000E6B6E05D0FFD26C8413D0EED211D03F
:1010B0005BC0F6FF5CC0F7FF5B4A5C2A0800F5CF17
:1010C0007CF07C50000AD8B4EED2660AD8B4ECD7D3
:1010D000DCD2070E6C14D8B4CAD2000E6E6E060EA7
:1010E0006D6E69C0D9FF6AC0DAFFDECF79F0DECF5E
:1010F0007AF0DDCF7BF0030E6926000E6A227BAE0C
:1011000011D079C001F07AC002F07BC003F0D5ECB9
:1011100015F001C079F002C07AF003C07BF0030E35
:101120006B1200D0000E746E000E736E79507A1040
:101130007B10D8B485D0820E606EFF0E616E79C0D0
:1011400062F07AC063F07BC064F07CC065F0100E82
:1011500005D0D8906532643263326232E82EF9D716
:1011600062506024736E000E6120746E7306D8A006
:10117000740673C039F074C03AF0000E3C6E030E72
:101180003B6EAEEC15F039C073F03AC074F073C02A
:1011900031F074C032F0000E346E0A0E336E9CECE7
:1011A00013F031C073F032C074F074AE04D0730623
:1011B000D8A0740600D07350000854EC0BF03FC068
:1011C00075F040C076F041C077F075C00DF076C084
:1011D0000EF077C00FF079C010F07AC011F07BC02C
:1011E00012F0D9EC11F00DC075F00EC076F00FC002
:1011F00077F075C001F076C002F077C003F0000E02
:10120000046E800E056E3F0E066EE7EC13F0D8B04C
:1012100004D07306D8A0740613D075C001F076C050
:1012200002F077C003F0000E046E200E056E410E32
:10123000066EE7EC13F0D8A003D0734A742A00D0EE
:101240006EBE06D06E501CE10D0E6D5CD8B018D08D
:1012500079C049F07AC04AF07BC04BF06D50C8ECC1
:101260000EF03FC04CF040C04DF041C04EF0EAECF3
:101270000FF049C079F04AC07AF04BC07BF000D043
:1012800074BE06D0745020E10A0E735CD8B01CD036
:1012900079507A107B10D8B46DD079C01CF07AC028
:1012A0001DF07BC01EF055EC12F01C501D101E10DE
:1012B0001F10D8B474BE5ED0745006E1020E735C89
:1012C000D8B002D057D000D075C001F076C002F07F
:1012D00077C003F0700E046E890E056E400E066E28
:1012E000E7EC13F0D8B002D0F70E01D0F80E732659
:1012F000FF0E742200D0735054EC0BF03FC075F019
:1013000040C076F041C077F017D079C001F07AC0C4
:1013100002F07BC003F075C004F076C005F077C022
:1013200006F054EC11F001C06FF002C070F003C081
:1013300071F004C072F017D079C001F07AC002F0E9
:101340007BC003F075C004F076C005F077C006F0EE
:10135000CCEC10F001C06FF002C070F003C071F06F
:1013600004C072F000D0000E796E000E7A6E000E8E
:101370007B6E33D079C01CF07AC01DF07BC01EF0AC
:1013800055EC12F01CC06FF01DC070F01EC071F063
:101390001FC072F079C055F07AC056F07BC057F08C
:1013A0006FC009F070C00AF071C00BF072C00CF091
:1013B00029EC15F009C058F00AC059F00BC05AF0DA
:1013C00059EC15F055C079F056C07AF057C07BF053
:1013D000000E746E000E736E00D0010E7C6E0A0E4D
:1013E0007C18D8B41CD001D01AD07C50040D010E4A
:1013F000F324F66E100EF420F76E0900F5506F5CC2
:101400000900F55070580900F55071580900F55061
:101410007258D8A004D001D002D07C2AE0D7030EA5
:101420006B14606E000E6C14616E60506110D8B465
:1014300049D02D0E0CEC16F045D06FC001F070C0F5
:1014400002F071C003F072C004F07C50040D010E74
:10145000F324F66E100EF420F76E0900F5CF05F0B8
:101460000900F5CF06F00900F5CF07F00A00F5CF27
:1014700008F032EC14F001C075F002C076F003C041
:1014800077F004C078F075C001F076C002F077C044
:1014900003F078C004F00A0E056E000E066E000E12
:1014A000076E000E086EB9EC14F001C075F002C0B2
:1014B00076F003C077F004C078F07550300F0CEC74
:1014C00016F000D07C067C28D8B409D0B6D707D057
:1014D000300E0CEC16F07306D8A0740600D074BE63
:1014E00005D07450F5E17304D8B0F2D76EBE09D0C0
:1014F0006E5004E1090E6D5CD8A003D0080E7C6E1E
:1015000003D06DC07CF000D07C506D5E000E7CBEC0
:10151000FF0E6E5A7C50D8B404D02E0E0CEC16F090
:1015200000D07C5054EC0BF03FC066F040C067F038
:1015300041C068F079C010F07AC011F07BC012F0A1
:1015400066C00DF067C00EF068C00FF0D9EC11F066
:101550000DC01CF00EC01DF00FC01EF055EC12F0B7
:101560001CC06FF01DC070F01EC071F01FC072F083
:101570006BD06FC001F070C002F071C003F072C098
:1015800004F07C50040D010EF324F66E100EF420CE
:10159000F76E0900F5CF05F00900F5CF06F0090058
:1015A000F5CF07F00A00F5CF08F032EC14F001C0D7
:1015B00075F002C076F003C077F004C078F075C013
:1015C00001F076C002F077C003F078C004F00A0E94
:1015D000056E000E066E000E076E000E086EB9EC6A
:1015E00014F001C075F002C076F003C077F004C0BB
:1015F00078F07550300F0CEC16F06FC001F070C031
:1016000002F071C003F072C004F07C50040D010EB2
:10161000F324F66E100EF420F76E0900F5CF05F0F6
:101620000900F5CF06F00900F5CF07F00A00F5CF65
:1016300008F0B9EC14F001C06FF002C070F003C004
:1016400071F004C072F000D07C067C28D8B409D0B8
:1016500090D707D0300E0CEC16F06D06D8A06E06B1
:1016600000D06D506E10D8B410D0F4D70ED0030E49
:101670006B14606E000E6C14616E60506110D8B413
:1016800004D02D0E0CEC16F000D05BC0F6FF5CC051
:10169000F7FF5B4A5C2A0800F5CF7CF07C50D8B499
:1016A00002D0F4D400D01200456E45AEEFD0456CA8
:1016B0004550800A120FD8A08DD0000E3C6E030E4C
:1016C0003B6E000E346E0A0E336E000E2E6E640EEC
:1016D0002D6E45502B6E2C6A2BBE2C0678EC14F028
:1016E0002BC031F02CC032F09CEC13F0090E3124E9
:1016F000396E000E32203A6EAEEC15F0290E392408
:10170000F66E100E3A20F76E0900F5CF10F00900C2
:10171000F5CF11F00A00F5CF12F0000E346E640E12
:10172000336E4550316E326A31BE32069CEC13F096
:10173000120E3124396E000E32203A6E000E3C6ECD
:10174000030E3B6EAEEC15F0290E3924F66E100E2A
:101750003A20F76E0900F5CF0DF00900F5CF0EF035
:101760000A00F5CF0FF0D9EC11F00DC042F00EC019
:1017700043F00FC044F042C00DF043C00EF044C02F
:101780000FF0000E3C6E030E3B6E000E2E6E0A0E26
:101790002D6E45502B6E2C6A2BBE2C0678EC14F067
:1017A0002BC039F02CC03AF0AEEC15F0290E3924DC
:1017B000F66E100E3A20F76E0900F5CF10F0090012
:1017C000F5CF11F00A00F5CF12F0D9EC11F041D1AC
:1017D0005AD154D04550800A750FD8A04FD0000E72
:1017E000346E0A0E336E4550316E326A31BE3206A7
:1017F0009CEC13F0090E3124396E000E32203A6E43
:10180000000E3C6E030E3B6EAEEC15F0290E392433
:10181000F66E100E3A20F76E0900F5CF0DF00900B4
:10182000F5CF0EF00A00F5CF0FF0000E3C6E030E60
:101830003B6E000E2E6E0A0E2D6E45502B6E2C6ADE
:101840002BBE2C0678EC14F02BC039F02CC03AF0EB
:10185000AEEC15F0290E3924F66E100E3A20F76E14
:101860000900F5CF10F00900F5CF11F00A00F5CF0F
:1018700012F0D9EC11F0EDD006D100D04550030D97
:10188000290EF324F66E100EF2D0FDD04550800ADA
:10189000120FD8A08DD0000E3C6E030E3B6E000ED2
:1018A000346E0A0E336E000E2E6E640E2D6E455091
:1018B0002B6E2C6A2BBE2C0678EC14F02BC031F06A
:1018C0002CC032F09CEC13F0090E3124396E000E5E
:1018D00032203A6EAEEC15F0500E3924F66E100E32
:1018E0003A20F76E0900F5CF10F00900F5CF11F09E
:1018F0000A00F5CF12F0000E346E640E336E4550C0
:10190000316E326A31BE32069CEC13F0120E312475
:10191000396E000E32203A6E000E3C6E030E3B6EA6
:10192000AEEC15F0500E3924F66E100E3A20F76E1C
:101930000900F5CF0DF00900F5CF0EF00A00F5CF44
:101940000FF0D9EC11F00DC042F00EC043F00FC003
:1019500044F042C00DF043C00EF044C00FF0000E42
:101960003C6E030E3B6E000E2E6E0A0E2D6E455021
:101970002B6E2C6A2BBE2C0678EC14F02BC039F0A1
:101980002CC03AF0AEEC15F0500E3924F66E100E65
:101990003A20F76E0900F5CF10F00900F5CF11F0ED
:1019A0000A00F5CF12F0D9EC11F053D06CD059D019
:1019B0004550800A750FD8A054D0000E346E0A0E20
:1019C000336E4550316E326A31BE32069CEC13F0F4
:1019D000090E3124396E000E32203A6E000E3C6E34
:1019E000030E3B6EAEEC15F0500E3924F66E100E61
:1019F0003A20F76E0900F5CF0DF00900F5CF0EF093
:101A00000A00F5CF0FF0000E3C6E030E3B6E000E89
:101A10002E6E0A0E2D6E45502B6E2C6A2BBE2C0698
:101A200078EC14F02BC039F02CC03AF0AEEC15F085
:101A3000500E3924F66E100E3A20F76E0900F5CFDD
:101A400010F00900F5CF11F00A00F5CF12F0D9EC33
:101A500011F00DC03FF00EC040F00FC041F013D0A8
:101A600000D04550030D500EF324F66E100EF420F6
:101A7000F76E0900F5CF3FF00900F5CF40F00A00FE
:101A8000F5CF41F000D01200F9EC15F013EC16F090
:101A900020EE9FF010EE80F0090EDBCFE3FFE806AA
:101AA000FCE29268000E936E000E946E000E956E2E
:101AB000000E966E00D0020E1AEC16F0C2EC15F075
:101AC00001C08AF002C08BF0000E106E800E116E05
:101AD000400E126E8AC009F08BC00AF07BEC15F044
:101AE00009C00DF00AC00EF00BC00FF0D9EC11F0D8
:101AF0000DC055F00EC056F00FC057F0000E586ED6
:101B00007A0E596E440E5A6EC8EC12F055C094F01D
:101B100056C095F057C096F0000E106E200E116E54
:101B2000410E126E94C00DF095C00EF096C00FF0ED
:101B3000D9EC11F00DC055F00EC056F00FC057F0A3
:101B4000120E4C6E830E4D6E400E4E6E94C001F020
:101B500095C002F096C003F0D5EC15F001C049F035
:101B600002C04AF003C04BF0EAEC0FF049C058F055
:101B70004AC059F04BC05AF0C8EC12F055C09CF066
:101B800056C09DF057C09EF09CC001F09DC002F071
:101B90009EC003F0000E046E200E056E410E066E10
:101BA000E7EC13F0D8B05FD09CC01CF09DC01DF0D6
:101BB0009EC01EF055EC12F01CC08CF01DC08DF0C4
:101BC000000E106E200E116E410E126E9CC00DF0B4
:101BD0009DC00EF09EC00FF0D9EC11F00DC01CF0AE
:101BE0000EC01DF00FC01EF055EC12F01CC02BF003
:101BF0001DC02CF0000E2E6E0A0E2D6E78EC14F027
:101C00002BC08EF02CC08FF0800E00018E25D96E77
:101C1000000E00018F21DA6EDF50836E800E00010E
:101C20008C25D96E000E00018D21DA6EDF50000187
:101C3000996F000199513F0B826E000E846E000176
:101C400099AD03D0020E846E00D0839E770E5B6E3A
:101C5000100E5C6E9CC05DF09DC05EF09EC05FF09B
:101C600041EC08F057D09CC01CF09DC01DF09EC0F8
:101C70001EF055EC12F01CC097F01DC098F097C0F4
:101C800031F098C032F0000E346E0A0E336E9CECC8
:101C900013F031C090F032C091F097C02BF098C093
:101CA0002CF0000E2E6E0A0E2D6E78EC14F02BC068
:101CB00092F02CC093F0800E00019225D96E000E98
:101CC00000019321DA6EDF50836E800E00019025B3
:101CD000D96E000E00019121DA6EDF5000019A6F7B
:101CE00000019A513F0B826E000E846E00019AAD86
:101CF00003D0020E846E00D0838E770E5B6E100EC2
:101D00005C6E9CC05DF09DC05EF09EC05FF041ECDB
:101D100008F000D09CC01CF09DC01DF09EC01EF0BD
:101D200055EC12F01CC031F01DC032F0000E346EC4
:101D30000A0E336E9CEC13F0315000019B6F060EBF
:101D400000019B6503D0070E816E03D09BC081FF0D
:101D500000D05C0E016E8F0E026E3D0E036E9CC0B5
:101D600004F09DC005F09EC006F0E7EC13F0D8A08B
:101D700005D08188818A03EC16F005D08198819A7C
:101D800025EC16F000D0E7EC15F095D600EF00F04A
:101D9000486E6D0E48649BD0000E3C6E030E3B6E89
:101DA000000E346E0A0E336E000E2E6E640E2D6E13
:101DB00048C02BF02C6A78EC14F02BC031F02CC00A
:101DC00032F09CEC13F0090E3124396E000E3220F3
:101DD0003A6EAEEC15F0290E3924F66E100E3A204C
:101DE000F76E0900F5CF10F00900F5CF11F00A00E9
:101DF000F5CF12F0000E346E640E336E48C031F031
:101E0000326A9CEC13F0120E3124396E000E32202F
:101E10003A6E000E3C6E030E3B6EAEEC15F0290ED2
:101E20003924F66E100E3A20F76E0900F5CF0DF04A
:101E30000900F5CF0EF00A00F5CF0FF0D9EC11F044
:101E40000DC045F00EC046F00FC047F0000E3C6ECE
:101E5000030E3B6E000E2E6E0A0E2D6E48C02BF048
:101E60002C6A78EC14F02BC039F02CC03AF0AEECB0
:101E700015F0290E3924F66E100E3A20F76E09007F
:101E8000F5CF10F00900F5CF11F00A00F5CF12F0F0
:101E900045C00DF046C00EF047C00FF0D9EC11F070
:101EA0000DC042F00EC043F00FC044F042C00DF030
:101EB00043C00EF044C00FF0000E106E000E116E05
:101EC0003F0E126ED9EC11F07DD083D062D00A0E95
:101ED00048645FD0000E3C6E030E3B6E000E2E6E0B
:101EE0000A0E2D6E48C02BF02C6A78EC14F02BC033
:101EF00039F02CC03AF0AEEC15F0290E3924F66E0C
:101F0000100E3A20F76E0900F5CF10F00900F5CF5A
:101F100011F00A00F5CF12F0000E346E0A0E336E87
:101F200048C031F0326A9CEC13F0090E3124396E4E
:101F3000000E32203A6E000E3C6E030E3B6EAEEC8D
:101F400015F0290E3924F66E100E3A20F76E0900AE
:101F5000F5CF0DF00900F5CF0EF00A00F5CF0FF028
:101F6000D9EC11F00DC045F00EC046F00FC047F09F
:101F700045C00DF046C00EF047C00FF0000E106EC9
:101F8000000E116E3F0E126ED9EC11F01BD021D055
:101F900000D04850030D290EF324F66E100EF420E5
:101FA000F76E0900F5CF0DF00900F5CF0EF00A002D
:101FB000F5CF0FF0000E106E000E116E3F0E126E78
:101FC000D9EC11F00DC03FF00EC040F00FC041F051
:101FD00000D012004BC04FF0506A516A4A344F365D
:101FE00001E350804F50546E4EC04FF0506A516A1A
:101FF0004D344F3601E350804F50536E5450D8B497
:102000000BD05350545CD8B00ED054500008532419
:102010004F6E180E4F6407D04CC049F04DC04AF0C7
:102020004EC04BF0B8D05350D8B40BD05450535C82
:10203000D8B00ED05350000854244F6E180E4F6481
:1020400007D049C049F04AC04AF04BC04BF0A3D07A
:10205000060E526E4BAE02D0528E00D04EBE528C47
:102060004A8EFF0E4916FF0E4A16000E4B164D8E75
:10207000FF0E4C16FF0E4D16000E4E165350545CBC
:10208000D8B01ED0D8904C364D364E3653065450EC
:102090005318D8B40FD0520652C04FF0070E4F1647
:1020A000D8B408D0EFD706D0D8904B324A32493254
:1020B000542A00D053505418D8B424D0F5D722D085
:1020C0005450535CD8B01ED0D89049364A364B365F
:1020D000540654505318D8B40FD0520652C04FF083
:1020E000070E4F16D8B408D0EFD706D0D8904E328E
:1020F0004D324C32532A00D053505418D8B402D029
:10210000F5D700D052AE0CD0FF0E491AFF0E4A1A76
:10211000FF0E4B1A010E4926000E4A22000E4B22DA
:1021200052AC0DD0FF0E4C1AFF0E4D1AFF0E4E1A78
:10213000010E4C26000E4D22000E4E2200D0000E45
:10214000526E49504C264A504D224B504E224EAEB4
:102150000FD0FF0E4C1AFF0E4D1AFF0E4E1A010E35
:102160004C26000E4D22000E4E22010E526E00D063
:102170004CC001F04DC002F04EC003F054C004F05A
:1021800052C005F039EC13F001C049F002C04AF02A
:1021900003C04BF000D0120003C007F0086A096AC0
:1021A0000234073601E3088007500F6E0F50D8A4A1
:1021B00002D05DD078D006C007F0086A096A0534FD
:1021C000073601E3088007500E6E0E50D8A402D0E7
:1021D0004ED069D0028EFF0E0116FF0E0216000EC1
:1021E0000316058EFF0E0416FF0E0516000E0616CA
:1021F000000E0A6E000E0B6E000E0C6E000E0D6EC1
:102200007F0E0F5E0E50980F0F5E180E0E6ED89058
:102210000A360B360C360D360450015C0550025858
:1022200006500358D8A007D00450015E0550025A4A
:102230000650035A0A80D8900136023603360E2E15
:10224000E6D700D00FAE10D00F50800A970FD8B04D
:1022500003D00DD028D000D0D8900D320C320B32E4
:102260000A320F3EF9D717D0170E0F6411D0000EA7
:10227000016E000E026E000E036E000E046E13D08F
:1022800007D0D8900A360B360C360D360F0600D024
:102290000F50D8A4F6D70AC001F00BC002F00CC052
:1022A00003F00DC004F01200033404340C6E0C5023
:1022B000D8A402D061D07CD0063407340B6E0B500A
:1022C000D8A402D059D074D0038EFF0E0116FF0E91
:1022D0000216FF0E0316000E0416068EFF0E0416DD
:1022E000FF0E0516FF0E0616000E0716000E076EEF
:1022F000000E086E000E096E000E0A6E7F0E0C5E58
:102300000B50A00F0C5E200E0B6E00D0D89007363D
:10231000083609360A360450015C0550025806504A
:10232000035807500458D8A00AD00450015E055045
:10233000025A0650035A0750045A078000D0D8901A
:1023400001360236033604360B2EE0D700D00CAE31
:1023500010D00C50800A9F0FD8B003D00DD028D0D9
:1023600000D0D8900A320932083207320C3EF9D731
:1023700017D01F0E0C6411D0000E016E000E026EFD
:10238000000E036E000E046E13D007D0D8900736EF
:10239000083609360A360C0600D00C50D8A4F6D7F9
:1023A00007C001F008C002F009C003F00AC004F041
:1023B00012000FC013F0146A156A0E34133601E3CD
:1023C00014801350166E1650D8A402D00ED06CD0C4
:1023D00012C013F0146A156A1134133601E3148025
:1023E00013501B6E1B50D8A407D0000E0D6E000EAC
:1023F0000E6E000E0F6E58D01B507B0F16260FC0AE
:102400001BF012501B1A800E1B160E8E118EFF0E23
:102410001016FF0E1116000E1216000E176E000E8B
:10242000186E000E196E070E1A6E00D00DA007D0A0
:1024300010501726115018221250192200D0D8908F
:102440000F320E320D32D8901036113612361A2E47
:10245000EDD700D0090E1A6E00D00DA007D0105095
:102460001726115018221250192200D0D8900F327E
:102470000E320D32D8901932183217321A2EEDD78B
:1024800000D017C001F018C002F019C003F016C048
:1024900004F01BC005F039EC13F001C00DF002C0D0
:1024A0000EF003C00FF000D012001EC020F0216A11
:1024B000226A1D34203601E3218020502A6E2A50E2
:1024C000D8A402D039D063D0170E206E1CC021F0E2
:1024D0001DC022F01EC023F02028246E04D0D89006
:1024E000233222322132242EFAD72150256E1D8E1E
:1024F000FF0E1C16FF0E1D16000E1E161C50266E1B
:102500001D50276E1E50286E296A8E0E2A5E2AAE36
:1025100010D02A50800A8F0FD8B003D00DD037D0FA
:1025200000D0D89029322832273226322A3EF9D7D5
:1025300019D0170E2A6411D0000E1C6E000E1D6EED
:10254000000E1E6E000E1F6E22D007D0D8902636C9
:102550002736283629362A0600D02A50D8B402D089
:10256000F5D700D02550D8B409D0291E281E271E23
:10257000266C000E27222822292200D026C01CF01B
:1025800027C01DF028C01EF029C01FF000D0120087
:1025900057C05BF05C6A5D6A56345B3601E35C8071
:1025A0005B50626E6250D8A402D00ED061D05AC087
:1025B0005BF05C6A5D6A59345B3601E35C805B50BA
:1025C000636E6350D8A407D0000E556E000E566E91
:1025D000000E576E4DD0000E5F6E000E606E000E46
:1025E000616E6350890F625E57C063F05A50631A80
:1025F000800E6316568EFF0E5516FF0E5616000EF1
:102600005716598EFF0E5816FF0E5916000E5A1601
:10261000180E5E6E00D0D8905F3660366136585026
:10262000555C595056585A505758D8A007D0585052
:10263000555E5950565A5A50575A5F80D890553661
:10264000563657365E2EE7D700D05FC001F060C027
:1026500002F061C003F062C004F063C005F039EC21
:1026600013F001C055F002C056F003C057F000D07F
:1026700012000450D8B405D0015002100310D8A4A1
:102680000ED0000E016E000E026E000E036E53D0CF
:1026900006D0042AD89003320232013200D0000E54
:1026A0000114066E000E0214076EFE0E0314086E6F
:1026B000065007100810D8B40ED0EBD70CD0042A5F
:1026C000010E0126000E0222000E0322D8900332D2
:1026D0000232013200D0000E0114066E000E021408
:1026E000076EFF0E0314086E065007100810D8B4CA
:1026F00008D0E5D706D00406D89001360236033656
:1027000000D002BE04D0020E0460F5D700D004B0A1
:1027100002D0029E00D0D89004320450031205501B
:10272000D8B402D0038E00D001C001F002C002F084
:1027300003C003F000D01200000E366E34AE07D096
:10274000336C341ED8B0342A010E366E00D032AE4F
:1027500007D0316C321ED8B0322A010E361A00D0A2
:10276000000E386E000E376E33503410D8B421D0BE
:10277000010E356E05D0D89033363436352A00D068
:1027800034BE02D0F8D700D0D89037363836335020
:10279000315C34503258D8A006D03350315E3450BA
:1027A000325A378000D0D89034323332352EECD7BD
:1027B00000D03650D8B405D0376C381ED8B0382A7F
:1027C00000D037C031F038C032F000D0120003AE74
:1027D00017D001C007F002C008F003C009F0071EBF
:1027E000081E091E072A000E08220922000E0724CF
:1027F000016E000E0820026E800E0920036E00D0CC
:1028000006AE17D004C007F005C008F006C009F0F6
:10281000071E081E091E072A000E08220922000EA4
:102820000724046E000E0820056E800E0920066E37
:1028300000D0000E011A000E021A800E031A000EBC
:10284000041A000E051A800E061A0450015C055089
:10285000025806500358D8B002D0D89002D0D88081
:1028600000D01200000E096E000E0A6E000E0B6EF4
:10287000000E0C6E0550061007100810D8B42FD0AB
:10288000010E0D6E07D0D89005360636073608368D
:102890000D2A00D008BE02D0F6D700D0D890093655
:1028A0000A360B360C360550015C065002580750AC
:1028B000035808500458D8A00AD00550015E0650AD
:1028C000025A0750035A0850045A098000D0D89081
:1028D00008320732063205320D2EE0D700D009C08B
:1028E00001F00AC002F00BC003F00CC004F01200AB
:1028F000000E306E2CAE07D02B6C2C1ED8B02C2ABC
:10290000010E306E00D02EAE05D02D6C2E1ED8B02C
:102910002E2A00D02D502E10D8B41DD0010E2F6EAF
:1029200005D0D8902D362E362F2A00D02EBE02D0BC
:10293000F8D700D02D502B5C2E502C58D8A005D0A5
:102940002D502B5E2E502C5A00D0D8902E322D3286
:102950002F2EF0D700D03050D8B405D02B6C2C1EC1
:10296000D8B02C2A00D02BC02BF02CC02CF000D0DB
:1029700012000550061007100810D8B429D0010E17
:10298000096E07D0D8900536063607360836092A6C
:1029900000D008BE02D0F6D700D00550015C06502A
:1029A00002580750035808500458D8A009D00550C1
:1029B000015E0650025A0750035A0850045A00D0CC
:1029C000D8900832073206320532092EE6D700D0F9
:1029D00001C001F002C002F003C003F004C004F023
:1029E0001200036E000EAC6E000EAB6E03A002D0A0
:1029F000AC8800D003A203D0AC8CAB8C00D003A475
:102A000002D0AC8E00D003A602D0AB8802D0AB8A35
:102A100000D003B8AC849E9803AA02D0AB8600D045
:102A200003AC02D09D8A01D09D9A9E9A03AE02D03B
:102A30009D8801D09D9801C0AFFF0250B06EAC8A56
:102A4000AB8E949C948EACB8ACBE02D0948C00D06B
:102A500012008E0E116E07D0D8900C320B320A3253
:102A60000932112A00D0000E09140D6E000E0A144E
:102A70000E6E000E0B140F6EFF0E0C14106E0D5028
:102A80000E100F101010D8A4E7D709C001F00AC02B
:102A900002F00BC003F011C004F0000E056E39EC1B
:102AA00013F001C009F002C00AF003C00BF000D01F
:102AB0001200585059105A10D8B407D0000E581AA6
:102AC000000E591A800E5A1A00D055C049F056C04F
:102AD0004AF057C04BF058C04CF059C04DF05AC0A6
:102AE0004EF0EAEC0FF049C055F04AC056F04BC02A
:102AF00057F000D01200000E0C6E0AAE07D0096C21
:102B00000A1ED8B00A2A010E0C6E00D009C001F0CE
:102B10000AC002F0036A8E0E046E0CC005F039EC98
:102B200013F001C009F002C00AF003C00BF000D09E
:102B30001200400EF66E2C0EF76E000EF86E00EED0
:102B40009FF010EE0AF00900F5CFEEFFE550E150DE
:102B5000FAE1000EF86E000144EF0DF039503B022F
:102B6000F3CF3DF0F4CF3EF039503C02F3503E2617
:102B70003A503B02F3503E263DC039F03EC03AF099
:102B800000D01200C28200D0C2B2FED7C450046E80
:102B9000036AC3500324056E000E0420066E05C0B0
:102BA00001F006C002F000D0120001500210031024
:102BB000D8B406D0000E011A000E021A800E031AB5
:102BC00001C001F002C002F003C003F01200000EC9
:102BD000026E000E016E02BE08D0680E015C420E4D
:102BE0000258D8B005D001D003D0014A022AF3D749
:102BF0001200000E026E190E016E3C0EF1EC14F084
:102C0000600ED36E1200F90ECB6E050ECA6E4A0E20
:102C1000BB6E3C0EBA6E1200016E00D0ACA2FED7A5
:102C200001C0ADFF1200010EC26E1E0EC16EA90ED4
:102C3000C06E1200016E0150040DF328C26E120026
:102C4000014F12064C24200F0004000EBA6E81962C
:022C5000120070
:020000040020DA
:08000000FFFFFFFFFFFFFFFF00
:020000040030CA
:0E000000FF08191EFF8281FF0FC00FE00F40A6
:00000001FF
