:040000000CEF00F011
:10000800FACF03F0FBCF04F0E9CF05F09DED08F03F
:10001800DBEF08F01F0E306E000E316E99D1250E01
:100028003818D8B404D03850BDEC0CF091D1000E7B
:10003800376E000E366E000E356E05D035841D4ABB
:100048001E2A01D00BD01DC0F6FF1EC0F7FF080006
:10005800F550300AD8B4F2D701D0F5D71DC0F6FF55
:100068001EC0F7FF0800F55016EC0CF0D8A03BD0E6
:10007800000E376E000E366E00D036C011F037C055
:1000880012F0000E146E0A0E136EF0EC0BF011C095
:1000980036F012C037F0D00E2B6EFF0E2C6E1DC03E
:1000A800F6FF1EC0F7FF0800F5502D6E2E6A2B5084
:1000B8002D262C502E222D5036262E5037221D4A02
:1000C8001E2A1DC0F6FF1EC0F7FF0800F55016ECEB
:1000D8000CF0D8A008D0D1D706D048D11BD0358E87
:1000E80019D036D117D01DC0F6FF1EC0F7FF1D4A24
:1000F8001E2A0800F5CF38F03850000AD8B436D197
:10010800640AD8B407D00D0AD8B404D0110AD8B4F8
:10011800E6D71ED135BE15D030C0D9FF31C0DAFFC1
:10012800DECF33F0DDCF34F0020E3026000E312260
:1001380034AE4ED0030E3512336C341ED8B0342A88
:1001480047D030C0D9FF31C0DAFFDECF33F0DDCF82
:1001580034F0020E3026000E31223AD0010E386EED
:10016800050E3818D8B43DD001D03BD03850020D18
:10017800660EF324F66EFF0EF420F76E0900F550B4
:10018800335C0900F5503458D8A02BD001D029D0C1
:10019800382AE6D726D0010E386E040E3818D8B49F
:1001A80020D001D01ED03850020D700EF324F66E08
:1001B800FF0EF420F76E0900F550335C0900F55086
:1001C8003458D8A00ED001D00CD0382AE6D709D0A0
:1001D8003550800B000AD8B4C1D7800AD8B4DBD711
:1001E80000D036503710D8B40AD035C02BF0030EE3
:1001F8002B16D8B404D03606D8A0370600D0800E07
:1002080038BE7F0E2B6E3650385C3750800A2B581C
:10021800D8B007D03850365E000E38BEFF0E375AB9
:1002280005D0000E376E000E366E00D035A41AD0F9
:1002380035C02BF0030E2B16D8B404D02D0EBDEC10
:100248000CF000D036503710D8B426D0300EBDECA4
:100258000CF03606D8A0370636503710D8B41CD064
:10026800F5D71AD036503710D8B40CD0200EBDECC4
:100278000CF03606D8A0370636503710D8B402D05E
:10028800F5D700D035C02BF0030E2B16D8B404D008
:100298002D0EBDEC0CF000D038C032F053D045D054
:1002A8003250020D660EF324F66EFF0EF420F76E40
:1002B8000900F5CF13F00A00F5CF14F033C011F0A0
:1002C80034C012F0B5EC09F011C018F012C019F0E2
:1002D800000E1B6E0A0E1A6E86EC0AF01850300FCC
:1002E800386E2CD033C011F034C012F03250020DE9
:1002F800700EF324F66EFF0EF420F76E0900F5CFAA
:1003080013F00A00F5CF14F0B5EC09F011500F0BFB
:100318002F6E2F50010DD50EF324F66EFF0EF4202C
:10032800F76E0800F5CF38F009D03550800B000A79
:10033800D8B4B6D7800AD8B4D5D700D03850BDECD9
:100348000CF000D032063228D8B402D0EED700D054
:100358001DC0F6FF1EC0F7FF1D4A1E2A0800F5CF74
:1003680038F03850D8B402D05AD600D01200F5EC84
:100378000AF000D083EC09F062506D18D8B44CD064
:1003880062C06DF074EC0BF014500001FB6F0001BB
:10039800FB51116E126A11BE1206000E146E090E80
:1003A800136EF0EC0BF011C017F012C018F0000E2D
:1003B8001A6E050E196E88EC07F01750200F000111
:1003C800FA6FA30E1D6EFF0E1E6E5DC01FF0206A31
:1003D8005FC021F0226A62C023F0246A60C025F061
:1003E800266A5AC027F0286A6CC029F02A6A0EECDF
:1003F80000F0780E1D6EFF0E1E6E0001FB511F6E81
:10040800206A1FBE20060001FA51216E226A21BE11
:1004180022060EEC00F000D04C044D10D8A4AAD748
:10042800000E4D6E000E4C6EE60E1D6EFF0E1E6E1B
:1004380050C01FF0206A0EEC00F0F288F19C7A0E92
:100448005018D8A403D050EC09F000D00001FE6980
:10045800000E0001FD6F000EFC6F0001FDBF0AD009
:100468000001FD511BE1150E0001FC5DD8B016D04E
:1004780001D014D0BF0E0001FC25D96E000E00017A
:10048800FD21DA6E5050DE18D8A403D0FCC0FEF06F
:1004980005D00001FC4BFD2BE0D700D00001FE2960
:1004A800D8B468D70001FE51010D950EF324D96E1A
:1004B800000EF420DA6EDF50846E0001FE51010D4B
:1004C800800EF324D96E000EF420DA6EDF50436EEE
:1004D8000001FE51010DAA0EF324D96E000EF4207E
:1004E800DA6EDF504310836E000E3C6E3C0E3B6E9E
:1004F800000E3E6E500E3D6E000E406E140E3F6EA6
:100508000001FE51020D000EF324D96E010EF420F5
:10051800DA6EDECF41F0DDCF42F00DEC0AF0000ECE
:100528001D6E3C0E1C6E000E1F6E500E1E6E000ED1
:10053800216E140E206EFF0E236E2268C4EC02F0AA
:100548004D0E396E0001FE51040D2A0EF3243A6E49
:10055800010EF4203B6EFF0E3D6E3C68000E3F6EB0
:10056800000E3E6E010E406E340E1CEC06F0A4EC3C
:100578000CF004EC0CF0DFEC0CF0FCD60CEF00F007
:1005880020C024F021C025F0241E251E244A252A37
:10059800010E24242A6E000E25202B6E000E276ED5
:1005A800010E266E20C024F021C025F0D8902436F4
:1005B8002536241E251E244A252A24C028F025C0B5
:1005C80029F0000E2D6E000E2C6E20C02EF021C0DA
:1005D8002FF01E502024186E22C019F023C01AF0E4
:1005E8001C50C3EC0BF0205000081E24186E22C0CB
:1005F80019F023C01AF01C50C3EC0BF01EC018F001
:1006080022C019F023C01AF01C502024C3EC0BF0B0
:100618001EC018F022C019F023C01AF0205000089C
:100628001C24C3EC0BF078D02BBE0BD02E06D8A020
:100638002F06020E2826000E292228502A26295085
:100648002B222C4A2D2A020E2626000E272226505F
:100658002A2627502B221E502E24186E22C019F04D
:1006680023C01AF01C502C24C3EC0BF01E502E246F
:10067800186E22C019F023C01AF02C5000081C2450
:10068800C3EC0BF02E5000081E24186E22C019F07F
:1006980023C01AF01C502C24C3EC0BF02E50000879
:1006A8001E24186E22C019F023C01AF02C5000081E
:1006B8001C24C3EC0BF01E502C24186E22C019F019
:1006C80023C01AF01C502E24C3EC0BF01E502C240F
:1006D800186E22C019F023C01AF02E5000081C24EE
:1006E800C3EC0BF02C5000081E24186E22C019F021
:1006F80023C01AF01C502E24C3EC0BF02C50000819
:100708001E24186E22C019F023C01AF02E500008BB
:100718001C24C3EC0BF000D02E502C5C2D50800A0A
:10072800246E2F50800A2458D8A07ED71200F29247
:100738005150D8B49CD0CE50CFCF01F0026A01C03E
:1007480002F0016A0110486E0250496E000ECF6E29
:10075800000ECE6E8CD0000ECF6E000ECE6E9E9028
:10076800900ECD6ECD80000E586E000E446E000EB9
:10077800456E000E466E000E476E010E516E75D026
:1007880087D0350E485C210E4958D8A009D01C0ED8
:10079800485C250E4958D8B003D0020E516E2AD0B5
:1007A800EBEC0CF027D026D073D0A10E485C0F0ECE
:1007B8004958D8A009D0880E485C130E4958D8B0BB
:1007C80003D0030E516E51D0EBEC0CF04ED04DD04F
:1007D8005FD0900E485C010E4958D8A008D0BD0ED5
:1007E800485C020E4958D8B002D0040ED7D7EBECBB
:1007F8000CF000D0F19C4CD0910E485C010E495889
:10080800D8A030D0080E485C070E4958D8B02AD076
:10081800D8904434446E4534456E4634466E473469
:10082800476EE90E485C030E4958D8A00CD0010E5B
:100838004424446E000E4520456E000E4620466E48
:10084800000E4720476E5828586E1F0E5864B9D7B7
:10085800000E4D6E010E4C6E45C050F0F298000E21
:10086800516EAFD7EBEC0CF000D0F18C11D0515099
:10087800000AD8B470D7010AD8B483D7030AD8B409
:1008880094D7010AD8B4A5D7070AD8B4B5D700D0E9
:100898001200366E800E3660A6D09F0E2E6401D0F0
:1008A800A2D03450D8A403D0010E346E00D01F0E4D
:1008B8002F6404D07E0E2F6403D000D03F0E2F6E1D
:1008C800000E386E040E386401D08DD0530E2F60A0
:1008D80015D0E00E2F24116E126AFF0E1222000EA0
:1008E800146E050E136EF0EC0BF038501126000E46
:1008F80012228B0E1124F66EFD0E14D0AD0E2F248D
:10090800116E126AFF0E1222000E146E050E136E7F
:10091800F0EC0BF038501126000E12228A0E11242A
:10092800F66EFE0E1220F76E0800F5CF35F000D0F7
:10093800000E376E060E376401D053D035A023D091
:100948003404D8A40CD02E503724186E30C019F0B7
:1009580031C01AF036503824C3EC0BF03ED0375073
:100968003402F3502E24236E34C024F034C025F012
:1009780030C026F031C027F038503402F350362406
:10098800ACEC0AF02AD03050321804E13150331858
:10099800D8B423D03404D8A40CD02E503724186EE1
:1009A80032C019F033C01AF036503824C3EC0BF0BB
:1009B80014D037503402F3502E24236E34C024F060
:1009C80034C025F032C026F033C027F03850340246
:1009D800F3503624ACEC0AF000D0372AD8903532E0
:1009E800A9D7382A6FD7120027C02FF028C030F0B7
:1009F8002F1E301E2F4A302A010E2F24356E000E6E
:100A08003020366E000E326E010E316E27C02FF088
:100A180028C030F0D8902F3630362F1E301E2F4A7F
:100A2800302A2FC033F030C034F0000E386E000E7C
:100A3800376E27C039F028C03AF067D036BE0BD0E1
:100A48003906D8A03A06020E3326000E3422335057
:100A5800352634503622374A382A020E3126000EFF
:100A68003222315035263250362229A025D039502D
:100A780000082524186E395039242B242F6E2F286E
:100A8800196E2DC01AF02EC01BF0235037241AEC13
:100A980008F0375000082524186E375037242B24C7
:100AA8002F6E2F28196E2DC01AF02EC01BF0235060
:100AB80039241AEC08F000D029A227D039500008B0
:100AC8002524186E395039242B242F6E2F28196E9F
:100AD8002DC01AF02EC01BF03750000823241AEC42
:100AE80008F0375000082524186E375037242B2477
:100AF8002F6E2F28196E2DC01AF02EC01BF03950FA
:100B0800000823241AEC08F000D03950375C38501C
:100B1800800A2F6E3A50800A2F58D8A08FD712001B
:100B2800010EB5EC0CF0000E186E960E176E36EC32
:100B38000AF0110EB5EC0CF0010E186EF40E176EDB
:100B480036EC0AF0B10EB5EC0CF0010EADEC0CF081
:100B58002C0EADEC0CF02D0EADEC0CF0B20EB5EC8D
:100B68000CF0010EADEC0CF02C0EADEC0CF02D0ED3
:100B7800ADEC0CF0B30EB5EC0CF0010EADEC0CF0D6
:100B88002C0EADEC0CF02D0EADEC0CF0010EADEC16
:100B98000CF02C0EADEC0CF02D0EADEC0CF0B40EF0
:100BA800B5EC0CF0070EADEC0CF0C00EB5EC0CF08B
:100BB800A20EADEC0CF0020EADEC0CF0840EADEC18
:100BC8000CF0C10EB5EC0CF0C50EADEC0CF0C20E7D
:100BD800B5EC0CF00A0EADEC0CF0000EADEC0CF020
:100BE800C30EB5EC0CF08A0EADEC0CF02A0EADEC91
:100BF8000CF0C40EB5EC0CF08A0EADEC0CF0EE0E59
:100C0800ADEC0CF0C50EB5EC0CF00E0EADEC0CF026
:100C1800200EB5EC0CF0360EB5EC0CF0C80EADECB1
:100C28000CF03A0EB5EC0CF0050EADEC0CF0120021
:100C38000001F36FF3C0F9F039C0F8F03AC011F0D1
:100C48003BC012F017EC0BF011C0F4F012C0F5F035
:100C5800000E0001F76F000EF66F64D06E50D8B426
:100C680034D04050050D0001F951416E426AF350ED
:100C78004126F450422242BE28D0425004E1810E5F
:100C8800415CD8A022D0000E0001F96F4050070D3A
:100C9800F3500001F825030F0001F86FA00E0001C2
:100CA800F86504D0A00E0001F86F00D00001F651DD
:100CB8003A24D96E0001F7513B20DA6E200EDE1877
:100CC800D8B42CD002D02AD000D0F8C02EF0000121
:100CD800F6513A24D96E0001F7513B20DA6EDF5005
:100CE8002F6E3CC030F03DC031F03EC032F03FC006
:100CF80033F040C034F00001F9514DEC04F040509D
:100D0800060DF3500001F9250001F96F800E00016E
:100D1800F96504D0800E0001F96F00D00001F64B90
:100D2800F72B00D00001F4510001F65D0001F551E8
:100D38000001F759D8A092D71200E00EB5EC0CF0DC
:100D4800020EADEC0CF01C0EADEC0CF0070EADEC89
:100D58000CF0120EADEC0CF0370EADEC0CF0320EC0
:100D6800ADEC0CF0290EADEC0CF02D0EADEC0CF04A
:100D7800290EADEC0CF0250EADEC0CF02B0EADEC05
:100D88000CF0390EADEC0CF0000EADEC0CF0010ED1
:100D9800ADEC0CF0030EADEC0CF0100EADEC0CF05D
:100DA800E10EB5EC0CF0030EADEC0CF01D0EADEC45
:100DB8000CF0070EADEC0CF0060EADEC0CF02E0EA0
:100DC800ADEC0CF02C0EADEC0CF0290EADEC0CF0EB
:100DD8002D0EADEC0CF02E0EADEC0CF02E0EADEC95
:100DE8000CF0370EADEC0CF03F0EADEC0CF0000E35
:100DF800ADEC0CF0000EADEC0CF0020EADEC0CF00E
:100E0800100EADEC0CF0130EB5EC0CF0000E186ED5
:100E18000A0E176E36EC0AF0290EB5EC0CF0000E2F
:100E2800186E640E176E36EC0AF01200236E800EF0
:100E3800236069D09F0E186401D065D0FF0E1D6E27
:100E4800FF0E1E6E195023C01FF0206A1F26000EC9
:100E580020221D501F261E50202220BE0AD02050BE
:100E680004E1800E1F5CD8A004D023500008800F36
:100E7800196EFF0E1D6EFF0E1E6E1A5018C01FF061
:100E8800206A1F26000E20221D501F261E502022D9
:100E980020BE0BD0205004E1A00E1F5CD8A005D0C6
:100EA80018500008A00F1A6E00D018C014F0235074
:100EB80019241D6E1D04156E18501A241E6E1E046A
:100EC800166E23505FEC0AF01C50216E1BC022F0F6
:100ED800828082921AC018F01850D8B413D001D06A
:100EE80011D019C023F02350D8B40AD001D008D0AB
:100EF800215076EC0CF0225076EC0CF02306F3D758
:100F08001806EAD782821200000E1C6E1AAE07D0AD
:100F1800196C1A1ED8B01A2A010E1C6E00D018AE11
:100F280007D0176C181ED8B0182A010E1C1A00D04A
:100F3800000E1E6E000E1D6E19501A10D8B421D066
:100F4800010E1B6E05D0D89019361A361B2A00D010
:100F58001ABE02D0F8D700D0D8901D361E361950C8
:100F6800175C1A501858D8A006D01950175E1A5096
:100F7800185A1D8000D0D8901A3219321B2EECD77F
:100F880000D01C50D8B405D01D6C1E1ED8B01E2A27
:100F980000D01DC017F01EC018F000D0120080EC61
:100FA8000CF0DBEC0BF0000E256E000E246E46EC08
:100FB8000CF0D40E4E6E000E4F6E4EC011F04FC0A6
:100FC80012F0C10E136EFF0E146E92EC0BF0020EAF
:100FD800396E4EC03AF04FC03BF0FF0E3D6E3C6894
:100FE800000E3F6E000E3E6E010E406E020E1CECAF
:100FF80006F04EC011F04FC012F0F70E136EFF0E40
:10100800146E92EC0BF00A0E396E4EC03AF04FC0D7
:101018003BF0FF0E3D6E3C68000E3F6E000E3E6ECC
:10102800010E406E320E1CEC06F01200226E800E8D
:1010380022603FD09F0E186401D03BD0FF0E1C6E7B
:10104800FF0E1D6E195018C01EF01F6A1E26000ED6
:101058001F221C501E261D501F221FBE0BD01F50C2
:1010680004E1A00E1E5CD8A005D018500008A00FFF
:10107800196E00D01B50206E1AC021F018C014F051
:1010880022C015F0185019241C6E1C04166E22502C
:101098005FEC0AF08280829207D0205076EC0CF048
:1010A800215076EC0CF000D019061928D8A4F5D7F1
:1010B8008282120000F800F800F8FF07FF07E00737
:1010C8001F001F001FF8FFFFFFFFFFFFFFFFFFFFCD
:1010D800FFFFFFFFFFFFFFFFFFFFFFFFFFFF43488B
:1010E8002D004348200043482B007C3C3C003E3EFA
:1010F8007C003E7C7C00202D2000202B20004551C8
:1011080020002030200031303000323030002031D3
:1011180020002032200020332000203420002035F9
:1011280020002036200020372000203820002039D9
:1011380020000600EACF06F0E1CF07F0E2CF08F082
:10114800D9CF09F0DACF0AF0F3CF0BF0F4CF0CF0D7
:10115800F6CF0DF0F7CF0EF0F8CF0FF0F5CF10F077
:101168009EA003D0CAEC0CF000D0F2A203D09BECF6
:1011780003F000D010C0F5FF0FC0F8FF0EC0F7FF56
:101188000DC0F6FF0CC0F4FF0BC0F3FF0AC0DAFF76
:1011980009C0D9FF08C0E2FF07C0E1FF06C0EAFFA7
:1011A80005C0E9FF04C0FBFF03C0FAFF110000EE11
:1011B800D4F01F0EEE6AE806FDE100EE44F0290EB9
:1011C800EE6AE806FDE1BC0EF66E100EF76E000E34
:1011D800F86E01EE00F010EE7EF00900F5CFEEFF9C
:1011E800E550E150FAE1C60EF66E130EF76E000EEA
:1011F800F86E00EE80F010EE54F00900F5CFEEFF27
:10120800E550E150FAE1DE0EF66E190EF76E000EAB
:10121800F86E0900F5CF6DF00900F5CF6EF0000EFD
:10122800F86E0001BBEF01F0136E000EAC6E000EFD
:10123800AB6E13A002D0AC8800D013A203D0AC8C44
:10124800AB8C00D013A402D0AC8E00D013A602D071
:10125800AB8802D0AB8A00D013B8AC849E9813AA8E
:1012680002D0AB8600D013AC02D09D8A01D09D9AE3
:101278009E9A13AE02D09D8801D09D9811C0AFFFF1
:101288001250B06EAC8AAB8E949C948EACB8ACBE47
:1012980002D0948C00D01200680E136E000E146EEB
:1012A800000E626E000E5F6E000E5D6E040E5B6EC9
:1012B800100E5A6E110E606E220E6C6E92EC0CF0CF
:1012C8001350132455EC0BF0145055EC0BF06250EE
:1012D80055EC0BF05F5055EC0BF05D5055EC0BF0F6
:1012E8005B5055EC0BF05A5055EC0BF0605055EC38
:1012F8000BF06C5055EC0BF089EC0CF01200680EFA
:10130800156E000E146E92EC0CF01550152455EC69
:101318000BF0145055EC0BF061EC0CF0D880153440
:1013280055EC0BF0010ED1EC0AF0626E010ED1EC17
:101338000AF05F6E010ED1EC0AF05D6E010ED1EC81
:101348000AF05B6E010ED1EC0AF05A6E010ED1EC78
:101358000AF0606E000ED1EC0AF06C6E89EC0CF0AD
:101368001200000E176E000E166E13501410D8B42B
:1013780021D0010E156E05D0D89013361436152AD3
:1013880000D014BE02D0F8D700D0D8901636173641
:101398001350115C14501258D8A006D01350115E87
:1013A8001450125A168000D0D89014321332152EC9
:1013B800ECD700D016C011F017C012F012000101CE
:1013C8000106060204000000000000000000000002
:1013D80000000000000000000000040507070707E0
:1013E80007000000000000000000000000000000EE
:1013F80000000000000038383838383838A262E277
:101408002202C2E0A8906898B030187A10385A4280
:101418004A523F5000083D24186ED8803F34196E58
:1014280041C01AF042C01BF03B501AEC08F03BC018
:1014380023F03CC024F03DC025F03EC026F03FC05C
:1014480027F040C028F0000E2A6E030E296E000E09
:101458002C6E000E2B6E41C02DF042C02EF0F8EC21
:1014680004F0120017C011F018C012F0000E146E2C
:10147800FA0E136EF0EC0BF011C01BF012C01CF04A
:101488001BC019F01CC01AF0191E1A1E194A1A2A74
:10149800FF0E19241B6EFF0E1A201C6EB80EB16EBB
:1014A8001BC0B2FF1C50B36EA192B18000D0A1A2A4
:1014B800FED7B1901200176E2A0EB5EC0CF0000E94
:1014C800ADEC0CF017505924ADEC0CF0000EADEC5F
:1014D8000CF015505924ADEC0CF02B0EB5EC0CF0BB
:1014E800000EADEC0CF014506124ADEC0CF0000EC5
:1014F800ADEC0CF016506124ADEC0CF02C0EB5ECF4
:101508000CF012001A501B10D8B41DD0010E1C6E1E
:1015180005D0D8901A361B361C2A00D01BBE02D024
:10152800F8D700D01A50185C1B501958D8A005D00D
:101538001A50185E1B50195A00D0D8901B321A3214
:101548001C2EF0D700D018C018F019C019F01200DE
:101558002B6E2BC02CF02D6A0ED023C018F025C09E
:1015680019F026C01AF027C01BF02C501AEC08F00E
:101578002C4A2D2A00D024502BC028F0296A28266E
:10158800000E292228502C5C2D50800A2A6E2950E2
:10159800800A2A58D8A0E1D71200116EE7EC0CF0A7
:1015A800000E126E070E126401D00FD0C4EC0CF0BE
:1015B80080A403D0D880133604D013501324136E9C
:1015C80000D0E3EC0CF0122AEDD71150D8B403D0B8
:1015D8009BEC0CF003D0D5EC0CF000D0135000D0ED
:1015E80012006CEC0CF0ABEC0BF0700ED36E0F0E1F
:1015F800C16E140E926E010E936E000E946E000E64
:10160800956E000E966EF19EA00E116E860E126EED
:10161800010E136E000E146ED0EC0CF0D3EC07F034
:1016280037EC0CF0120011C015F012C016F003D000
:10163800154A162A00D015C0D9FF16C0DAFFDF50A8
:10164800D8A4F6D711C013F012C014F0131E141E3C
:10165800134A142A15501324116E16501420126EB2
:1016680000D012002A0EB5EC0CF0000EADEC0CF018
:10167800000EADEC0CF0000EADEC0CF07F0EADECF6
:101688000CF02B0EB5EC0CF0000EADEC0CF0000ECF
:10169800ADEC0CF0000EADEC0CF09F0EADEC0CF0C8
:1016A8001200116E000E126E070E126401D011D0D6
:1016B80011AE03D0E7EC0CF003D0DAEC0CF000D05C
:1016C800C4EC0CF0E3EC0CF011501124116E122A4A
:1016D800EBD7E7EC0CF0C4EC0CF0E3EC0CF01200E8
:1016E800480E186EAA0E166E92EC0CF018501824BC
:1016F80055EC0BF0165055EC0BF061EC0CF0D88063
:10170800183455EC0BF0000ED1EC0AF0176E89EC8A
:101718000CF017C014F0156A00D0120011C015F0B3
:1017280012C016F005D0154A162A134A142A00D0FA
:1017380013C0F6FF14C0F7FF15C0D9FF16C0DAFFB3
:101748000800F5CFDFFFDF50D8A4EDD71200F292E2
:10175800F19CF288000ECF6E000ECE6E9E909D809A
:10176800F28CF28E000E4D6E000E4C6E000E446E22
:10177800000E456E000E466E000E476E12001B6E80
:10178800800E1B6013D09F0E186401D00FD018C0B4
:1017980014F01B28156E1828166E1B505FEC0AF003
:1017A8001A50ADEC0CF01950ADEC0CF0120082821E
:1017B8008290800EC76E300EC66E94EC05F036EC43
:1017C8000BF0A1EC06F0360EB5EC0CF0C00EADEC4B
:1017D8000CF0010E536E120011501302F3CF15F0E6
:1017E800F4CF16F011501402F350162612501302BB
:1017F800F350162615C011F016C012F000D01200D2
:10180800000E126E000E116E12BE08D0680E115C2A
:10181800420E1258D8B005D001D003D0114A122A6E
:10182800F3D71200136E000E126E3A0E136006D034
:101838002F0E136403D0010E126E00D012C011F0E7
:10184800113000D01200156E92EC0CF015501524D2
:1018580055EC0BF0135055EC0BF0145055EC0BF005
:1018680089EC0CF01200480E166EAC0E136E020EC8
:10187800146E165027EC0CF0EE0E136E165054EC46
:101888000CF01200000E186E800E196EA00E1A6E63
:1018980024C01BF025C01CF0000E1AEC07F0120043
:1018A800146E92EC0CF01450142455EC0BF01350F9
:1018B80055EC0BF089EC0CF01200E3EC0CF0E7ECC3
:1018C8000CF0C4EC0CF0DAEC0CF0E3EC0CF01200C9
:1018D800000E126E190E116E3C0E18EC09F0700E07
:1018E800D36E1200126E9E96C9CF11F012C0C9FFB6
:1018F80000D0C7A0FED712008298000E186E640EA2
:10190800176E36EC0AF082881200E3EC0CF0DAEC81
:101918000CF0C4EC0CF0E7EC0CF01200E7EC0CF067
:10192800C4EC0CF0DAEC0CF0E3EC0CF01200DAEC9E
:101938000CF0C4EC0CF0E3EC0CF0E7EC0CF012004B
:10194800F90ECB6E050ECA6E4A0EBB6E3C0EBA6E11
:101958001200136E82928280135076EC0CF0828211
:101968001200136E82928290135076EC0CF08282F1
:101978001200116E00D0ACA2FED711C0ADFF12004C
:101988009288060EE82EFED700D01200000E516E87
:10199800F19CCD909E901200C4EC0CF0E7EC0CF09A
:1019A8001200C4EC0CF0E3EC0CF01200809492945A
:1019B80000D000D01200000EBA6E819612008098F6
:1019C800929800D01200928400D000D01200000E2D
:0819D800516ECD901200FF01D9
:10FD8A0000000000000000005F00000007000700FC
:10FD9A00147F147F14242A7F2A12231308646236DC
:10FDAA00495620500008070300001C224100004168
:10FDBA00221C002A1C7F1C2A08083E0808008070A2
:10FDCA0030000808080808000060600020100804D5
:10FDDA00023E5149453E00427F4000724949494628
:10FDEA002141494D331814127F1027454545393CA6
:10FDFA004A49493141211109073649494936464993
:10FE0A0049291E00001400000040340000000814B4
:10FE1A00224114141414140041221408020159092D
:10FE2A00063E415D594E7C1211127C7F4949493682
:10FE3A003E414141227F4141413E7F494949417FFB
:10FE4A00090909013E414151737F0808087F0041B1
:10FE5A007F41002040413F017F081422417F4040FA
:10FE6A0040407F021C027F7F0408107F3E414141CF
:10FE7A003E7F090909063E4151215E7F091929463B
:10FE8A00264949493203017F01033F4040403F1F51
:10FE9A002040201F3F4038403F6314081463030486
:10FEAA007804036159494D43007F414141020408E6
:10FEBA001020004141417F040201020440404040B9
:10FECA0040000307080020545478407F28444438EF
:10FEDA003844444428384444287F38545454180039
:10FEEA00087E090218A4A49C787F080404780044B8
:10FEFA007D40002040403D007F1028440000417FA3
:10FF0A0040007C047804787C08040478384444442B
:10FF1A0038FC1824241818242418FC7C0804040823
:10FF2A00485454542404043F44243C4040207C1C3C
:10FF3A002040201C3C4030403C44281028444C902F
:10FF4A0090907C4464544C44000836410000007789
:10FF5A0000000041360800020102040201000A0002
:10FF6A006400E8031027010010000001001020546B
:10FF7A00656D7065726174757265203D2025642017
:10FF8A006465677265657343203D20256420646556
:10FF9A006772656573460D0A00253032783A253056
:10FFAA0032783A2530327820253032782F2530328F
:10FFBA00782F2530327800454345333330314C2091
:10FFCA0046616C6C2032322D533300303132333477
:10FFDA003536373839616263646566004E45435F7A
:10FFEA00436F6465203D202025780D0A004C41426C
:06FFFA0020313020000060
:020000040020DA
:08000000FFFFFFFFFFFFFFFF00
:020000040030CA
:0E000000FF08191EFF8281FF0FC00FE00F40A6
:00000001FF
