:040000000CEF00F011
:10000800FACF01F0FBCF02F0E9CF03F0EAED05F0FB
:1000180075EF05F01D0E2E6E000E2F6E99D1250E70
:100028003618D8B404D036501AEC09F091D1000E25
:10003800356E000E346E000E336E05D033841B4AC5
:100048001C2A01D00BD01BC0F6FF1CC0F7FF08000C
:10005800F550300AD8B4F2D701D0F5D71BC0F6FF57
:100068001CC0F7FF0800F5507CEC08F0D8A03BD086
:10007800000E356E000E346E00D034C00FF035C05F
:1000880010F0000E126E0A0E116E68EC08F00FC028
:1000980034F010C035F0D00E296EFF0E2A6E1BC04A
:1000A800F6FF1CC0F7FF0800F5502B6E2C6A29508C
:1000B8002B262A502C222B5034262C5035221B4A12
:1000C8001C2A1BC0F6FF1CC0F7FF0800F5507CEC8B
:1000D80008F0D8A008D0D1D706D048D11BD0338E8D
:1000E80019D036D117D01BC0F6FF1CC0F7FF1B4A2A
:1000F8001C2A0800F5CF36F03650000AD8B436D19D
:10010800640AD8B407D00D0AD8B404D0110AD8B4F8
:10011800E6D71ED133BE15D02EC0D9FF2FC0DAFFC7
:10012800DECF31F0DDCF32F0020E2E26000E2F2268
:1001380032AE4ED0030E3312316C321ED8B0322A92
:1001480047D02EC0D9FF2FC0DAFFDECF31F0DDCF88
:1001580032F0020E2E26000E2F223AD0010E366EF5
:10016800050E3618D8B43DD001D03BD03650020D1C
:10017800760EF324F66EFF0EF420F76E0900F550A4
:10018800315C0900F5503258D8A02BD001D029D0C5
:10019800362AE6D726D0010E366E040E3618D8B4A5
:1001A80020D001D01ED03650020D800EF324F66EFA
:1001B800FF0EF420F76E0900F550315C0900F55088
:1001C8003258D8A00ED001D00CD0362AE6D709D0A4
:1001D8003350800B000AD8B4C1D7800AD8B4DBD713
:1001E80000D034503510D8B40AD033C029F0030EEB
:1001F8002916D8B404D03406D8A0350600D0800E0D
:1002080036BE7F0E296E3450365C3550800A295828
:10021800D8B007D03650345E000E36BEFF0E355AC1
:1002280005D0000E356E000E346E00D033A41AD0FF
:1002380033C029F0030E2916D8B404D02D0E1AECB9
:1002480009F000D034503510D8B426D0300E1AEC4E
:1002580009F03406D8A0350634503510D8B41CD06F
:10026800F5D71AD034503510D8B40CD0200E1AEC6B
:1002780009F03406D8A0350634503510D8B402D069
:10028800F5D700D033C029F0030E2916D8B404D00E
:100298002D0E1AEC09F000D036C030F053D045D0FE
:1002A8003050020D760EF324F66EFF0EF420F76E32
:1002B8000900F5CF11F00A00F5CF12F031C00FF0A8
:1002C80032C010F050EC06F00FC016F010C017F056
:1002D800000E196E0A0E186EF8EC06F01650300F64
:1002E800366E2CD031C00FF032C010F03050020DF5
:1002F800800EF324F66EFF0EF420F76E0900F5CF9A
:1003080011F00A00F5CF12F050EC06F00F500F0B69
:100318002D6E2D50010DE50EF324F66EFF0EF42020
:10032800F76E0800F5CF36F009D03350800B000A7D
:10033800D8B4B6D7800AD8B4D5D700D036501AEC7E
:1003480009F000D030063028D8B402D0EED700D05B
:100358001BC0F6FF1CC0F7FF1B4A1C2A0800F5CF7C
:1003680036F03650D8B402D05AD600D01200346EC7
:10037800800E3460A6D09F0E2C6401D0A2D03250DB
:10038800D8A403D0010E326E00D01F0E2D6404D005
:100398007E0E2D6403D000D03F0E2D6E000E366EFB
:1003A800040E366401D08DD0530E2D6015D0E00EAA
:1003B8002D240F6E106AFF0E1022000E126E050E0D
:1003C800116E68EC08F036500F26000E10229B0EB6
:1003D8000F24F66EFD0E14D0AD0E2D240F6E106A8C
:1003E800FF0E1022000E126E050E116E68EC08F05A
:1003F80036500F26000E10229A0E0F24F66EFE0EAF
:100408001020F76E0800F5CF33F000D0000E356EDF
:10041800060E356401D053D033A023D03204D8A4BB
:100428000CD02C503524166E2EC017F02FC018F0A3
:10043800345036243BEC08F03ED035503202F350AD
:100448002C24216E32C022F032C023F02EC024F0BA
:100458002FC025F036503202F35034241EEC07F03A
:100468002AD02E50301804E12F503118D8B423D098
:100478003204D8A40CD02C503524166E30C017F096
:1004880031C018F0345036243BEC08F014D0355005
:100498003202F3502C24216E32C022F032C023F0F5
:1004A80030C024F031C025F036503202F3503424E5
:1004B8001EEC07F000D0352AD8903332A9D7362A57
:1004C8006FD71200010E12EC09F0000E166E960E90
:1004D800156EA8EC06F0110E12EC09F0010E166E5E
:1004E800F40E156EA8EC06F0B10E12EC09F0010E30
:1004F8000AEC09F02C0E0AEC09F02D0E0AEC09F0B2
:10050800B20E12EC09F0010E0AEC09F02C0E0AECFE
:1005180009F02D0E0AEC09F0B30E12EC09F0010EE9
:100528000AEC09F02C0E0AEC09F02D0E0AEC09F081
:10053800010E0AEC09F02C0E0AEC09F02D0E0AEC5B
:1005480009F0B40E12EC09F0070E0AEC09F0C00E1F
:1005580012EC09F0A20E0AEC09F0020E0AEC09F0FE
:10056800840E0AEC09F0C10E12EC09F0C50E0AEC73
:1005780009F0C20E12EC09F00A0E0AEC09F0000E9E
:100588000AEC09F0C30E12EC09F08A0E0AEC09F025
:100598002A0E0AEC09F0C40E12EC09F08A0E0AECD5
:1005A80009F0EE0E0AEC09F0C50E12EC09F00E0E79
:1005B8000AEC09F0200E12EC09F0360E12EC09F0E4
:1005C800C80E0AEC09F03A0E12EC09F0050E0AEC16
:1005D80009F012000001DE6FDEC0E4F037C0E3F07E
:1005E80038C00FF039C010F0A7EC07F00FC0DFF0EB
:1005F80010C0E0F0000E0001E26F000EE16F64D061
:100608006D50D8B434D03E50050D0001E4513F6E12
:10061800406AF3503F26F450402240BE28D0405054
:1006280004E1810E3F5CD8A022D0000E0001E46FE7
:100638003E50070DF3500001E325030F0001E36F5F
:10064800A00E0001E36504D0A00E0001E36F00D006
:100658000001E1513824D96E0001E2513920DA6EE7
:10066800200EDE18D8B42CD002D02AD000D0E3C097
:100678002CF00001E1513824D96E0001E2513920F3
:10068800DA6EDF502D6E3AC02EF03BC02FF03CC022
:1006980030F03DC031F03EC032F00001E451BBEC17
:1006A80001F03E50060DF3500001E4250001E46F0F
:1006B800800E0001E46504D0800E0001E46F00D0D4
:1006C8000001E14BE22B00D00001DF510001E15DA8
:1006D8000001E0510001E259D8A092D71200E00EC3
:1006E80012EC09F0020E0AEC09F01C0E0AEC09F0F3
:1006F800070E0AEC09F0120E0AEC09F0370E0AECA4
:1007080009F0320E0AEC09F0290E0AEC09F02D0E58
:100718000AEC09F0290E0AEC09F0250E0AEC09F09A
:100728002B0E0AEC09F0390E0AEC09F0000E0AEC5F
:1007380009F0010E0AEC09F0030E0AEC09F0100E9C
:100748000AEC09F0E10E12EC09F0030E0AEC09F0CC
:100758001D0E0AEC09F0070E0AEC09F0060E0AEC69
:1007680009F02E0E0AEC09F02C0E0AEC09F0290EFD
:100778000AEC09F02D0E0AEC09F02E0E0AEC09F02D
:100788002E0E0AEC09F0370E0AEC09F03F0E0AECBF
:1007980009F0000E0AEC09F0000E0AEC09F0020E4E
:1007A8000AEC09F0100E0AEC09F0130E12EC09F02D
:1007B800000E166E0A0E156EA8EC06F0290E12EC45
:1007C80009F0000E166E640E156EA8EC06F0120005
:1007D800216E800E216069D09F0E166401D065D00D
:1007E800FF0E1B6EFF0E1C6E175021C01DF01E6AF7
:1007F8001D26000E1E221B501D261C501E221EBE2A
:100808000AD01E5004E1800E1D5CD8A004D02150EF
:100818000008800F176EFF0E1B6EFF0E1C6E18501F
:1008280016C01DF01E6A1D26000E1E221B501D2616
:100838001C501E221EBE0BD01E5004E1A00E1D5CD3
:10084800D8A005D016500008A00F186E00D016C00A
:1008580012F0215017241B6E1B04136E1650182417
:100868001C6E1C04146E2150D1EC06F01A501F6E39
:1008780019C020F08280829218C016F01650D8B4A1
:1008880013D001D011D017C021F02150D8B40AD00C
:1008980001D008D01F50DCEC08F02050DCEC08F048
:1008A8002106F3D71606EAD782821200000E146ECC
:1008B80012AE07D0116C121ED8B0122A010E146E97
:1008C80000D010AE07D00F6C101ED8B0102A010E41
:1008D800141A00D0000E166E000E156E115012106C
:1008E800D8B421D0010E136E05D0D8901136123627
:1008F800132A00D012BE02D0F8D700D0D8901536EF
:10090800163611500F5C12501058D8A006D011504E
:100918000F5E1250105A158000D0D8901232113242
:10092800132EECD700D01450D8B405D0156C161E71
:10093800D8B0162A00D015C00FF016C010F000D09D
:100948001200E6EC08F053EC08F0000E236E000EDF
:10095800226EACEC08F0BF0E4D6E000E4E6E4DC010
:100968000FF04EC010F0D10E116EFF0E126E22EC79
:1009780008F0020E376E4DC038F04EC039F0FF0E49
:100988003B6E3A68000E3D6E000E3C6E010E3E6EE8
:10099800020EEEEC02F04DC00FF04EC010F0F60E55
:1009A800116EFF0E126E22EC08F00A0E376E4DC063
:1009B80038F04EC039F0FF0E3B6E3A68000E3D6EBF
:1009C800000E3C6E010E3E6E320EEEEC02F012008E
:1009D80067EC07F000D01EEC06F061506C18D8B434
:1009E800FAD761C06CF004EC08F01250426E425025
:1009F800090DF3CF0FF0F4CF10F0000E126E050EB4
:100A0800116E5AEC04F00F50200F416EB30E1B6E9E
:100A1800FF0E1C6E5CC01DF01E6A5EC01FF0206ACF
:100A280061C021F0226A5FC023F0246A59C025F012
:100A3800266A6BC027F0286A0EEC00F0880E1B6E41
:100A4800FF0E1C6E42C01DF01E6A41C01FF0206AD6
:100A58000EEC00F0C0D70CEF00F0206E800E206086
:100A68003FD09F0E166401D03BD0FF0E1A6EFF0ECA
:100A78001B6E175016C01CF01D6A1C26000E1D2286
:100A88001A501C261B501D221DBE0BD01D5004E100
:100A9800A00E1C5CD8A005D016500008A00F176E39
:100AA80000D019501E6E18C01FF016C012F020C0DA
:100AB80013F0165017241A6E1A04146E2050D1EC35
:100AC80006F08280829207D01E50DCEC08F01F509E
:100AD800DCEC08F000D017061728D8A4F5D78282D6
:100AE800120000EEBFF01F0EEE6AE806FDE100EE10
:100AF80043F0290EEE6AE806FDE1FC0EF66E0C0ED8
:100B0800F76E000EF86E01EE00F010EE54F00900DA
:100B1800F5CFEEFFE550E150FAE10E0EF66E0F0E3E
:100B2800F76E000EF86E00EE80F010EE3FF0090050
:100B3800F5CFEEFFE550E150FAE17C0EF66E120EAD
:100B4800F76E000EF86E0900F5CF6CF00900F5CFCE
:100B58006DF0000EF86E0001ECEF04F0116E000E5F
:100B6800AC6E000EAB6E11A002D0AC8800D011A202
:100B780003D0AC8CAB8C00D011A402D0AC8E00D0CA
:100B880011A602D0AB8802D0AB8A00D011B8AC84D1
:100B98009E9811AA02D0AB8600D011AC02D09D8AD3
:100BA80001D09D9A9E9A11AE02D09D8801D09D9841
:100BB8000FC0AFFF1050B06EAC8AAB8E949C948E71
:100BC800ACB8ACBE02D0948C00D012000600EACFBC
:100BD80004F0E1CF05F0E2CF06F0D9CF07F0DACF85
:100BE80008F0F3CF09F0F4CF0AF0F6CF0BF0F7CF07
:100BF8000CF0F8CF0DF0F5CF0EF00EC0F5FF0DC0DC
:100C0800F8FF0CC0F7FF0BC0F6FF0AC0F4FF09C0DD
:100C1800F3FF08C0DAFF07C0D9FF06C0E2FF05C02E
:100C2800E1FF04C0EAFF03C0E9FF02C0FBFF01C007
:100C3800FAFF1100680E136E000E126EF8EC08F041
:100C480013501324E5EC07F01250E5EC07F0C7EC5D
:100C580008F0D8801334E5EC07F0010E43EC07F0F8
:100C6800616E010E43EC07F05E6E010E43EC07F077
:100C78005C6E010E43EC07F05A6E010E43EC07F070
:100C8800596E010E43EC07F05F6E000E43EC07F05F
:100C98006B6EEFEC08F01200000E146E000E136E6F
:100CA80011501210D8B421D0010E156E05D0D8906D
:100CB80011361236152A00D012BE02D0F8D700D04D
:100CC800D8901336143611500F5C12501058D8A013
:100CD80006D011500F5E1250105A138000D0D890D1
:100CE80012321132152EECD700D013C00FF014C0F9
:100CF80010F0120043482D00000000000000000022
:100D080000000000000000000000000000000000DB
:100D180000000000000000000000000000000000CB
:100D280000000000000000000000000000000000BB
:100D380000000000000000000000000000000000AB
:100D4800000000000000000015C00FF016C010F0F1
:100D5800000E126EFA0E116E68EC08F00FC019F052
:100D680010C01AF019C017F01AC018F0171E181E74
:100D7800174A182AFF0E1724196EFF0E18201A6E2C
:100D8800B80EB16E19C0B2FF1A50B36EA192B180FD
:100D980000D0A1A2FED7B1901200156E2A0E12EC57
:100DA80009F0000E0AEC09F0155058240AEC09F075
:100DB800000E0AEC09F0135058240AEC09F02B0E27
:100DC80012EC09F0000E0AEC09F0125060240AEC4B
:100DD80009F0000E0AEC09F0145060240AEC09F03E
:100DE8002C0E12EC09F0120018501910D8B41DD0AE
:100DF800010E1A6E05D0D890183619361A2A00D066
:100E080019BE02D0F8D700D01850165C19501758E0
:100E1800D8A005D01850165E1950175A00D0D8908F
:100E2800193218321A2EF0D700D016C016F017C093
:100E380017F01200296E29C02AF02B6A0ED021C0A3
:100E480016F023C017F024C018F025C019F02A5056
:100E580031EC05F02A4A2B2A00D0225029C026F06E
:100E6800276A2626000E272226502A5C2B50800A45
:100E7800286E2750800A2858D8A0E1D712000F6E94
:100E88003AEC09F0000E106E070E106401D00FD076
:100E980021EC09F083AE03D0D880113604D011506C
:100EA8001124116E00D036EC09F0102AEDD70F503E
:100EB800D8B403D001EC09F003D02CEC09F000D031
:100EC800115000D01200D2EC08F0700ED36E0F0E45
:100ED800C16E140E926E010E936E000E946E000E8B
:100EE800956E000E966EF19EA00E0F6E860E106E19
:100EF800010E116E000E126E27EC09F0A5EC04F03D
:100F08009DEC08F0120000F800000000000000004E
:100F180000000000000000000000000000000000C9
:100F280000000000000000000000000000000000B9
:100F3800A200000000000000000000000000000007
:100F48000000000000000FC013F010C014F003D020
:100F5800134A142A00D013C0D9FF14C0DAFFDF5097
:100F6800D8A4F6D70FC011F010C012F0111E121E2F
:100F7800114A122A135011240F6E14501220106EA9
:100F880000D012002A0E12EC09F0000E0AEC09F04B
:100F9800000E0AEC09F0000E0AEC09F07F0E0AECCC
:100FA80009F02B0E12EC09F0000E0AEC09F0000E05
:100FB8000AEC09F0000E0AEC09F09F0E0AEC09F0A1
:100FC80012000F6E000E106E070E106401D011D0C3
:100FD8000FAE03D03AEC09F003D031EC09F000D0A1
:100FE80021EC09F036EC09F00F500F240F6E102A8F
:100FF800EBD73AEC09F021EC09F036EC09F01200D5
:10100800480E166EAA0E146EF8EC08F01650162448
:10101800E5EC07F01450E5EC07F0C7EC08F0D880D1
:101028001634E5EC07F0000E43EC07F0156EEFEC14
:1010380008F015C012F0136A00D012000FC013F0A8
:1010480010C014F005D0134A142A114A122A00D0ED
:1010580011C0F6FF12C0F7FF13C0D9FF14C0DAFFA2
:101068000800F5CFDFFFDF50D8A4EDD71200196EC6
:10107800800E196013D09F0E166401D00FD016C0D1
:1010880012F01928136E1628146E1950D1EC06F0B8
:1010980018500AEC09F017500AEC09F01200828285
:1010A8008290800EC76E300EC66E66EC02F0C6ECFB
:1010B80007F073EC03F0360E12EC09F0C00E0AECE0
:1010C80009F0010E526E12000F501102F3CF13F007
:1010D800F4CF14F00F501202F350142610501102DE
:1010E800F350142613C00FF014C010F000D01200F3
:1010F800116E000E106E3A0E116006D02F0E11649C
:1011080003D0010E106E00D010C00FF00F3000D0C9
:101118001200136EF8EC08F013501324E5EC07F0F6
:101128001150E5EC07F01250E5EC07F0EFEC08F091
:101138001200480E146EAC0E116E020E126E145090
:101148008DEC08F0EE0E116E1450BAEC08F0120097
:10115800000E166E800E176EA00E186E22C019F0C3
:1011680023C01AF0000EECEC03F01200126EF8EC3B
:1011780008F012501224E5EC07F01150E5EC07F0E6
:10118800EFEC08F0120036EC09F03AEC09F021EC2B
:1011980009F031EC09F036EC09F01200000E106E7F
:1011A800190E0F6E3C0EB2EC05F0700ED36E1200E5
:1011B800106E9E96C9CF0FF010C0C9FF00D0C7A00F
:1011C800FED712008298000E166E640E156EA8ECFB
:1011D80006F08288120036EC09F031EC09F021ECB7
:1011E80009F03AEC09F012003AEC09F021EC09F0A8
:1011F80031EC09F036EC09F0120031EC09F021EC81
:1012080009F036EC09F03AEC09F01200116E8292FE
:1012180082801150DCEC08F082821200116E8292FA
:1012280082901150DCEC08F0828212000F6E00D020
:10123800ACA2FED70FC0ADFF1200958C060EE82EAB
:10124800FED700D0120021EC09F03AEC09F01200A8
:1012580021EC09F036EC09F01200839E959E00D02F
:1012680000D01200839C959C00D01200958E00D06F
:0612780000D01200FF018E
:10FD9A0000000000000000005F00000007000700EC
:10FDAA00147F147F14242A7F2A12231308646236CC
:10FDBA00495620500008070300001C224100004158
:10FDCA00221C002A1C7F1C2A08083E080800807092
:10FDDA0030000808080808000060600020100804C5
:10FDEA00023E5149453E00427F4000724949494618
:10FDFA002141494D331814127F1027454545393C96
:10FE0A004A49493141211109073649494936464982
:10FE1A0049291E00001400000040340000000814A4
:10FE2A00224114141414140041221408020159091D
:10FE3A00063E415D594E7C1211127C7F4949493672
:10FE4A003E414141227F4141413E7F494949417FEB
:10FE5A00090909013E414151737F0808087F0041A1
:10FE6A007F41002040413F017F081422417F4040EA
:10FE7A0040407F021C027F7F0408107F3E414141BF
:10FE8A003E7F090909063E4151215E7F091929462B
:10FE9A00264949493203017F01033F4040403F1F41
:10FEAA002040201F3F4038403F6314081463030476
:10FEBA007804036159494D43007F414141020408D6
:10FECA001020004141417F040201020440404040A9
:10FEDA0040000307080020545478407F28444438DF
:10FEEA003844444428384444287F38545454180029
:10FEFA00087E090218A4A49C787F080404780044A8
:10FF0A007D40002040403D007F1028440000417F92
:10FF1A0040007C047804787C08040478384444441B
:10FF2A0038FC1824241818242418FC7C0804040813
:10FF3A00485454542404043F44243C4040207C1C2C
:10FF4A002040201C3C4030403C44281028444C901F
:10FF5A0090907C4464544C44000836410000007779
:10FF6A0000000041360800020102040201000A00F2
:10FF7A006400E8031027010010000001001020545B
:10FF8A00656D7065726174757265203D2025642007
:10FF9A006465677265657343203D20256420646546
:10FFAA006772656573460D0A00253032783A253046
:10FFBA0032783A2530327820253032782F2530327F
:10FFCA00782F2530327800454345333330314C2081
:10FFDA0046616C6C2032322D537800303132333422
:10FFEA003536373839616263646566004C414220B0
:06FFFA0031302000000080
:020000040020DA
:08000000FFFFFFFFFFFFFFFF00
:020000040030CA
:0E000000FF08191EFF8281FF0FC00FE00F40A6
:00000001FF
