:040000000CEF00F011
:10000800FACF01F0FBCF02F0E9CF03F097ED04F04F
:1000180022EF04F0346E800E3460A6D09F0E2C645C
:1000280001D0A2D03250D8A403D0010E326E00D035
:100038001F0E2D6404D07E0E2D6403D000D03F0E19
:100048002D6E000E366E040E366401D08DD0530E20
:100058002D6015D0E00E2D240F6E106AFF0E1022B1
:10006800000E126E050E116E0AEC07F036500F26C0
:10007800000E1022D30E0F24F66EFD0E14D0AD0E16
:100088002D240F6E106AFF0E1022000E126E050E40
:10009800116E0AEC07F036500F26000E1022D20E11
:1000A8000F24F66EFE0E1020F76E0800F5CF33F021
:1000B80000D0000E356E060E356401D053D033A043
:1000C80023D03204D8A40CD02C503524166E2EC060
:1000D80017F02FC018F034503624DDEC06F03ED06F
:1000E80035503202F3502C24216E32C022F032C037
:1000F80023F02EC024F02FC025F036503202F350E2
:100108003424C0EC05F02AD02E50301804E12F50CA
:100118003118D8B423D03204D8A40CD02C503524AC
:10012800166E30C017F031C018F034503624DDECAC
:1001380006F014D035503202F3502C24216E32C010
:1001480022F032C023F030C024F031C025F0365000
:100158003202F3503424C0EC05F000D0352AD89090
:100168003332A9D7362A6FD712001D0E226E000E21
:10017800236E8BD0250E2818D8B404D02850BDEC97
:1001880007F083D0000E246E04D08DD015D07DD01A
:1001980013D01BC0F6FF1CC0F7FF1B4A1C2A08001F
:1001A800F5CF28F02850000AD8B47DD0640AD8B416
:1001B80003D00D0AD8A469D022C0D9FF23C0DAFF22
:1001C800DECF26F0DDCF27F0020E2226000E2322F6
:1001D80027AE07D0030E2412266C271ED8B0272A74
:1001E80000D0010E286E050E2818D8B416D001D0FC
:1001F80014D02850020DAE0EF324F66EFF0EF42034
:10020800F76E0900F550265C0900F5502758D8A06C
:1002180004D001D002D0282AE6D724C021F0030E4A
:100228002116D8B404D02D0EBDEC07F000D028C09C
:1002380025F025D02550020DAE0EF324F66EFF0EE4
:10024800F420F76E0900F5CF11F00A00F5CF12F08F
:1002580026C00FF027C010F0CBEC04F00FC016F04A
:1002680010C017F0000E196E0A0E186E9AEC05F001
:100278001650300F286E2850BDEC07F000D0250628
:100288002528D8B402D0D6D700D01BC0F6FF1CC092
:10029800F7FF1B4A1C2A0800F5CF28F02850D8B4CD
:1002A80002D068D700D01200010EB5EC07F0000E9E
:1002B800166E960E156E23EC05F0110EB5EC07F0D0
:1002C800010E166EF40E156E23EC05F0B10EB5ECAA
:1002D80007F0010EADEC07F02C0EADEC07F02D0E7B
:1002E800ADEC07F0B20EB5EC07F0010EADEC07F07F
:1002F8002C0EADEC07F02D0EADEC07F0B30EB5ECFF
:1003080007F0010EADEC07F02C0EADEC07F02D0E4A
:10031800ADEC07F0010EADEC07F02C0EADEC07F0DC
:100328002D0EADEC07F0B40EB5EC07F0070EADECF2
:1003380007F0C00EB5EC07F0A20EADEC07F0020E08
:10034800ADEC07F0840EADEC07F0C10EB5EC07F08C
:10035800C50EADEC07F0C20EB5EC07F00A0EADEC19
:1003680007F0000EADEC07F0C30EB5EC07F08A0EEF
:10037800ADEC07F02A0EADEC07F0C40EB5EC07F0B3
:100388008A0EADEC07F0EE0EADEC07F0C50EB5EC3D
:1003980007F00E0EADEC07F0200EB5EC07F0360EA8
:1003A800B5EC07F0C80EADEC07F03A0EB5EC07F067
:1003B800050EADEC07F012000001DE6FDEC0E4F0C0
:1003C80037C0E3F038C00FF039C010F049EC06F040
:1003D8000FC0DFF010C0E0F0000E0001E26F000E69
:1003E800E16F64D06D50D8B434D03E50050D000193
:1003F800E4513F6E406AF3503F26F450402240BE1D
:1004080028D0405004E1810E3F5CD8A022D0000ED5
:100418000001E46F3E50070DF3500001E325030F80
:100428000001E36FA00E0001E36504D0A00E0001F7
:10043800E36F00D00001E1513824D96E0001E25188
:100448003920DA6E200EDE18D8B42CD002D02AD08B
:1004580000D0E3C02CF00001E1513824D96E00012E
:10046800E2513920DA6EDF502D6E3AC02EF03BC0D3
:100478002FF03CC030F03DC031F03EC032F00001FA
:10048800E4510EEC00F03E50060DF3500001E42557
:100498000001E46F800E0001E46504D0800E0001C5
:1004A800E46F00D00001E14BE22B00D00001DF51E6
:1004B8000001E15D0001E0510001E259D8A092D7A6
:1004C8001200E00EB5EC07F0020EADEC07F01C0EC2
:1004D800ADEC07F0070EADEC07F0120EADEC07F02F
:1004E800370EADEC07F0320EADEC07F0290EADEC8F
:1004F80007F02D0EADEC07F0290EADEC07F0250E38
:10050800ADEC07F02B0EADEC07F0390EADEC07F0B3
:10051800000EADEC07F0010EADEC07F0030EADECEC
:1005280007F0100EADEC07F0E10EB5EC07F0030E86
:10053800ADEC07F01D0EADEC07F0070EADEC07F0C3
:10054800060EADEC07F02E0EADEC07F02C0EADEC60
:1005580007F0290EADEC07F02D0EADEC07F02E0ECE
:10056800ADEC07F02E0EADEC07F0370EADEC07F052
:100578003F0EADEC07F0000EADEC07F0000EADEC51
:1005880007F0020EADEC07F0100EADEC07F0130EFD
:10059800B5EC07F0000E166E0A0E156E23EC05F08A
:1005A800290EB5EC07F0000E166E640E156E23ECDE
:1005B80005F01200216E800E216069D09F0E16642E
:1005C80001D065D0FF0E1B6EFF0E1C6E175021C0A8
:1005D8001DF01E6A1D26000E1E221B501D261C50D3
:1005E8001E221EBE0AD01E5004E1800E1D5CD8A03B
:1005F80004D021500008800F176EFF0E1B6EFF0EEF
:100608001C6E185016C01DF01E6A1D26000E1E22F4
:100618001B501D261C501E221EBE0BD01E5004E16E
:10062800A00E1D5CD8A005D016500008A00F186EAB
:1006380000D016C012F0215017241B6E1B04136E35
:10064800165018241C6E1C04146E215073EC05F00F
:100658001A501F6E19C020F08280829218C016F0BE
:100668001650D8B413D001D011D017C021F02150A2
:10067800D8B40AD001D008D01F507FEC07F0205022
:100688007FEC07F02106F3D71606EAD7828212001C
:10069800000E146E12AE07D0116C121ED8B0122ABA
:1006A800010E146E00D010AE07D00F6C101ED8B01B
:1006B800102A010E141A00D0000E166E000E156EC8
:1006C80011501210D8B421D0010E136E05D0D89055
:1006D80011361236132A00D012BE02D0F8D700D035
:1006E800D8901536163611500F5C12501058D8A0F5
:1006F80006D011500F5E1250105A158000D0D890B5
:1007080012321132132EECD700D01450D8B405D0C1
:10071800156C161ED8B0162A00D015C00FF016C0DA
:1007280010F000D0120089EC07F0F5EC06F0000E8E
:10073800236E000E226E4FEC07F0BF0E4D6E000EBA
:100748004E6E4DC00FF04EC010F0E30E116EFF0E4E
:10075800126EC4EC06F0020E376E4DC038F04EC073
:1007680039F0FF0E3B6E3A68000E3D6E000E3C6E8F
:10077800010E3E6E020EE0EC01F04DC00FF04EC0CF
:1007880010F0F70E116EFF0E126EC4EC06F00A0E92
:10079800376E4DC038F04EC039F0FF0E3B6E3A68E8
:1007A800000E3D6E000E3C6E010E3E6E320EE0EC09
:1007B80001F01200206E800E20603FD09F0E16645C
:1007C80001D03BD0FF0E1A6EFF0E1B6E175016C0DD
:1007D8001CF01D6A1C26000E1D221A501C261B50D8
:1007E8001D221DBE0BD01D5004E1A00E1C5CD8A01C
:1007F80005D016500008A00F176E00D019501E6EB5
:1008080018C01FF016C012F020C013F0165017249D
:100818001A6E1A04146E205073EC05F082808292CE
:1008280007D01E507FEC07F01F507FEC07F000D078
:1008380017061728D8A4F5D78282120000EEBFF059
:100848001F0EEE6AE806FDE100EE43F0290EEE6A9F
:10085800E806FDE1F20EF66E090EF76E000EF86E70
:1008680001EE00F010EE54F00900F5CFEEFFE55070
:10087800E150FAE1520EF66E0C0EF76E000EF86EAD
:1008880000EE80F010EE3FF00900F5CFEEFFE550E6
:10089800E150FAE1C20EF66E0F0EF76E000EF86E1A
:1008A8000900F5CF6CF00900F5CF6DF0000EF86E79
:1008B80000014CEF05F0116E000EAC6E000EAB6E31
:1008C80011A002D0AC8800D011A203D0AC8CAB8CA4
:1008D80000D011A402D0AC8E00D011A602D0AB88F3
:1008E80002D0AB8A00D011B8AC849E9811AA02D06D
:1008F800AB8600D011AC02D09D8A01D09D9A9E9AF9
:1009080011AE02D09D8801D09D980FC0AFFF105046
:10091800B06EAC8AAB8E949C948EACB8ACBE02D050
:10092800948C00D012000600EACF04F0E1CF05F065
:10093800E2CF06F0D9CF07F0DACF08F0F3CF09F00D
:10094800F4CF0AF0F6CF0BF0F7CF0CF0F8CF0DF09C
:10095800F5CF0EF00EC0F5FF0DC0F8FF0CC0F7FF85
:100968000BC0F6FF0AC0F4FF09C0F3FF08C0DAFFA6
:1009780007C0D9FF06C0E2FF05C0E1FF04C0EAFFD7
:1009880003C0E9FF02C0FBFF01C0FAFF1100000E1F
:10099800146E000E136E11501210D8B421D0010E2F
:1009A800156E05D0D89011361236152A00D012BE11
:1009B80002D0F8D700D0D8901336143611500F5CF7
:1009C80012501058D8A006D011500F5E1250105A6D
:1009D800138000D0D89012321132152EECD700D0E7
:1009E80013C00FF014C010F0120043482D0000008F
:1009F80000000000000000000000000000000000EF
:100A080000000000000000000000000000000000DE
:100A180000000000000000000000000000000000CE
:100A280000000000000000000000000000000000BE
:100A3800000000000000000000000000000015C0D9
:100A48000FF016C010F0000E126EFA0E116E0AECBE
:100A580007F00FC019F010C01AF019C017F01AC02B
:100A680018F0171E181E174A182AFF0E1724196E99
:100A7800FF0E18201A6EB80EB16E19C0B2FF1A50C8
:100A8800B36EA192B18000D0A1A2FED7B19012009E
:100A980009EC06F000D0A6EC06F01250426E425067
:100AA800090DF3CF0FF0F4CF10F0000E126E050E03
:100AB800116E4CEC03F00F50200F416EB80E1B6EF8
:100AC800FF0E1C6E42C01DF01E6A41C01FF0206A56
:100AD800B9EC00F01EEC07F0DED70CEF00F0156E55
:100AE8002A0EB5EC07F0000EADEC07F015505824AF
:100AF800ADEC07F0000EADEC07F013505824ADEC48
:100B080007F02B0EB5EC07F0000EADEC07F0125015
:100B18006024ADEC07F0000EADEC07F01450602433
:100B2800ADEC07F02C0EB5EC07F0120018501910B8
:100B3800D8B41DD0010E1A6E05D0D89018361936C3
:100B48001A2A00D019BE02D0F8D700D01850165C67
:100B580019501758D8A005D01850165E1950175AB2
:100B680000D0D890193218321A2EF0D700D016C0FB
:100B780016F017C017F01200296E29C02AF02B6A48
:100B88000ED021C016F023C017F024C018F025C0DD
:100B980019F02A50DEEC03F02A4A2B2A00D0225002
:100BA80029C026F0276A2626000E272226502A5C0E
:100BB8002B50800A286E2750800A2858D8A0E1D7E1
:100BC80012000F6EDDEC07F0000E106E070E1064B9
:100BD80001D00FD0C4EC07F083AE03D0D880113613
:100BE80004D011501124116E00D0D9EC07F0102A4E
:100BF800EDD70F50D8B403D0A4EC07F003D0CFEC56
:100C080007F000D0115000D0120075EC07F0700EFC
:100C1800D36E0F0EC16E140E926E010E936E000EFF
:100C2800946E000E956E000E966EF19EA00E0F6EDD
:100C3800860E106E010E116E000E126ECAEC07F0D1
:100C480097EC03F040EC07F0120000F800000000F9
:100C5800000000000000000000000000000000008C
:100C6800000000000000000000000000000000007C
:100C780000000000A20000000000000000000000CA
:100C8800000000000000000000000FC013F010C0BA
:100C980014F003D0134A142A00D013C0D9FF14C08B
:100CA800DAFFDF50D8A4F6D70FC011F010C012F049
:100CB800111E121E114A122A135011240F6E1450BD
:100CC8001220106E00D012002A0EB5EC07F0000EAC
:100CD800ADEC07F0000EADEC07F0000EADEC07F040
:100CE8007F0EADEC07F02B0EB5EC07F0000EADEC67
:100CF80007F0000EADEC07F0000EADEC07F09F0E0C
:100D0800ADEC07F012000F6E000E106E070E1064A7
:100D180001D011D00FAE03D0DDEC07F003D0D4EC36
:100D280007F000D0C4EC07F0D9EC07F00F500F24FF
:100D38000F6E102AEBD7DDEC07F0C4EC07F0D9EC06
:100D480007F01200480E166EAA0E146E9BEC07F000
:100D58001650162487EC06F0145087EC06F06AEC5F
:100D680007F0D880163487EC06F0000EE5EC05F0A5
:100D7800156E92EC07F015C012F0136A00D012003D
:100D88000FC013F010C014F005D0134A142A114AEA
:100D9800122A00D011C0F6FF12C0F7FF13C0D9FF06
:100DA80014C0DAFF0800F5CFDFFFDF50D8A4EDD775
:100DB8001200196E800E196013D09F0E166401D0B0
:100DC8000FD016C012F01928136E1628146E195079
:100DD80073EC05F01850ADEC07F01750ADEC07F0C8
:100DE800120082828290800EC76E300EC66E58EC5A
:100DF80001F068EC06F065EC02F0360EB5EC07F091
:100E0800C00EADEC07F0010E526E12000F50110229
:100E1800F3CF13F0F4CF14F00F501202F35014264E
:100E280010501102F350142613C00FF014C010F024
:100E380000D01200000E106E000E0F6E10BE08D00B
:100E4800680E0F5C420E1058D8B005D001D003D000
:100E58000F4A102AF3D71200136E9BEC07F01350B9
:100E6800132487EC06F0115087EC06F0125087EC3B
:100E780006F092EC07F01200480E146EAC0E116EDC
:100E8800020E126E145030EC07F0EE0E116E145074
:100E98005DEC07F01200000E166E800E176EA00EA5
:100EA800186E22C019F023C01AF0000EDEEC02F012
:100EB8001200126E9BEC07F01250122487EC06F019
:100EC800115087EC06F092EC07F01200D9EC07F00D
:100ED800DDEC07F0C4EC07F0D4EC07F0D9EC07F030
:100EE8001200000E106E190E0F6E3C0E5FEC04F02F
:100EF800700ED36E1200106E9E96C9CF0FF010C000
:100F0800C9FF00D0C7A0FED712008298000E166E47
:100F1800640E156E23EC05F082881200D9EC07F0F8
:100F2800D4EC07F0C4EC07F0DDEC07F01200DDECC0
:100F380007F0C4EC07F0D4EC07F0D9EC07F0120086
:100F4800D4EC07F0C4EC07F0D9EC07F0DDEC07F0BF
:100F58001200116E8292828011507FEC07F082821B
:100F68001200116E8292829011507FEC07F08282FB
:100F780012000F6E00D0ACA2FED70FC0ADFF12005A
:100F8800958C060EE82EFED700D01200C4EC07F0B0
:100F9800DDEC07F01200C4EC07F0D9EC07F0120002
:100FA800839E959E00D000D01200839C959C00D013
:0C0FB8001200958E00D000D01200FF0146
:10FDD20000000000000000005F00000007000700B4
:10FDE200147F147F14242A7F2A1223130864623694
:10FDF200495620500008070300001C224100004120
:10FE0200221C002A1C7F1C2A08083E080800807059
:10FE1200300008080808080000606000201008048C
:10FE2200023E5149453E00427F40007249494946DF
:10FE32002141494D331814127F1027454545393C5D
:10FE42004A4949314121110907364949493646494A
:10FE520049291E000014000000403400000008146C
:10FE620022411414141414004122140802015909E5
:10FE7200063E415D594E7C1211127C7F494949363A
:10FE82003E414141227F4141413E7F494949417FB3
:10FE9200090909013E414151737F0808087F004169
:10FEA2007F41002040413F017F081422417F4040B2
:10FEB20040407F021C027F7F0408107F3E41414187
:10FEC2003E7F090909063E4151215E7F09192946F3
:10FED200264949493203017F01033F4040403F1F09
:10FEE2002040201F3F4038403F631408146303043E
:10FEF2007804036159494D43007F4141410204089E
:10FF02001020004141417F04020102044040404070
:10FF120040000307080020545478407F28444438A6
:10FF22003844444428384444287F385454541800F0
:10FF3200087E090218A4A49C787F0804047800446F
:10FF42007D40002040403D007F1028440000417F5A
:10FF520040007C047804787C0804047838444444E3
:10FF620038FC1824241818242418FC7C08040408DB
:10FF7200485454542404043F44243C4040207C1CF4
:10FF82002040201C3C4030403C44281028444C90E7
:10FF920090907C4464544C44000836410000007741
:10FFA20000000041360800020102040201000A00BA
:10FFB2006400E80310272054656D706572617475E2
:10FFC2007265203D20256420646567726565734310
:10FFD200203D2025642064656772656573460D0ABD
:10FFE20000454345333330314C2046616C6C20323E
:0EFFF200322D5378004C414220313020000067
:020000040020DA
:08000000FFFFFFFFFFFFFFFF00
:020000040030CA
:0E000000FF08191EFF8281FF0FC00FE00F40A6
:00000001FF
