:04000000A4EF14F065
:1010000000010000000A00000064000000E8030086
:101010000010270000A086010040420F0080969833
:101020000000E1F50500CA9A3B00803FCDCC3DD7DA
:10103000233C12833AB7D138C62737388635C0D615
:1010400033CC2B32708930E7DB2EE53C1E42A20DFB
:1010500000803F00204100C842007A44401C4650B6
:10106000C34724744997184BBCBE4C6B6E4E031596
:101070005079AD60F34971566F6C746167653A20C1
:1010800025660D0A0000590E656E000E666EFFD2D1
:10109000250E7818D8B404D0785021EC15F0F7D28A
:1010A000000E686E000E676E05D0FFD2688413D004
:1010B000EED211D057C0F6FF58C0F7FF574A582A52
:1010C0000800F5CF78F07850000AD8B4EED2660A5E
:1010D000D8B4ECD7DCD2070E6814D8B4CAD2000E4C
:1010E0006A6E060E696E65C0D9FF66C0DAFFDECF94
:1010F00075F0DECF76F0DDCF77F0030E6526000EBB
:10110000662277AE11D075C001F076C002F077C0CC
:1011100003F0F3EC14F001C075F002C076F003C0E8
:1011200077F0030E671200D0000E706E000E6F6E27
:10113000755076107710D8B485D0820E5C6EFF0E95
:101140005D6E75C05EF076C05FF077C060F078C00D
:1011500061F0100E05D0D890613260325F325E329D
:10116000E82EF9D75E505C246F6E000E5D20706E25
:101170006F06D8A070066FC035F070C036F0000E54
:10118000386E030E376EB9EC14F035C06FF036C010
:1011900070F06FC02DF070C02EF0000E306E0A0E91
:1011A0002F6EC5EC12F02DC06FF02EC070F070AE37
:1011B00004D06F06D8A0700600D06F50000856EC1F
:1011C0000BF03BC071F03CC072F03DC073F071C0D9
:1011D00009F072C00AF073C00BF075C00CF076C055
:1011E0000DF077C00EF002EC11F009C071F00AC0EA
:1011F00072F00BC073F071C001F072C002F073C0E6
:1012000003F0000E046E800E056E3F0E066E10ECAD
:1012100013F0D8B004D06F06D8A0700613D071C0F8
:1012200001F072C002F073C003F0000E046E200ED5
:10123000056E410E066E10EC13F0D8A003D06F4A75
:10124000702A00D06ABE06D06A501CE10D0E695C9F
:10125000D8B018D075C045F076C046F077C047F0DA
:10126000695046EC0DF03BC048F03CC049F03DC031
:101270004AF068EC0EF045C075F046C076F047C005
:1012800077F000D070BE06D0705020E10A0E6F5C7F
:10129000D8B01CD0755076107710D8B46DD075C00A
:1012A00018F076C019F077C01AF07EEC11F01850E3
:1012B00019101A101B10D8B470BE5ED0705006E121
:1012C000020E6F5CD8B002D057D000D071C001F0D0
:1012D00072C002F073C003F0700E046E890E056ECA
:1012E000400E066E10EC13F0D8B002D0F70E01D00D
:1012F000F80E6F26FF0E702200D06F5056EC0BF0E8
:101300003BC071F03CC072F03DC073F017D075C0A7
:1013100001F076C002F077C003F071C004F072C033
:1013200005F073C006F07DEC10F001C06BF002C058
:101330006CF003C06DF004C06EF017D075C001F002
:1013400076C002F077C003F071C004F072C005F0FF
:1013500073C006F0F5EC0FF001C06BF002C06CF04A
:1013600003C06DF004C06EF000D0000E756E000E6C
:10137000766E000E776E33D075C018F076C019F017
:1013800077C01AF07EEC11F018C06BF019C06CF049
:101390001AC06DF01BC06EF075C051F076C052F0EF
:1013A00077C053F06BC009F06CC00AF06DC00BF051
:1013B0006EC00CF052EC14F009C054F00AC055F0A5
:1013C0000BC056F082EC14F051C075F052C076F0AC
:1013D00053C077F0000E706E000E6F6E00D0010EDD
:1013E000786E0A0E7818D8B41CD001D01AD0785074
:1013F000040D010EF324F66E100EF420F76E0900B2
:10140000F5506B5C0900F5506C580900F5506D58AB
:101410000900F5506E58D8A004D001D002D0782A27
:10142000E0D7030E67145C6E000E68145D6E5C50AE
:101430005D10D8B449D02D0E21EC15F045D06BC00D
:1014400001F06CC002F06DC003F06EC004F0785083
:10145000040D010EF324F66E100EF420F76E090051
:10146000F5CF05F00900F5CF06F00900F5CF07F03C
:101470000A00F5CF08F05BEC13F001C071F002C078
:1014800072F003C073F004C074F071C001F072C058
:1014900002F073C003F074C004F00A0E056E000E73
:1014A000066E000E076E000E086EE2EC13F001C02F
:1014B00071F002C072F003C073F004C074F0715098
:1014C000300F21EC15F000D078067828D8B409D078
:1014D000B6D707D0300E21EC15F06F06D8A07006F5
:1014E00000D070BE05D07050F5E16F04D8B0F2D7CF
:1014F0006ABE09D06A5004E1090E695CD8A003D025
:10150000080E786E03D069C078F000D07850695E1C
:10151000000E78BEFF0E6A5A7850D8B404D02E0E52
:1015200021EC15F000D0785056EC0BF03BC062F087
:101530003CC063F03DC064F075C00CF076C00DF0A7
:1015400077C00EF062C009F063C00AF064C00BF00F
:1015500002EC11F009C018F00AC019F00BC01AF023
:101560007EEC11F018C06BF019C06CF01AC06DF071
:101570001BC06EF06BD06BC001F06CC002F06DC090
:1015800003F06EC004F07850040D010EF324F66EE3
:10159000100EF420F76E0900F5CF05F00900F5CF25
:1015A00006F00900F5CF07F00A00F5CF08F05BEC74
:1015B00013F001C071F002C072F003C073F004C0F8
:1015C00074F071C001F072C002F073C003F074C017
:1015D00004F00A0E056E000E066E000E076E000E79
:1015E000086EE2EC13F001C071F002C072F003C0AB
:1015F00073F004C074F07150300F21EC15F06BC023
:1016000001F06CC002F06DC003F06EC004F07850C1
:10161000040D010EF324F66E100EF420F76E09008F
:10162000F5CF05F00900F5CF06F00900F5CF07F07A
:101630000A00F5CF08F0E2EC13F001C06BF002C035
:101640006CF003C06DF004C06EF000D0780678280E
:10165000D8B409D090D707D0300E21EC15F0690628
:10166000D8A06A0600D069506A10D8B410D0F4D758
:101670000ED0030E67145C6E000E68145D6E5C5035
:101680005D10D8B404D02D0E21EC15F000D057C059
:10169000F6FF58C0F7FF574A582A0800F5CF78F0F0
:1016A0007850D8B402D0F4D400D01200416E41AECC
:1016B000EFD0416C4150800A120FD8A08DD0000E9F
:1016C000386E030E376E000E306E0A0E2F6E000E4F
:1016D0002A6E640E296E4150276E286A27BE28069E
:1016E000A1EC13F027C02DF028C02EF0C5EC12F0AD
:1016F000090E2D24356E000E2E20366EB9EC14F036
:10170000290E3524F66E100E3620F76E0900F5CF3F
:101710000CF00900F5CF0DF00A00F5CF0EF0000E29
:10172000306E640E2F6E41502D6E2E6A2DBE2E0629
:10173000C5EC12F0120E2D24356E000E2E20366EE2
:10174000000E386E030E376EB9EC14F0290E3524F6
:10175000F66E100E3620F76E0900F5CF09F009007D
:10176000F5CF0AF00A00F5CF0BF002EC11F009C03A
:101770003EF00AC03FF00BC040F03EC009F03FC051
:101780000AF040C00BF0000E386E030E376E000EEC
:101790002A6E0A0E296E4150276E286A27BE280637
:1017A000A1EC13F027C035F028C036F0B9EC14F0E6
:1017B000290E3524F66E100E3620F76E0900F5CF8F
:1017C0000CF00900F5CF0DF00A00F5CF0EF002EC99
:1017D00011F041D15AD154D04150800A750FD8A090
:1017E0004FD0000E306E0A0E2F6E41502D6E2E6AB5
:1017F0002DBE2E06C5EC12F0090E2D24356E000EFE
:101800002E20366E000E386E030E376EB9EC14F0D3
:10181000290E3524F66E100E3620F76E0900F5CF2E
:1018200009F00900F5CF0AF00A00F5CF0BF0000E21
:10183000386E030E376E000E2A6E0A0E296E415066
:10184000276E286A27BE2806A1EC13F027C035F0C2
:1018500028C036F0B9EC14F0290E3524F66E100EBF
:101860003620F76E0900F5CF0CF00900F5CF0DF02A
:101870000A00F5CF0EF002EC11F0EDD006D100D049
:101880004150030D290EF324F66E100EF2D0FDD058
:101890004150800A120FD8A08DD0000E386E030E72
:1018A000376E000E306E0A0E2F6E000E2A6E640E1A
:1018B000296E4150276E286A27BE2806A1EC13F036
:1018C00027C02DF028C02EF0C5EC12F0090E2D24F3
:1018D000356E000E2E20366EB9EC14F0500E352405
:1018E000F66E100E3620F76E0900F5CF0CF00900E9
:1018F000F5CF0DF00A00F5CF0EF0000E306E640E3D
:101900002F6E41502D6E2E6A2DBE2E06C5EC12F0A4
:10191000120E2D24356E000E2E20366E000E386EFF
:10192000030E376EB9EC14F0500E3524F66E100E1F
:101930003620F76E0900F5CF09F00900F5CF0AF05F
:101940000A00F5CF0BF002EC11F009C03EF00AC01E
:101950003FF00BC040F03EC009F03FC00AF040C06D
:101960000BF0000E386E030E376E000E2A6E0A0E54
:10197000296E4150276E286A27BE2806A1EC13F075
:1019800027C035F028C036F0B9EC14F0500E3524DD
:10199000F66E100E3620F76E0900F5CF0CF0090038
:1019A000F5CF0DF00A00F5CF0EF002EC11F053D098
:1019B0006CD059D04150800A750FD8A054D0000E79
:1019C000306E0A0E2F6E41502D6E2E6A2DBE2E06E1
:1019D000C5EC12F0090E2D24356E000E2E20366E49
:1019E000000E386E030E376EB9EC14F0500E35242D
:1019F000F66E100E3620F76E0900F5CF09F00900DB
:101A0000F5CF0AF00A00F5CF0BF0000E386E030E8A
:101A1000376E000E2A6E0A0E296E4150276E286A14
:101A200027BE2806A1EC13F027C035F028C036F0F9
:101A3000B9EC14F0500E3524F66E100E3620F76E09
:101A40000900F5CF0CF00900F5CF0DF00A00F5CF35
:101A50000EF002EC11F009C03BF00AC03CF00BC0E4
:101A60003DF013D000D04150030D500EF324F66E1C
:101A7000100EF420F76E0900F5CF3BF00900F5CF0A
:101A80003CF00A00F5CF3DF000D01200446E6D0E20
:101A900044649BD0000E386E030E376E000E306E1D
:101AA0000A0E2F6E000E2A6E640E296E44C027F0B7
:101AB000286AA1EC13F027C02DF028C02EF0C5EC49
:101AC00012F0090E2D24356E000E2E20366EB9EC64
:101AD00014F0290E3524F66E100E3620F76E09002C
:101AE000F5CF0CF00900F5CF0DF00A00F5CF0EF0A0
:101AF000000E306E640E2F6E44C02DF02E6AC5ECC1
:101B000012F0120E2D24356E000E2E20366E000EB1
:101B1000386E030E376EB9EC14F0290E3524F66ECC
:101B2000100E3620F76E0900F5CF09F00900F5CF49
:101B30000AF00A00F5CF0BF002EC11F009C041F0F9
:101B40000AC042F00BC043F0000E386E030E376E31
:101B5000000E2A6E0A0E296E44C027F0286AA1ECF6
:101B600013F027C035F028C036F0B9EC14F0290E78
:101B70003524F66E100E3620F76E0900F5CF0CF006
:101B80000900F5CF0DF00A00F5CF0EF041C009F0C5
:101B900042C00AF043C00BF002EC11F009C03EF065
:101BA0000AC03FF00BC040F03EC009F03FC00AF051
:101BB00040C00BF0000E0C6E000E0D6E3F0E0E6E50
:101BC00002EC11F07DD083D062D00A0E44645FD065
:101BD000000E386E030E376E000E2A6E0A0E296E46
:101BE00044C027F0286AA1EC13F027C035F028C0C4
:101BF00036F0B9EC14F0290E3524F66E100E3620AE
:101C0000F76E0900F5CF0CF00900F5CF0DF00A00D2
:101C1000F5CF0EF0000E306E0A0E2F6E44C02DF080
:101C20002E6AC5EC12F0090E2D24356E000E2E2002
:101C3000366E000E386E030E376EB9EC14F0290EB6
:101C40003524F66E100E3620F76E0900F5CF09F038
:101C50000900F5CF0AF00A00F5CF0BF002EC11F005
:101C600009C041F00AC042F00BC043F041C009F086
:101C700042C00AF043C00BF0000E0C6E000E0D6E59
:101C80003F0E0E6E02EC11F01BD021D000D044505C
:101C9000030D290EF324F66E100EF420F76E0900E2
:101CA000F5CF09F00900F5CF0AF00A00F5CF0BF0E7
:101CB000000E0C6E000E0D6E3F0E0E6E02EC11F05B
:101CC00009C03BF00AC03CF00BC03DF000D0120050
:101CD00047C04BF04C6A4D6A46344B3601E34C80AA
:101CE0004B50506E4AC04BF04C6A4D6A49344B36EB
:101CF00001E34C804B504F6E5050D8B40BD04F5036
:101D0000505CD8B00ED0505000084F244B6E180EC7
:101D10004B6407D048C045F049C046F04AC047F080
:101D2000B8D04F50D8B40BD050504F5CD8B00ED074
:101D30004F50000850244B6E180E4B6407D045C01E
:101D400045F046C046F047C047F0A3D0060E4E6EA1
:101D500047AE02D04E8E00D04ABE4E8C468EFF0E4D
:101D60004516FF0E4616000E4716498EFF0E481602
:101D7000FF0E4916000E4A164F50505CD8B01ED0C8
:101D8000D890483649364A364F0650504F18D8B486
:101D90000FD04E064EC04BF0070E4B16D8B408D0ED
:101DA000EFD706D0D890473246324532502A00D07D
:101DB0004F505018D8B424D0F5D722D050504F5C93
:101DC000D8B01ED0D89045364636473650065050CB
:101DD0004F18D8B40FD04E064EC04BF0070E4B161E
:101DE000D8B408D0EFD706D0D8904A32493248321A
:101DF0004F2A00D04F505018D8B402D0F5D700D099
:101E00004EAE0CD0FF0E451AFF0E461AFF0E471AB3
:101E1000010E4526000E4622000E47224EAC0DD084
:101E2000FF0E481AFF0E491AFF0E4A1A010E4826E5
:101E3000000E4922000E4A2200D0000E4E6E455080
:101E400048264650492247504A224AAE0FD0FF0E3C
:101E5000481AFF0E491AFF0E4A1A010E4826000EB4
:101E60004922000E4A22010E4E6E00D048C001F0F9
:101E700049C002F04AC003F050C004F04EC005F063
:101E800062EC12F001C045F002C046F003C047F01A
:101E900000D0120017EC15F028EC15F020EE95F0AC
:101EA00010EE80F0090EDBCFE3FFE806FCE292685B
:101EB000000E946E000E956E000E966E00D0000E11
:101EC0002FEC15F0CDEC14F001C009F002C00AF0BF
:101ED000E0EC14F009C08AF00AC08BF00BC08CF063
:101EE000000E0C6E800E0D6E400E0E6E8AC009F054
:101EF0008BC00AF08CC00BF002EC11F009C018F096
:101F00000AC019F00BC01AF0000E1B6E7A0E1C6E80
:101F1000440E1D6EF1EC11F018C092F019C093F050
:101F20001AC094F092C018F093C019F094C01AF03F
:101F30007EEC11F018C08DF019C08EF0000E0C6E02
:101F4000200E0D6E410E0E6E92C009F093C00AF085
:101F500094C00BF002EC11F009C018F00AC019F09F
:101F60000BC01AF07EEC11F018C027F019C028F051
:101F7000000E2A6E0A0E296EA1EC13F027C08FF016
:101F800028C090F0800E00018F25D96E000E000150
:101F90009021DA6EDF50836E800E00018D25D96EA0
:101FA000000E00018E21DA6EDF500001916F0001FA
:101FB00091513F0B826E000E846E000191AD03D0F3
:101FC000020E846E00D0839E770E576E100E586EF0
:101FD00092C059F093C05AF094C05BF043EC08F003
:101FE00005EC15F06CD700EF00F003C007F0086AAD
:101FF000096A0234073601E3088007500F6E0F505C
:10200000D8A402D05DD078D006C007F0086A096A6B
:102010000534073601E3088007500E6E0E50D8A431
:1020200002D04ED069D0028EFF0E0116FF0E0216AE
:10203000000E0316058EFF0E0416FF0E0516000E89
:102040000616000E0A6E000E0B6E000E0C6E000ED1
:102050000D6E7F0E0F5E0E50980F0F5E180E0E6EF7
:10206000D8900A360B360C360D360450015C0550FC
:10207000025806500358D8A007D00450015E0550FE
:10208000025A0650035A0A80D890013602360336A7
:102090000E2EE6D700D00FAE10D00F50800A970F4B
:1020A000D8B003D00DD028D000D0D8900D320C324B
:1020B0000B320A320F3EF9D717D0170E0F6411D02A
:1020C000000E016E000E026E000E036E000E046E16
:1020D00013D007D0D8900A360B360C360D360F06C3
:1020E00000D00F50D8A4F6D70AC001F00BC002F000
:1020F0000CC003F00DC004F01200033404340C6E65
:102100000C50D8A402D061D07CD0063407340B6EBA
:102110000B50D8A402D059D074D0038EFF0E0116F4
:10212000FF0E0216FF0E0316000E0416068EFF0E9B
:102130000416FF0E0516FF0E0616000E0716000EFB
:10214000076E000E086E000E096E000E0A6E7F0EFE
:102150000C5E0B50A00F0C5E200E0B6E00D0D890C2
:102160000736083609360A360450015C0550025815
:102170000650035807500458D8A00AD00450015EF6
:102180000550025A0650035A0750045A078000D0DF
:10219000D89001360236033604360B2EE0D700D035
:1021A0000CAE10D00C50800A9F0FD8B003D00DD0C9
:1021B00028D000D0D8900A320932083207320C3EBB
:1021C000F9D717D01F0E0C6411D0000E016E000E4F
:1021D000026E000E036E000E046E13D007D0D8906E
:1021E0000736083609360A360C0600D00C50D8A43B
:1021F000F6D707C001F008C002F009C003F00AC01A
:1022000004F012000BC00FF0106A116A0A340F3686
:1022100001E310800F50126E1250D8A402D00ED0DD
:102220006CD00EC00FF0106A116A0D340F3601E346
:1022300010800F50176E1750D8A407D0000E096EEB
:10224000000E0A6E000E0B6E58D017507B0F122630
:102250000BC017F00E50171A800E17160A8E0D8E2F
:10226000FF0E0C16FF0E0D16000E0E16000E136E4E
:10227000000E146E000E156E070E166E00D009A02B
:1022800007D00C5013260D5014220E50152200D0EA
:10229000D8900B320A320932D8900C360D360E36F1
:1022A000162EEDD700D0090E166E00D009A007D06B
:1022B0000C5013260D5014220E50152200D0D89029
:1022C0000B320A320932D890153214321332162EDC
:1022D000EDD700D013C001F014C002F015C003F018
:1022E00012C004F017C005F062EC12F001C009F052
:1022F00002C00AF003C00BF000D012001AC01CF09C
:102300001D6A1E6A19341C3601E31D801C50266E9E
:102310002650D8A402D039D063D0170E1C6E18C036
:102320001DF019C01EF01AC01FF01C28206E04D02A
:10233000D8901F321E321D32202EFAD71D50216E2A
:10234000198EFF0E1816FF0E1916000E1A161850C9
:10235000226E1950236E1A50246E256A8E0E265E48
:1023600026AE10D02650800A8F0FD8B003D00DD0E3
:1023700037D000D0D8902532243223322232263E64
:10238000F9D719D0170E266411D0000E186E000E62
:10239000196E000E1A6E000E1B6E22D007D0D89058
:1023A0002236233624362536260600D02650D8B4C9
:1023B00002D0F5D700D02150D8B409D0251E241E54
:1023C000231E226C000E23222422252200D022C0AC
:1023D00018F023C019F024C01AF025C01BF000D05B
:1023E00012001AC01EF01F6A206A19341E3601E35B
:1023F0001F801E50256E2550D8A402D00ED061D06B
:102400001DC01EF01F6A206A1C341E3601E31F80A7
:102410001E50266E2650D8A407D0000E186E000E4F
:10242000196E000E1A6E4DD0000E226E000E236E35
:10243000000E246E2650890F255E1AC026F01D500E
:10244000261A800E2616198EFF0E1816FF0E191664
:10245000000E1A161C8EFF0E1B16FF0E1C16000E09
:102460001D16180E216E00D0D89022362336243641
:102470001B50185C1C5019581D501A58D8A007D072
:102480001B50185E1C50195A1D501A5A2280D890A1
:10249000183619361A36212EE7D700D022C001F09F
:1024A00023C002F024C003F025C004F026C005F0CC
:1024B00062EC12F001C018F002C019F003C01AF06B
:1024C00000D012000450D8B405D0015002100310FF
:1024D000D8A40ED0000E016E000E026E000E036E28
:1024E00053D006D0042AD89003320232013200D0F1
:1024F000000E0114066E000E0214076EFE0E031489
:10250000086E065007100810D8B40ED0EBD70CD0C8
:10251000042A010E0126000E0222000E0322D8908A
:1025200003320232013200D0000E0114066E000E9A
:102530000214076EFF0E0314086E065007100810F1
:10254000D8B408D0E5D706D00406D89001360236B4
:10255000033600D002BE04D0020E0460F5D700D0CE
:1025600004B002D0029E00D0D8900432045003126E
:102570000550D8B402D0038E00D001C001F002C0D3
:1025800002F003C003F000D01200000E326E30AE35
:1025900007D02F6C301ED8B0302A010E326E00D01A
:1025A0002EAE07D02D6C2E1ED8B02E2A010E321A58
:1025B00000D0000E346E000E336E2F503010D8B4A1
:1025C00021D0010E316E05D0D8902F363036312A09
:1025D00000D030BE02D0F8D700D0D8903336343691
:1025E0002F502D5C30502E58D8A006D02F502D5E85
:1025F00030502E5A338000D0D89030322F32312EC6
:10260000ECD700D03250D8B405D0336C341ED8B0DB
:10261000342A00D033C02DF034C02EF000D0120088
:1026200003AE17D001C007F002C008F003C009F0E4
:10263000071E081E091E072A000E08220922000E86
:102640000724016E000E0820026E800E0920036E22
:1026500000D006AE17D004C007F005C008F006C0D1
:1026600009F0071E081E091E072A000E082209226B
:10267000000E0724046E000E0820056E800E09204F
:10268000066E00D0000E011A000E021A800E031A08
:10269000000E041A000E051A800E061A0450015C82
:1026A0000550025806500358D8B002D0D89002D036
:1026B000D88000D01200000E096E000E0A6E000EC7
:1026C0000B6E000E0C6E0550061007100810D8B4E3
:1026D0002FD0010E0D6E07D0D8900536063607367E
:1026E00008360D2A00D008BE02D0F6D700D0D89008
:1026F00009360A360B360C360550015C0650025876
:102700000750035808500458D8A00AD00550015E5D
:102710000650025A0750035A0850045A098000D044
:10272000D89008320732063205320D2EE0D700D09D
:1027300009C001F00AC002F00BC003F00CC004F0A5
:102740001200000E2C6E28AE07D0276C281ED8B0C1
:10275000282A010E2C6E00D02AAE05D0296C2A1E24
:10276000D8B02A2A00D029502A10D8B41DD0010E82
:102770002B6E05D0D89029362A362B2A00D02ABEB7
:1027800002D0F8D700D02950275C2A502858D8A06A
:1027900005D02950275E2A50285A00D0D8902A32D6
:1027A00029322B2EF0D700D02C50D8B405D0276C6E
:1027B000281ED8B0282A00D027C027F028C028F02B
:1027C00000D012000550061007100810D8B429D008
:1027D000010E096E07D0D890053606360736083642
:1027E000092A00D008BE02D0F6D700D00550015CFF
:1027F000065002580750035808500458D8A009D072
:102800000550015E0650025A0750035A0850045AF8
:1028100000D0D8900832073206320532092EE6D7AA
:1028200000D001C001F002C002F003C003F004C0F8
:1028300004F01200036E000EAC6E000EAB6E03A02F
:1028400002D0AC8800D003A203D0AC8CAB8C00D0FB
:1028500003A402D0AC8E00D003A602D0AB8802D075
:10286000AB8A00D003B8AC849E9803AA02D0AB8692
:1028700000D003AC02D09D8A01D09D9A9E9A03AEEF
:1028800002D09D8801D09D9801C0AFFF0250B06E6C
:10289000AC8AAB8E949C948EACB8ACBE02D0948CB7
:1028A00000D012008E0E116E07D0D8900C320B3271
:1028B0000A320932112A00D0000E09140D6E000EE2
:1028C0000A140E6E000E0B140F6EFF0E0C14106E19
:1028D0000D500E100F101010D8A4E7D709C001F04A
:1028E0000AC002F00BC003F011C004F0000E056E28
:1028F00062EC12F001C009F002C00AF003C00BF054
:1029000000D01200545055105610D8B407D0000E05
:10291000541A000E551A800E561A00D051C045F0B8
:1029200052C046F053C047F054C048F055C049F07B
:1029300056C04AF068EC0EF045C051F046C052F067
:1029400047C053F000D012006A0EF66E2A0EF76EE2
:10295000000EF86E00EE95F010EE0AF00900F5CFCB
:10296000EEFFE550E150FAE1000EF86E00014AEF8B
:102970000FF035503702F3CF39F0F4CF3AF035503D
:102980003802F3503A2636503702F3503A2639C00F
:1029900035F03AC036F000D01200C28200D0C2B288
:1029A000FED7C450046E036AC3500324056E000EA4
:1029B0000420066E05C001F006C002F000D012002F
:1029C00009C001F00AC002F0036A8E0E046E000E08
:1029D000056E62EC12F001C009F002C00AF003C0FB
:1029E0000BF000D01200015002100310D8B406D032
:1029F000000E011A000E021A800E031A01C001F027
:102A000002C002F003C003F01200000E026E000EBE
:102A1000016E02BE08D0680E015C420E0258D8B0AA
:102A200005D001D003D0014A022AF3D71200000ECC
:102A3000026E190E016E3C0E1AEC14F0600ED36E8D
:102A40001200016E00D0ACA2FED701C0ADFF120093
:102A5000010EC26E1E0EC16EA90EC06E1200016E76
:102A60000150040DF328C26E1200014F12064C24CF
:042A7000200F00042F
:020000040020DA
:08000000FFFFFFFFFFFFFFFF00
:020000040030CA
:0E000000FF08191EFF8381FF0FC00FE00F40A5
:00000001FF
