:04000000A2EF7FF0FC
:10FF000006000700000002000300040005000100D5
:10FF100002000700040000000300010006000500C5
:10FF2000000E026E000E016E02BE08D0680E015C6B
:10FF3000420E0258D8B005D001D003D0014A022A9F
:10FF4000F3D71200000EF66EFF0EF76E000EF86E7D
:10FF500000EE25F010EE20F00900F5CFEEFFE550A1
:10FF6000E150FAE10001B5EF7FF09268000E936E68
:10FF7000000E946E000E956E000E966E0F0EC16E02
:10FF800020EE25F010EE03F00F0EDBCFE3FFE806C6
:10FF9000FCE220EE35F010EE13F00F0EDBCFE3FFA6
:10FFA000E806FCE2000E246E000E236E24BE08D08C
:10FFB0002450F8E1080E235CD8B0F4D701D0F2D772
:10FFC00023C081FFD8902334D96E2434DA6E030E17
:10FFD000D926000EDA22DF50836ED8902334D96EF2
:10FFE0002434DA6E130ED926000EDA22DF50846E26
:10FFF00090EC7FF0234A242AD9D7D4D700EF00F021
:020000040020DA
:08000000FFFFFFFFFFFFFFFF00
:020000040030CA
:0E000000FF08191EFF8381FF0FC00FE00F40A5
:00000001FF
