:040000000CEF00F011
:10000800FACF03F0FBCF04F0E9CF05F0B6ED06F028
:1000180075EF06F020C024F021C025F0241E251E0F
:10002800244A252A010E24242A6E000E25202B6E30
:10003800000E276E010E266E20C024F021C025F088
:10004800D89024362536241E251E244A252A24C065
:1000580028F025C029F0000E2D6E000E2C6E20C051
:100068002EF021C02FF01E502024186E22C019F047
:1000780023C01AF01C5079EC08F0205000081E2408
:10008800186E22C019F023C01AF01C5079EC08F041
:100098001EC018F022C019F023C01AF01C502024EA
:1000A80079EC08F01EC018F022C019F023C01AF02D
:1000B800205000081C2479EC08F078D02BBE0BD017
:1000C8002E06D8A02F06020E2826000E2922285018
:1000D8002A2629502B222C4A2D2A020E2626000ECB
:1000E800272226502A2627502B221E502E24186EEF
:1000F80022C019F023C01AF01C502C2479EC08F007
:100108001E502E24186E22C019F023C01AF02C504D
:1001180000081C2479EC08F02E5000081E24186EE4
:1001280022C019F023C01AF01C502C2479EC08F0D6
:100138002E5000081E24186E22C019F023C01AF091
:100148002C5000081C2479EC08F01E502C24186E42
:1001580022C019F023C01AF01C502E2479EC08F0A4
:100168001E502C24186E22C019F023C01AF02E50ED
:1001780000081C2479EC08F02C5000081E24186E86
:1001880022C019F023C01AF01C502E2479EC08F074
:100198002C5000081E24186E22C019F023C01AF033
:1001A8002E5000081C2479EC08F000D02E502C5C4E
:1001B8002D50800A246E2F50800A2458D8A07ED74C
:1001C8001200F2926750D8B49AD0CE50CFCF01F037
:1001D800026A01C002F0016A01105E6E02505F6E91
:1001E800000ECF6E000ECE6E8AD0000ECF6E000EBF
:1001F800CE6E9E90900ECD6ECD80000E696E000E74
:100208005A6E000E5B6E000E5C6E000E5D6E010E87
:10021800676E73D085D0350E5E5C210E5F58D8A00E
:1002280009D01C0E5E5C250E5F58D8B003D0020EB4
:10023800676E2AD020EC09F027D026D071D0A10E05
:100248005E5C0F0E5F58D8A009D0880E5E5C130E56
:100258005F58D8B003D0030E676E4FD020EC09F07A
:100268004CD04BD05DD0900E5E5C010E5F58D8A08C
:1002780008D0BD0E5E5C020E5F58D8B002D0040EE6
:10028800D7D720EC09F000D0F19C4AD0910E5E5CE3
:10029800010E5F58D8A02ED0080E5E5C070E5F587E
:1002A800D8B028D0D8905A345A6E5B345B6E5C3420
:1002B8005C6E5D345D6EE90E5E5C030E5F58D8A01F
:1002C8000CD0010E5A245A6E000E5B205B6E000E95
:1002D8005C205C6E000E5D205D6E6928696E1F0EE5
:1002E8006964B9D7000E636E010E626EF298000E53
:1002F800676EB1D720EC09F000D0F18C11D06750AF
:10030800000AD8B472D7010AD8B485D7030AD8B47A
:1003180096D7010AD8B4A7D7070AD8B4B7D700D058
:100328001200366E800E3660A6D09F0E2E6401D065
:10033800A2D03450D8A403D0010E346E00D01F0EC2
:100348002F6404D07E0E2F6403D000D03F0E2F6E92
:10035800000E386E040E386401D08DD0530E2F6015
:1003680015D0E00E2F24116E126AFF0E1222000E15
:10037800146E050E136EBBEC08F038501126000EF3
:100388001222D90E1124F66EFD0E14D0AD0E2F24B4
:10039800116E126AFF0E1222000E146E050E136EF5
:1003A800BBEC08F038501126000E1222D80E11248A
:1003B800F66EFE0E1220F76E0800F5CF35F000D06D
:1003C800000E376E060E376401D053D035A023D007
:1003D8003404D8A40CD02E503724186E30C019F02D
:1003E80031C01AF03650382479EC08F03ED0375036
:1003F8003402F3502E24236E34C024F034C025F088
:1004080030C026F031C027F038503402F35036247B
:10041800FDEC07F02AD03050321804E1315033187F
:10042800D8B423D03404D8A40CD02E503724186E56
:1004380032C019F033C01AF03650382479EC08F07D
:1004480014D037503402F3502E24236E34C024F0D5
:1004580034C025F032C026F033C027F038503402BB
:10046800F3503624FDEC07F000D0372AD890353207
:10047800A9D7382A6FD7120027C02FF028C030F02C
:100488002F1E301E2F4A302A010E2F24356E000EE3
:100498003020366E000E326E010E316E27C02FF0FE
:1004A80028C030F0D8902F3630362F1E301E2F4AF5
:1004B800302A2FC033F030C034F0000E386E000EF2
:1004C800376E27C039F028C03AF067D036BE0BD057
:1004D8003906D8A03A06020E3326000E34223350CD
:1004E800352634503622374A382A020E3126000E75
:1004F8003222315035263250362229A025D03950A3
:1005080000082524186E395039242B242F6E2F28E3
:10051800196E2DC01AF02EC01BF02350372431EC71
:1005280006F0375000082524186E375037242B243E
:100538002F6E2F28196E2DC01AF02EC01BF02350D5
:10054800392431EC06F000D029A227D03950000810
:100558002524186E395039242B242F6E2F28196E14
:100568002DC01AF02EC01BF037500008232431ECA0
:1005780006F0375000082524186E375037242B24EE
:100588002F6E2F28196E2DC01AF02EC01BF039506F
:100598000008232431EC06F000D03950375C38507D
:1005A800800A2F6E3A50800A2F58D8A08FD7120091
:1005B800FBEC08F0700ED36EF19E000E926E010EE9
:1005C800936E000E946E000E956E000E966E0F0ED2
:1005D800C16EEAEC05F0F292F19CF288000ECF6E43
:1005E800000ECE6E9E909D80F28CF28E000E636E91
:1005F800000E626E000E5A6E000E5B6E000E5C6E90
:10060800000E5D6E00D062046310D8A4FCD7000E03
:10061800636E000E626E5BC066F0D20E186EFF0E3F
:10062800196E5AC01AF05BC01BF05CC01CF05DC0AC
:100638001DF066C01EF01F6A6CEC03F0F288F19C96
:1006480043684328D8B4DFD7000E3C6E3C0E3B6E9F
:10065800000E3E6E500E3D6E000E406E140E3F6E44
:100668004350020D800EF324D96E000EF420DA6E8A
:10067800DECF41F0DDCF42F084EC07F0000E1D6EB6
:100688003C0E1C6E000E1F6E500E1E6E000E216E6C
:10069800140E206EFF0E236E22680EEC00F04D0E35
:1006A800396E4350040D000EF3243A6E010EF42007
:1006B8003B6EFF0E3D6E3C68000E3F6E000E3E6EB8
:1006C800010E406E340E7EEC04F09DD70CEF00F066
:1006D8001A0E216E000E226E76D0250E2718D8B479
:1006E80004D0275013EC09F06ED0000E206E04D011
:1006F80078D012D068D010D018C0F6FF19C0F7FF14
:10070800184A192A0800F5CF27F02750000AD8B44C
:1007180068D0780AD8A457D021C0D9FF22C0DAFF00
:10072800DECF24F0DDCF25F0020E2126000E222296
:10073800010E276E040E2718D8B416D001D014D095
:100748002750020DB40EF324F66EFF0EF420F76E58
:100758000900F550245C0900F5502558D8A004D0AC
:1007680001D002D0272AE6D727C026F026D024C0F9
:1007780011F025C012F02650020DB40EF324F66EC7
:10078800FF0EF420F76E0900F5CF13F00A00F5CF3D
:1007980014F02CEC07F011500F0B236E2350010DB1
:1007A800E50EF324F66EFF0EF420F76E0800F5CF81
:1007B80027F0275013EC09F000D026062628D8B4D5
:1007C80002D0D5D700D018C0F6FF19C0F7FF184AD5
:1007D800192A0800F5CF27F02750D8B402D07DD7C2
:1007E80000D01200010E0BEC09F0000E186E960EE8
:1007F800176EADEC07F0110E0BEC09F0010E186E38
:10080800F40E176EADEC07F0B10E0BEC09F0010E0B
:1008180003EC09F02C0E03EC09F02D0E03EC09F0A3
:10082800B20E0BEC09F0010E03EC09F02C0E03ECF0
:1008380009F02D0E03EC09F0B30E0BEC09F0010ED4
:1008480003EC09F02C0E03EC09F02D0E03EC09F073
:10085800010E03EC09F02C0E03EC09F02D0E03EC4D
:1008680009F0B40E0BEC09F0070E03EC09F0C00E0A
:100878000BEC09F0A20E03EC09F0020E03EC09F0F0
:10088800840E03EC09F0C10E0BEC09F0C50E03EC65
:1008980009F0C20E0BEC09F00A0E03EC09F0000E89
:1008A80003EC09F0C30E0BEC09F08A0E03EC09F017
:1008B8002A0E03EC09F0C40E0BEC09F08A0E03ECC7
:1008C80009F0EE0E03EC09F0C50E0BEC09F00E0E64
:1008D80003EC09F0200E0BEC09F0360E0BEC09F0D6
:1008E800C80E03EC09F03A0E0BEC09F0050E03EC08
:1008F80009F012000001C96FC9C0CFF039C0CEF0AD
:100908003AC011F03BC012F022EC08F011C0CAF056
:1009180012C0CBF0000E0001CD6F000ECC6F64D07A
:100928005950D8B434D04050050D0001CF51416E14
:10093800426AF3504126F450422242BE28D0425027
:1009480004E1810E415CD8A022D0000E0001CF6FD7
:100958004050070DF3500001CE25030F0001CE6F64
:10096800A00E0001CE6504D0A00E0001CE6F00D00D
:100978000001CC513A24D96E0001CD513B20DA6EEA
:10098800200EDE18D8B42CD002D02AD000D0CEC089
:100998002EF00001CC513A24D96E0001CD513B20F4
:1009A800DA6EDF502F6E3CC030F03DC031F03EC0F3
:1009B80032F03FC033F040C034F00001CF5195EC25
:1009C80001F04050060DF3500001CF250001CF6F14
:1009D800800E0001CF6504D0800E0001CF6F00D0DB
:1009E8000001CC4BCD2B00D00001CA510001CC5DD9
:1009F8000001CB510001CD59D8A092D71200E00ECA
:100A08000BEC09F0020E03EC09F01C0E03EC09F0E4
:100A1800070E03EC09F0120E03EC09F0370E03EC95
:100A280009F0320E03EC09F0290E03EC09F02D0E43
:100A380003EC09F0290E03EC09F0250E03EC09F08C
:100A48002B0E03EC09F0390E03EC09F0000E03EC51
:100A580009F0010E03EC09F0030E03EC09F0100E87
:100A680003EC09F0E10E0BEC09F0030E03EC09F0BE
:100A78001D0E03EC09F0070E03EC09F0060E03EC5B
:100A880009F02E0E03EC09F02C0E03EC09F0290EE8
:100A980003EC09F02D0E03EC09F02E0E03EC09F01F
:100AA8002E0E03EC09F0370E03EC09F03F0E03ECB1
:100AB80009F0000E03EC09F0000E03EC09F0020E39
:100AC80003EC09F0100E03EC09F0130E0BEC09F01F
:100AD800000E186E0A0E176EADEC07F0290E0BEC1F
:100AE80009F0000E186E640E176EADEC07F01200D8
:100AF800236E800E236069D09F0E186401D065D0E4
:100B0800FF0E1D6EFF0E1E6E195023C01FF0206AC7
:100B18001F26000E20221D501F261E50202220BEF8
:100B28000AD0205004E1800E1F5CD8A004D02350C6
:100B38000008800F196EFF0E1D6EFF0E1E6E1A50F4
:100B480018C01FF0206A1F26000E20221D501F26E5
:100B58001E50202220BE0BD0205004E1A00E1F5CA6
:100B6800D8A005D018500008A00F1A6E00D018C0E1
:100B780014F0235019241D6E1D04156E18501A24E4
:100B88001E6E1E04166E2350D6EC07F01C50216E04
:100B98001BC022F0828082921AC018F01850D8B474
:100BA80013D001D011D019C023F02350D8B40AD0E3
:100BB80001D008D02150E8EC08F02250E8EC08F009
:100BC8002306F3D71806EAD782821200F2EC08F05F
:100BD800A6EC08F0000E256E000E246ECFEC08F08F
:100BE800AA0E646E000E656E64C011F065C012F046
:100BF800BC0E136EFF0E146E60EC08F0020E396E18
:100C080064C03AF065C03BF0FF0E3D6E3C68000ED4
:100C18003F6E000E3E6E010E406E020E7EEC04F03A
:100C280064C011F065C012F0F60E136EFF0E146E5C
:100C380060EC08F00A0E396E64C03AF065C03BF00B
:100C4800FF0E3D6E3C68000E3F6E000E3E6E010EBC
:100C5800406E320E7EEC04F01200226E800E22608E
:100C68003FD09F0E186401D03BD0FF0E1C6EFF0EC4
:100C78001D6E195018C01EF01F6A1E26000E1F2276
:100C88001C501E261D501F221FBE0BD01F5004E1F2
:100C9800A00E1E5CD8A005D018500008A00F196E31
:100CA80000D01B50206E1AC021F018C014F022C0CA
:100CB80015F0185019241C6E1C04166E2250D6EC20
:100CC80007F08280829207D02050E8EC08F021508B
:100CD800E8EC08F000D019061928D8A4F5D78282C4
:100CE800120000EEAAF01F0EEE6AE806FDE100EE23
:100CF8005AF0130EEE6AE806FDE1B40EF66E0E0E1B
:100D0800F76E000EF86E01EE00F010EE54F00900D8
:100D1800F5CFEEFFE550E150FAE1220EF66E110E26
:100D2800F76E000EF86E00EE80F010EE2AF0090063
:100D3800F5CFEEFFE550E150FAE1BA0EF66E110E6E
:100D4800F76E000EF86E00EE44F010EE16F0090093
:100D5800F5CFEEFFE550E150FAE1000EF86E000124
:100D6800DCEF02F00600EACF06F0E1CF07F0E2CFB1
:100D780008F0D9CF09F0DACF0AF0F3CF0BF0F4CFAF
:100D88000CF0F6CF0DF0F7CF0EF0F8CF0FF0F5CF4F
:100D980010F09EA003D01AEC09F000D0F2A203D004
:100DA800E5EC00F000D010C0F5FF0FC0F8FF0EC052
:100DB800F7FF0DC0F6FF0CC0F4FF0BC0F3FF0AC02D
:100DC800DAFF09C0D9FF08C0E2FF07C0E1FF06C08B
:100DD800EAFF05C0E9FF04C0FBFF03C0FAFF1100EA
:100DE800136E000EAC6E000EAB6E13A002D0AC8872
:100DF80000D013A203D0AC8CAB8C00D013A402D0CB
:100E0800AC8E00D013A602D0AB8802D0AB8A00D03B
:100E180013B8AC849E9813AA02D0AB8600D013AC4A
:100E280002D09D8A01D09D9A9E9A13AE02D09D88C9
:100E380001D09D9811C0AFFF1250B06EAC8AAB8E36
:100E4800949C948EACB8ACBE02D0948C00D01200A6
:100E5800000E166E000E156E13501410D8B421D063
:100E6800010E176E05D0D89013361436172A00D005
:100E780014BE02D0F8D700D0D890153616361350C5
:100E8800115C14501258D8A006D01350115E14509B
:100E9800125A158000D0D89014321332172EECD77E
:100EA80000D015C011F016C012F0120043482D00F2
:100EB80043482B00564C2B00203020000000000037
:100EC800000000000000000000000000000000001A
:100ED800000000000000000000000000000000000A
:100EE80000000000000000000000000000000000FA
:100EF80000000000000000000000000000000000EA
:100F08003F5000083D24186ED8803F34196E41C008
:100F18001AF042C01BF03B5031EC06F03BC023F006
:100F28003CC024F03DC025F03EC026F03FC027F06D
:100F380040C028F0000E2A6E030E296E000E2C6E9B
:100F4800000E2B6E41C02DF042C02EF040EC02F096
:100F5800120017C011F018C012F0000E146EFA0E2D
:100F6800136EBBEC08F011C01BF012C01CF01BC0C4
:100F780019F01CC01AF0191E1A1E194A1A2AFF0E57
:100F880019241B6EFF0E1A201C6EB80EB16E1BC002
:100F9800B2FF1C50B36EA192B18000D0A1A2FED7BF
:100FA800B1901200176E2A0E0BEC09F0000E03EC3C
:100FB80009F017506A2403EC09F0000E03EC09F05D
:100FC80015506A2403EC09F02B0E0BEC09F0000E07
:100FD80003EC09F014506C2403EC09F0000E03EC48
:100FE80009F016506C2403EC09F02C0E0BEC09F0F8
:100FF80012002B6E2BC02CF02D6A0ED023C018F0D7
:1010080025C019F026C01AF027C01BF02C5031EC6F
:1010180006F02C4A2D2A00D024502BC028F0296A2B
:101028002826000E292228502C5C2D50800A2A6E72
:101038002950800A2A58D8A0E1D7120011C015F00B
:1010480012C016F003D0154A162A00D015C0D9FFD1
:1010580016C0DAFFDF50D8A4F6D711C013F012C0BB
:1010680014F0131E141E134A142A15501324116E5B
:1010780016501420126E00D012002A0E0BEC09F044
:10108800000E03EC09F0000E03EC09F0000E03EC6F
:1010980009F07F0E03EC09F02B0E0BEC09F0000EA3
:1010A80003EC09F0000E03EC09F0000E03EC09F064
:1010B8009F0E03EC09F0120011C015F012C016F0D3
:1010C80005D0154A162A134A142A00D013C0F6FF71
:1010D80014C0F7FF15C0D9FF16C0DAFF0800F5CF16
:1010E800DFFFDF50D8A4EDD712001B6E800E1B6007
:1010F80013D09F0E186401D00FD018C014F01B280D
:10110800156E1828166E1B50D6EC07F01A5003EC13
:1011180009F0195003EC09F0120000F80000000073
:1011280000000000000000000000000000000000B7
:1011380000000000000000000000000000000000A7
:101148000000000082828290800EC76E300EC66E4C
:10115800F6EC03F041EC08F003EC05F0360E0BEC6E
:1011680009F0C00E03EC09F0010E686E1200115070
:101178001302F3CF15F0F4CF16F011501402F35008
:10118800162612501302F350162615C011F016C079
:1011980012F000D01200000E186E800E196EA00E0C
:1011A8001A6E24C01BF025C01CF0000E7CEC05F064
:1011B8001200A20000000000000000000000000073
:1011C8000000000000000001126E9E96C9CF11F0C9
:1011D80012C0C9FF00D0C7A0FED712008298000E27
:1011E800186E640E176EADEC07F082881200000EC0
:1011F800126E190E116E3C0EF4EC06F01200136E0E
:10120800829282801350E8EC08F082821200136EFA
:10121800829282901350E8EC08F082821200116EDC
:1012280000D0ACA2FED711C0ADFF1200000E676E51
:10123800F19CCD909E901200000E676ECD9012002A
:10FDD80000000000000000005F00000007000700AE
:10FDE800147F147F14242A7F2A122313086462368E
:10FDF800495620500008070300001C22410000411A
:10FE0800221C002A1C7F1C2A08083E080800807053
:10FE18003000080808080800006060002010080486
:10FE2800023E5149453E00427F40007249494946D9
:10FE38002141494D331814127F1027454545393C57
:10FE48004A49493141211109073649494936464944
:10FE580049291E0000140000004034000000081466
:10FE680022411414141414004122140802015909DF
:10FE7800063E415D594E7C1211127C7F4949493634
:10FE88003E414141227F4141413E7F494949417FAD
:10FE9800090909013E414151737F0808087F004163
:10FEA8007F41002040413F017F081422417F4040AC
:10FEB80040407F021C027F7F0408107F3E41414181
:10FEC8003E7F090909063E4151215E7F09192946ED
:10FED800264949493203017F01033F4040403F1F03
:10FEE8002040201F3F4038403F6314081463030438
:10FEF8007804036159494D43007F41414102040898
:10FF08001020004141417F0402010204404040406A
:10FF180040000307080020545478407F28444438A0
:10FF28003844444428384444287F385454541800EA
:10FF3800087E090218A4A49C787F08040478004469
:10FF48007D40002040403D007F1028440000417F54
:10FF580040007C047804787C0804047838444444DD
:10FF680038FC1824241818242418FC7C08040408D5
:10FF7800485454542404043F44243C4040207C1CEE
:10FF88002040201C3C4030403C44281028444C90E1
:10FF980090907C4464544C4400083641000000773B
:10FFA80000000041360800020102040201001000AE
:10FFB80000010010454345333330314C20537072F3
:10FFC800696E672032312D5331004E45435F436FD0
:10FFD8006465203D2025782025780D0A00303132CF
:10FFE80033343536373839616263646566004C41AD
:08FFF80042203130200000001E
:020000040020DA
:08000000FFFFFFFFFFFFFFFF00
:020000040030CA
:0E000000FF08191EFF8281FF0FC00FE00F40A6
:00000001FF
