:040000000CEF00F011
:10000800FACF03F0FBCF04F0E9CF05F046ED08F096
:10001800C6EF07F0200E316E000E326E3DD1250E70
:100028003618D8B404D036507DEC0AF035D1000E1D
:10003800356E000E346E000E336E05D033841E4AC2
:100048001F2A01D00BD01EC0F6FF1FC0F7FF080003
:10005800F550300AD8B4F2D701D0F5D71EC0F6FF54
:100068001FC0F7FF0800F55012EC0AF0D8A03BD0EB
:10007800000E356E000E346E00D034C011F035C05D
:1000880012F0000E146E0A0E136EFEEC09F011C089
:1000980034F012C035F0D00E266EFF0E276E1EC04B
:1000A800F6FF1FC0F7FF0800F550286E296A265092
:1000B80028262750292228503426295035221E4A1E
:1000C8001F2A1EC0F6FF1FC0F7FF0800F55012ECEC
:1000D8000AF0D8A008D0D1D706D0ECD0338803D006
:1000E80015D0DAD013D01EC0F6FF1FC0F7FF1E4A86
:1000F8001F2A0800F5CF36F03650000AD8B4DAD0F7
:100108006C0AD8B4EBD7140AD8A4C6D033A80ED03A
:1001180031C0D9FF32C0DAFFDECF2DF0DECF2EF0AE
:10012800DECF2FF0DECF30F0040E0FD031C0D9FF74
:1001380032C0DAFFDECF26F0DDCF27F026C02DF063
:1001480027C02EF02F6A306A020E3126000E3222A6
:1001580000D0010E366E080E3618D8B41CD001D067
:100168001AD03650040D9A0EF324F66EFF0EF420C2
:10017800F76E0900F5502D5C0900F5502E5809005E
:10018800F5502F580900F5503058D8A004D001D0A8
:1001980002D0362AE0D7800E36BE7F0E266E345047
:1001A800365C3550800A2658D8B007D03650345EB1
:1001B800000E36BEFF0E355A05D0000E356E000E05
:1001C800346E00D033A410D034503510D8B41CD0BD
:1001D800300E7DEC0AF03406D8A0350634503510C0
:1001E800D8B412D0F5D710D034503510D8B40CD0BC
:1001F800200E7DEC0AF03406D8A0350634503510B0
:10020800D8B402D0F5D700D036502B6E2C6A2BBE4E
:100218002C0638D02DC011F02EC012F02FC013F0CC
:1002280030C014F02BC026F02CC027F0D89026360A
:100238002736D890263627369A0E2624F66EFF0ED5
:100248002720F76E0900F5CF15F00900F5CF16F055
:100258000900F5CF17F00A00F5CF18F03CEC07F0CD
:1002680011500F0B2A6E2A50010DE60EF324F66E7C
:10027800FF0EF420F76E0800F5CF36F036507DEC0F
:100288000AF000D02B06D8A02C062B28C3E12C2876
:10029800D8B402D0BFD700D01EC0F6FF1FC0F7FFEA
:1002A8001E4A1F2A0800F5CF36F03650D8B402D0BF
:1002B800B6D600D0120020C024F021C025F0241E9C
:1002C800251E244A252A010E24242A6E000E2520E4
:1002D8002B6E000E276E010E266E20C024F021C062
:1002E80025F0D89024362536241E251E244A252A92
:1002F80024C028F025C029F0000E2D6E000E2C6EAB
:1003080020C02EF021C02FF01E502024186E22C0CD
:1003180019F023C01AF01C50D1EC09F02050000845
:100328001E24186E22C019F023C01AF01C50D1ECFC
:1003380009F01EC018F022C019F023C01AF01C5092
:100348002024D1EC09F01EC018F022C019F023C0F7
:100358001AF0205000081C24D1EC09F078D02BBEEC
:100368000BD02E06D8A02F06020E2826000E292212
:1003780028502A2629502B222C4A2D2A020E2626BE
:10038800000E272226502A2627502B221E502E24C4
:10039800186E22C019F023C01AF01C502C24D1EC7E
:1003A80009F01E502E24186E22C019F023C01AF02E
:1003B8002C5000081C24D1EC09F02E5000081E24F3
:1003C800186E22C019F023C01AF01C502C24D1EC4E
:1003D80009F02E5000081E24186E22C019F023C000
:1003E8001AF02C5000081C24D1EC09F01E502C24C3
:1003F800186E22C019F023C01AF01C502E24D1EC1C
:1004080009F01E502C24186E22C019F023C01AF0CF
:100418002E5000081C24D1EC09F02C5000081E2492
:10042800186E22C019F023C01AF01C502E24D1ECEB
:1004380009F02C5000081E24186E22C019F023C0A1
:100448001AF02E5000081C24D1EC09F000D02E50D0
:100458002C5C2D50800A246E2F50800A2458D8A076
:100468007ED7120065EC0AF0700ED36EF19E000E76
:10047800926E010E936E000E946E000E956E000E35
:10048800966E0F0EC16EF5EC06F0F292F19CF288B2
:10049800000ECF6E000ECE6E9E909D80F28CF28E76
:1004A800000E666E000E656E000E5D6E000E5E6ECE
:1004B800000E5F6E000E606E00D065046610D8A452
:1004C800FCD7000E666E000E656E5EC069F0BA0E4F
:1004D8001E6EFF0E1F6E5DC020F05EC021F05FC073
:1004E80022F060C023F069C024F0256A0EEC00F009
:1004F800F288F19C4668000E456E000E446E45BEBB
:1005080008D0455017E1150E445CD8B013D001D07F
:1005180011D0470E4424D96E000E4520DA6E69507A
:10052800DE18D8A403D044C046F004D0444A452A73
:10053800E6D700D04628D8B4C0D74650010D950E4E
:10054800F324D96E000EF420DA6EDF50846E465024
:10055800010D800EF324D96E000EF420DA6EDF5000
:10056800436E4650010DAA0EF324D96E000EF420F6
:10057800DA6EDF504310836E000E3C6E3C0E3B6E0D
:10058800000E3E6E500E3D6E000E406E140E3F6E15
:100598004650020D000EF324D96E010EF420DA6ED7
:1005A800DECF41F0DDCF42F0BCEC08F0000E1D6E4E
:1005B8003C0E1C6E000E1F6E500E1E6E000E216E3D
:1005C800140E206EFF0E236E22685FEC01F04D0EB4
:1005D800396E4650040D2A0EF3243A6E010EF420AB
:1005E8003B6EFF0E3D6E3C68000E3F6E000E3E6E89
:1005F800010E406E340E89EC05F05CEC0AF031EC2B
:100608000AF08AEC0AF059D70CEF00F0F2926A501F
:10061800D8B49AD0CE50CFCF01F0026A01C002F010
:10062800016A0110616E0250626E000ECF6E000EFC
:10063800CE6E8AD0000ECF6E000ECE6E9E90900EBB
:10064800CD6ECD80000E6C6E000E5D6E000E5E6E7F
:10065800000E5F6E000E606E010E6A6E73D085D05C
:10066800350E615C210E6258D8A009D01C0E615C61
:10067800250E6258D8B003D0020E6A6E2AD08EECCE
:100688000AF027D026D071D0A10E615C0F0E6258F7
:10069800D8A009D0880E615C130E6258D8B003D078
:1006A800030E6A6E4FD08EEC0AF04CD04BD05DD062
:1006B800900E615C010E6258D8A008D0BD0E615C36
:1006C800020E6258D8B002D0040ED7D78EEC0AF0CA
:1006D80000D0F19C4AD0910E615C010E6258D8A0FE
:1006E8002ED0080E615C070E6258D8B028D0D8907A
:1006F8005D345D6E5E345E6E5F345F6E6034606E76
:10070800E90E615C030E6258D8A00CD0010E5D247E
:100718005D6E000E5E205E6E000E5F205F6E000E46
:100728006020606E6C286C6E1F0E6C64B9D7000E6A
:10073800666E010E656EF298000E6A6EB1D78EEC89
:100748000AF000D0F18C11D06A50000AD8B472D7E0
:10075800010AD8B485D7030AD8B496D7010AD8B401
:10076800A7D7070AD8B4B7D700D01200366E800EC4
:100778003660A6D09F0E2E6401D0A2D03450D8A4E3
:1007880003D0010E346E00D01F0E2F6404D07E0EED
:100798002F6403D000D03F0E2F6E000E386E040E6B
:1007A800386401D08DD0530E2F6015D0E00E2F2461
:1007B800116E126AFF0E1222000E146E050E136ED1
:1007C800FEEC09F038501126000E1222BF0E11243B
:1007D800F66EFD0E14D0AD0E2F24116E126AFF0EA8
:1007E8001222000E146E050E136EFEEC09F038503E
:1007F8001126000E1222BE0E1124F66EFE0E1220D5
:10080800F76E0800F5CF35F000D0000E376E060EF3
:10081800376401D053D035A023D03404D8A40CD0E9
:100828002E503724186E30C019F031C01AF03650E7
:100838003824D1EC09F03ED037503402F3502E243E
:10084800236E34C024F034C025F030C026F031C007
:1008580027F038503402F350362435EC09F02AD00A
:100868003050321804E131503318D8B423D034044E
:10087800D8A40CD02E503724186E32C019F033C0CB
:100888001AF036503824D1EC09F014D0375034021D
:10089800F3502E24236E34C024F034C025F032C027
:1008A80026F033C027F038503402F350362435ECA4
:1008B80009F000D0372AD8903532A9D7382A6FD70F
:1008C800120027C02FF028C030F02F1E301E2F4AEC
:1008D800302A010E2F24356E000E3020366E000EA1
:1008E800326E010E316E27C02FF028C030F0D8903C
:1008F8002F3630362F1E301E2F4A302A2FC033F0A5
:1009080030C034F0000E386E000E376E27C039F054
:1009180028C03AF067D036BE0BD03906D8A03A06C0
:10092800020E3326000E3422335035263450362238
:10093800374A382A020E3126000E32223150352627
:100948003250362229A025D0395000082524186EA7
:10095800395039242B242F6E2F28196E2DC01AF0E8
:100968002EC01BF02350372482EC07F037500008C4
:100978002524186E375037242B242F6E2F28196EF4
:100988002DC01AF02EC01BF02350392482EC07F03A
:1009980000D029A227D0395000082524186E3950D4
:1009A80039242B242F6E2F28196E2DC01AF02EC033
:1009B8001BF037500008232482EC07F0375000085A
:1009C8002524186E375037242B242F6E2F28196EA4
:1009D8002DC01AF02EC01BF039500008232482ECD9
:1009E80007F000D03950375C3850800A2F6E3A50E3
:1009F800800A2F58D8A08FD71200010E75EC0AF084
:100A0800000E186E960E176EE5EC08F0110E75ECD8
:100A18000AF0010E186EF40E176EE5EC08F0B10E30
:100A280075EC0AF0010E6DEC0AF02C0E6DEC0AF074
:100A38002D0E6DEC0AF0B20E75EC0AF0010E6DEC9D
:100A48000AF02C0E6DEC0AF02D0E6DEC0AF0B30EC8
:100A580075EC0AF0010E6DEC0AF02C0E6DEC0AF044
:100A68002D0E6DEC0AF0010E6DEC0AF02C0E6DECFB
:100A78000AF02D0E6DEC0AF0B40E75EC0AF0070EB4
:100A88006DEC0AF0C00E75EC0AF0A20E6DEC0AF0DF
:100A9800020E6DEC0AF0840E6DEC0AF0C10E75ECD6
:100AA8000AF0C50E6DEC0AF0C20E75EC0AF00A0EDB
:100AB8006DEC0AF0000E6DEC0AF0C30E75EC0AF04E
:100AC8008A0E6DEC0AF02A0E6DEC0AF0C40E75EC75
:100AD8000AF08A0E6DEC0AF0EE0E6DEC0AF0C50E07
:100AE80075EC0AF00E0E6DEC0AF0200E75EC0AF0AB
:100AF800360E75EC0AF0C80E6DEC0AF03A0E75EC7D
:100B08000AF0050E6DEC0AF012000001DE6FDEC07F
:100B1800E4F039C0E3F03AC011F03BC012F07AECCF
:100B280009F011C0DFF012C0E0F0000E0001E26F22
:100B3800000EE16F64D05C50D8B434D04050050D3D
:100B48000001E451416E426AF3504126F4504222BA
:100B580042BE28D0425004E1810E415CD8A022D088
:100B6800000E0001E46F4050070DF3500001E3252B
:100B7800030F0001E36FA00E0001E36504D0A00E8F
:100B88000001E36F00D00001E1513A24D96E000161
:100B9800E2513B20DA6E200EDE18D8B42CD002D0F9
:100BA8002AD000D0E3C02EF00001E1513A24D96EDA
:100BB8000001E2513B20DA6EDF502F6E3CC030F06E
:100BC8003DC031F03EC032F03FC033F040C034F099
:100BD8000001E451BAEC03F04050060DF350000157
:100BE800E4250001E46F800E0001E46504D0800E66
:100BF8000001E46F00D00001E14BE22B00D00001BE
:100C0800DF510001E15D0001E0510001E259D8A087
:100C180092D71200E00E75EC0AF0020E6DEC0AF0A5
:100C28001C0E6DEC0AF0070E6DEC0AF0120E6DEC5E
:100C38000AF0370E6DEC0AF0320E6DEC0AF0290E50
:100C48006DEC0AF02D0E6DEC0AF0290E6DEC0AF031
:100C5800250E6DEC0AF02B0E6DEC0AF0390E6DECDA
:100C68000AF0000E6DEC0AF0010E6DEC0AF0030EAE
:100C78006DEC0AF0100E6DEC0AF0E10E75EC0AF05E
:100C8800030E6DEC0AF01D0E6DEC0AF0070E6DEC0C
:100C98000AF0060E6DEC0AF02E0E6DEC0AF02C0E22
:100CA8006DEC0AF0290E6DEC0AF02D0E6DEC0AF0D1
:100CB8002E0E6DEC0AF02E0E6DEC0AF0370E6DEC70
:100CC8000AF03F0E6DEC0AF0000E6DEC0AF0000E13
:100CD8006DEC0AF0020E6DEC0AF0100E6DEC0AF0E5
:100CE800130E75EC0AF0000E186E0A0E176EE5EC7E
:100CF80008F0290E75EC0AF0000E186E640E176ED7
:100D0800E5EC08F01200236E800E236069D09F0E78
:100D1800186401D065D0FF0E1D6EFF0E1E6E1950AF
:100D280023C01FF0206A1F26000E20221D501F26F8
:100D38001E50202220BE0AD0205004E1800E1F5CE5
:100D4800D8A004D023500008800F196EFF0E1D6E26
:100D5800FF0E1E6E1A5018C01FF0206A1F26000EC4
:100D680020221D501F261E50202220BE0BD02050AE
:100D780004E1A00E1F5CD8A005D018500008A00FF1
:100D88001A6E00D018C014F0235019241D6E1D04CB
:100D9800156E18501A241E6E1E04166E23500EEC83
:100DA80009F01C50216E1BC022F0828082921AC06A
:100DB80018F01850D8B413D001D011D019C023F0AE
:100DC8002350D8B40AD001D008D0215049EC0AF0F9
:100DD800225049EC0AF02306F3D71806EAD7828294
:100DE800120053EC0AF0E9EC09F0000E256E000E33
:100DF800246E23EC0AF0BF0E676E000E686E67C0A3
:100E080011F068C012F0D00E136EFF0E146EB8EC1D
:100E180009F0020E396E67C03AF068C03BF0FF0E69
:100E28003D6E3C68000E3F6E000E3E6E010E406E39
:100E3800020E89EC05F067C011F068C012F0F70ED9
:100E4800136EFF0E146EB8EC09F00A0E396E67C007
:100E58003AF068C03BF0FF0E3D6E3C68000E3F6EF6
:100E6800000E3E6E010E406E320E89EC05F0120047
:100E7800000E196E000E1A6E000E1B6E000E1C6E10
:100E88001550161017101810D8B42FD0010E1D6E5B
:100E980007D0D89015361636173618361D2A00D0C2
:100EA80018BE02D0F6D700D0D89019361A361B369D
:100EB8001C361550115C16501258175013581850FC
:100EC8001458D8A00AD01550115E1650125A17504F
:100ED800135A1850145A198000D0D8901832173263
:100EE800163215321D2EE0D700D019C011F01AC0E5
:100EF80012F01BC013F01CC014F01200226E800EFA
:100F080022603FD09F0E186401D03BD0FF0E1C6EAC
:100F1800FF0E1D6E195018C01EF01F6A1E26000E07
:100F28001F221C501E261D501F221FBE0BD01F50F3
:100F380004E1A00E1E5CD8A005D018500008A00F30
:100F4800196E00D01B50206E1AC021F018C014F082
:100F580022C015F0185019241C6E1C04166E22505D
:100F68000EEC09F08280829207D0205049EC0AF0FA
:100F7800215049EC0AF000D019061928D8A4F5D751
:100F88008282120000EEBFF01F0EEE6AE806FDE155
:100F980000EE5DF0130EEE6AE806FDE10E0EF66E49
:100FA800100EF76E000EF86E01EE00F010EE7EF0F7
:100FB8000900F5CFEEFFE550E150FAE1B40EF66E08
:100FC800120EF76E000EF86E00EE80F010EE3FF095
:100FD8000900F5CFEEFFE550E150FAE17C0EF66E20
:100FE800140EF76E000EF86E00EE47F010EE16F0D5
:100FF8000900F5CFEEFFE550E150FAE1000EF86E7A
:10100800000136EF02F000F800F800F8FF07FF07CC
:10101800E0071F001F001FF8FFFFFFFFFFFFFFFF94
:10102800FFFFFFFFFFFFFFFFFFFFFFFFFFFFFFFFC8
:1010380043482D004348200043482B007C3C3C009B
:101048003E3E7C003E7C7C00202D2000202B200092
:10105800455120002030200031303000323030003F
:1010680020312000203220002033200020342000AE
:10107800203520002036200020372000203820008E
:10108800203920000600EACF06F0E1CF07F0E2CFD2
:1010980008F0D9CF09F0DACF0AF0F3CF0BF0F4CF8C
:1010A8000CF0F6CF0DF0F7CF0EF0F8CF0FF0F5CF2C
:1010B80010F09EA003D084EC0AF000D0F2A203D076
:1010C8000AEC03F000D010C0F5FF0FC0F8FF0EC007
:1010D800F7FF0DC0F6FF0CC0F4FF0BC0F3FF0AC00A
:1010E800DAFF09C0D9FF08C0E2FF07C0E1FF06C068
:1010F800EAFF05C0E9FF04C0FBFF03C0FAFF1100C7
:10110800136E000EAC6E000EAB6E13A002D0AC884E
:1011180000D013A203D0AC8CAB8C00D013A402D0A7
:10112800AC8E00D013A602D0AB8802D0AB8A00D018
:1011380013B8AC849E9813AA02D0AB8600D013AC27
:1011480002D09D8A01D09D9A9E9A13AE02D09D88A6
:1011580001D09D9811C0AFFF1250B06EAC8AAB8E13
:10116800949C948EACB8ACBE02D0948C00D0120083
:101178003F5000083D24186ED8803F34196E41C096
:101188001AF042C01BF03B5082EC07F03BC023F042
:101198003CC024F03DC025F03EC026F03FC027F0FB
:1011A80040C028F0000E2A6E030E296E000E2C6E29
:1011B800000E2B6E41C02DF042C02EF065EC04F0FD
:1011C800120017C011F018C012F0000E146EFA0EBB
:1011D800136EFEEC09F011C01BF012C01CF01BC00E
:1011E80019F01CC01AF0191E1A1E194A1A2AFF0EE5
:1011F80019241B6EFF0E1A201C6EB80EB16E1BC090
:10120800B2FF1C50B36EA192B18000D0A1A2FED74C
:10121800B1901200176E2A0E75EC0AF0000E6DECF4
:101228000AF017506D246DEC0AF0000E6DEC0AF010
:1012380015506D246DEC0AF02B0E75EC0AF0000EBB
:101248006DEC0AF014506F246DEC0AF0000E6DEC92
:101258000AF016506F246DEC0AF02C0E75EC0AF0AB
:1012680012002B6E2BC02CF02D6A0ED023C018F064
:1012780025C019F026C01AF027C01BF02C5082ECAC
:1012880007F02C4A2D2A00D024502BC028F0296AB8
:101298002826000E292228502C5C2D50800A2A6E00
:1012A8002950800A2A58D8A0E1D712000101010666
:1012B800060204000000000000000000000000001A
:1012C80000000000000000000405070707070700EA
:1012D8000000000000000000000000000000000006
:1012E80000000000383838383838380011C015F098
:1012F80012C016F003D0154A162A00D015C0D9FF1F
:1013080016C0DAFFDF50D8A4F6D711C013F012C008
:1013180014F0131E141E134A142A15501324116EA8
:1013280016501420126E00D012002A0E75EC0AF026
:10133800000E6DEC0AF0000E6DEC0AF0000E6DEC7C
:101348000AF07F0E6DEC0AF02B0E75EC0AF0000E19
:101358006DEC0AF0000E6DEC0AF0000E6DEC0AF070
:101368009F0E6DEC0AF0120011C015F012C016F0B5
:1013780005D0154A162A134A142A00D013C0F6FFBE
:1013880014C0F7FF15C0D9FF16C0DAFF0800F5CF63
:10139800DFFFDF50D8A4EDD712001B6E800E1B6054
:1013A80013D09F0E186401D00FD018C014F01B285A
:1013B800156E1828166E1B500EEC09F01A506DECBD
:1013C8000AF019506DEC0AF0120082828290800EA9
:1013D800C76E300EC66E01EC05F099EC09F00EEC04
:1013E80006F0360E75EC0AF0C00E6DEC0AF0010E30
:1013F8006B6E120011501302F3CF15F0F4CF16F0F4
:1014080011501402F350162612501302F3501626E8
:1014180015C011F016C012F000D01200136E000EA5
:10142800126E3A0E136006D02F0E136403D0010E0D
:10143800126E00D012C011F0113000D01200000E50
:10144800186E800E196EA00E1A6E24C01BF025C0EF
:101458001CF0000E87EC06F01200020ED56E0B0E83
:10146800D76EDB0ED66EF294D58E00D0F2A4FED7DE
:10147800D59E1200A262E22202C2E0A8906898B04B
:1014880030187A10385A424A5201126E9E96C9CFC5
:1014980011F012C0C9FF00D0C7A0FED71200829871
:1014A800000E186E640E176EE5EC08F082881200C4
:1014B800F90ECB6E050ECA6E4A0EBB6E3C0EBA6EA6
:1014C8001200000E126E190E116E3C0E84EC08F01C
:1014D8001200136E82928280135049EC0AF08282C5
:1014E8001200136E82928290135049EC0AF08282A5
:1014F8001200116E00D0ACA2FED711C0ADFF1200D1
:10150800000E6A6EF19CCD909E901200000EBA6E8D
:0C15180081961200000E6A6ECD90120049
:10FDBE0000000000000000005F00000007000700C8
:10FDCE00147F147F14242A7F2A12231308646236A8
:10FDDE00495620500008070300001C224100004134
:10FDEE00221C002A1C7F1C2A08083E08080080706E
:10FDFE0030000808080808000060600020100804A1
:10FE0E00023E5149453E00427F40007249494946F3
:10FE1E002141494D331814127F1027454545393C71
:10FE2E004A4949314121110907364949493646495E
:10FE3E0049291E0000140000004034000000081480
:10FE4E0022411414141414004122140802015909F9
:10FE5E00063E415D594E7C1211127C7F494949364E
:10FE6E003E414141227F4141413E7F494949417FC7
:10FE7E00090909013E414151737F0808087F00417D
:10FE8E007F41002040413F017F081422417F4040C6
:10FE9E0040407F021C027F7F0408107F3E4141419B
:10FEAE003E7F090909063E4151215E7F0919294607
:10FEBE00264949493203017F01033F4040403F1F1D
:10FECE002040201F3F4038403F6314081463030452
:10FEDE007804036159494D43007F414141020408B2
:10FEEE001020004141417F04020102044040404085
:10FEFE0040000307080020545478407F28444438BB
:10FF0E003844444428384444287F38545454180004
:10FF1E00087E090218A4A49C787F08040478004483
:10FF2E007D40002040403D007F1028440000417F6E
:10FF3E0040007C047804787C0804047838444444F7
:10FF4E0038FC1824241818242418FC7C08040408EF
:10FF5E00485454542404043F44243C4040207C1C08
:10FF6E002040201C3C4030403C44281028444C90FB
:10FF7E0090907C4464544C44000836410000007755
:10FF8E0000000041360800020102040201000000D8
:10FF9E001000000000010000001000000000010031
:10FFAE000000100000000001000000104E45435FED
:10FFBE00436F6465203D202530386C782025780D00
:10FFCE000A00454345333330314C20537072696E0D
:10FFDE00672032312D5331003031323334353637DC
:10FFEE003839616263646566004C414220313020CD
:02FFFE00000001
:020000040020DA
:08000000FFFFFFFFFFFFFFFF00
:020000040030CA
:0E000000FF08191EFF8281FF0FC00FE00F40A6
:00000001FF
