:040000000CEF00F011
:10000800FACF01F0FBCF02F0E9CF03F0FFED18F0D3
:10001800CBEF1AF0500E0001DA6F000E0001DB6F13
:10002800F9D3250E0001ED19D8B405D00001ED5122
:100038000BEC1EF0EFD3000E0001DD6F000EDC6F3D
:1000480006D0F8D30001DD8519D0E4D317D04EC00F
:10005800F6FF4FC0F7FF4E4A4F2A0800F5CFEDF0E4
:100068000001ED51000AD8B4E5D3640AD8B406D02B
:10007800020AD8B4E7D70F0AD8A4CCD3070E0001D8
:10008800DD15D8B414D3000E0001DF6F060EDE6F45
:10009800DAC0D9FFDBC0DAFFDECFEAF0DECFEBF063
:1000A800DDCFECF0030E0001DA27000EDB230001A0
:1000B800ECAF12D0EAC00FF0EBC010F0ECC011F0BA
:1000C80067EC1DF00FC0EAF010C0EBF011C0ECF0C7
:1000D800030E0001DC1300D0000E0001E56F000ED6
:1000E800E46F0001EA510001EB110001EC11D8B4F2
:1000F8008DD0820E536EFF0E546EEAC055F0EBC0E1
:1001080056F0ECC057F0EDC058F0100E05D0D8905E
:100118005832573256325532E82EF9D755505324B3
:100128000001E46F000E54200001E56F0001E407B0
:10013800D8A0E507E4C01DF0E5C01EF0000E206E53
:10014800030E1F6E40EC1DF01DC0E4F01EC0E5F06C
:10015800E4C015F0E5C016F0000E186E0A0E176E12
:10016800E6EC17F015C0E4F016C0E5F00001E5AFC5
:1001780005D00001E407D8A0E50700D00001E4514C
:100188000008AEEC07F032C0E6F033C0E7F034C048
:10019800E8F0E6C023F0E7C024F0E8C025F0EAC0A4
:1001A80026F0EBC027F0ECC028F0E6EC12F023C0F4
:1001B800E6F024C0E7F025C0E8F0E6C00FF0E7C09D
:1001C80010F0E8C011F0000E126E800E136E3F0E94
:1001D800146E9BEC17F0D8B005D00001E407D8A046
:1001E800E50714D0E6C00FF0E7C010F0E8C011F042
:1001F800000E126E200E136E410E146E9BEC17F05B
:10020800D8A004D00001E44BE52B00D00001DFBFEB
:1002180008D00001DF511EE10D0E0001DE5DD8B0EF
:1002280019D0EAC03CF0EBC03DF0ECC03EF0000154
:10023800DE514FEC0BF032C03FF033C040F034C019
:1002480041F08AEC0DF03CC0EAF03DC0EBF03EC056
:10025800ECF000D00001E5BF08D00001E55128E12D
:100268000A0E0001E45DD8B023D00001EA51000174
:10027800EB110001EC11D8B477D0EAC039F0EBC02B
:100288003AF0ECC03BF052EC14F039503A103B1005
:100298003C10D8A469D00001E5BF66D00001E55143
:1002A80007E1020E0001E45DD8B002D05DD000D0B5
:1002B800E6C00FF0E7C010F0E8C011F0700E126E43
:1002C800890E136E400E146E9BEC17F0D8B003D055
:1002D8000001F70E02D00001F80EE427FF0EE52317
:1002E80000D00001E451AEEC07F032C0E6F033C0B4
:1002F800E7F034C0E8F017D0EAC00FF0EBC010F018
:10030800ECC011F0E6C012F0E7C013F0E8C014F03A
:1003180061EC12F00FC0E0F010C0E1F011C0E2F0A3
:1003280012C0E3F017D0EAC00FF0EBC010F0ECC039
:1003380011F0E6C012F0E7C013F0E8C014F051EC79
:1003480011F00FC0E0F010C0E1F011C0E2F012C0EF
:10035800E3F000D0000E0001EA6F000E0001EB6F21
:10036800000E0001EC6F34D0EAC039F0EBC03AF06F
:10037800ECC03BF052EC14F039C0E0F03AC0E1F0C8
:100388003BC0E2F03CC0E3F0EAC048F0EBC049F003
:10039800ECC04AF0E0C017F0E1C018F0E2C019F074
:1003A800E3C01AF09BEC1AF017C04BF018C04CF0E1
:1003B80019C04DF0BDEC1BF048C0EAF049C0EBF0A5
:1003C8004AC0ECF0000E0001E56F000EE46F00D0AB
:1003D800010E0001ED6F0A0E0001ED19D8B422D00C
:1003E80001D020D00001ED51040D0E0EF324F66E5D
:1003F800FF0EF420F76E0900F5500001E05D0900DA
:10040800F5500001E1590900F5500001E2590900D1
:10041800F5500001E359D8A005D001D003D0000160
:10042800ED2BD9D7030E0001DC15536E000E000129
:10043800DD15546E53505410D8B44BD02D0E0BEC20
:100448001EF047D0E0C00FF0E1C010F0E2C011F09C
:10045800E3C012F00001ED51040D0E0EF324F66E08
:10046800FF0EF420F76E0900F5CF13F00900F5CF61
:1004780014F00900F5CF15F00A00F5CF16F031ECAD
:1004880018F00FC0E6F010C0E7F011C0E8F012C095
:10049800E9F0E6C01CF0E7C01DF0E8C01EF0E9C0B6
:1004A8001FF00A0E206E000E216E000E226E000E46
:1004B800236EC4EC19F01CC0E6F01DC0E7F01EC0A6
:1004C800E8F01FC0E9F00001E651300F0BEC1EF018
:1004D80000D00001ED070001ED29D8B40AD0B2D749
:1004E80008D0300E0BEC1EF00001E407D8A0E50799
:1004F80000D00001E5BF07D00001E551F2E100019D
:10050800E405D8B0EED70001DFBF0CD00001DF5101
:1005180005E1090E0001DE5DD8A004D0080E000137
:10052800ED6F03D0DEC0EDF000D00001ED51000109
:10053800DE5F000E0001EDBFFF0E0001DF5B000172
:10054800ED510001D8B404D02E0E0BEC1EF000D0F3
:100558000001ED51AEEC07F032C0D7F033C0D8F04F
:1005680034C0D9F0EAC026F0EBC027F0ECC028F080
:10057800D7C023F0D8C024F0D9C025F0E6EC12F09B
:1005880023C039F024C03AF025C03BF052EC14F0F7
:1005980039C0E0F03AC0E1F03BC0E2F03CC0E3F023
:1005A8006ED0E0C00FF0E1C010F0E2C011F0E3C07F
:1005B80012F00001ED51040D0E0EF324F66EFF0E3D
:1005C800F420F76E0900F5CF13F00900F5CF14F009
:1005D8000900F5CF15F00A00F5CF16F031EC18F048
:1005E8000FC0E6F010C0E7F011C0E8F012C0E9F063
:1005F800E6C01CF0E7C01DF0E8C01EF0E9C01FF01F
:100608000A0E206E000E216E000E226E000E236E62
:10061800C4EC19F01CC0E6F01DC0E7F01EC0E8F0FD
:100628001FC0E9F00001E651300F0BEC1EF0E0C0EE
:100638001CF0E1C01DF0E2C01EF0E3C01FF0000195
:10064800ED51040D0E0EF324F66EFF0EF420F76E36
:100658000900F5CF20F00900F5CF21F00900F5CF0A
:1006680022F00A00F5CF23F0C4EC19F01CC0E0F02A
:100678001DC0E1F01EC0E2F01FC0E3F000D0000191
:10068800ED070001ED29D8B40AD08BD708D0300E79
:100698000BEC1EF00001DE07D8A0DF0700D0000138
:1006A800DE510001DF11D8B4B5D0F1D7B3D0DAC02C
:1006B800D9FFDBC0DAFFDECFE0F0DDCFE1F00001EB
:1006C800000EE1BFFF0EE26FE36F020E0001DA27B2
:1006D800000EDB230001E3AF0DD0030E0001DC1395
:1006E8000001E31FE21FE11FE06D000EE123E2239A
:1006F800E32300D0010E0001ED6F0A0E0001ED1991
:10070800D8B422D001D020D00001ED51040D0E0E36
:10071800F324F66EFF0EF420F76E0900F550000181
:10072800E05D0900F5500001E1590900F5500001AC
:10073800E2590900F5500001E359D8A005D001D0CD
:1007480003D00001ED2BD9D7030E0001DC15536E41
:10075800000E0001DD15546E53505410D8B404D067
:100768002D0E0BEC1EF000D00001ED510001DE6FE4
:10077800DF6BDEBFDF0741D0DEC053F0DFC054F0CF
:10078800D89053365436D890533654360E0E5324D8
:10079800F66EFF0E5420F76E0900F5CF13F009002E
:1007A800F5CF14F00900F5CF15F00A00F5CF16F0D3
:1007B800E0C00FF0E1C010F0E2C011F0E3C012F0A9
:1007C80031EC18F00FC01CF010C01DF011C01EF065
:1007D80012C01FF00A0E206E000E216E000E226E4F
:1007E800000E236EC4EC19F01C50300F0001ED6FA1
:1007F8000001ED510BEC1EF000D00001DE07D8A07F
:10080800DF070001DE29B8E10001DF29D8B402D0F2
:10081800B3D700D04EC0F6FF4FC0F7FF4E4A4F2A5D
:100828000800F5CFEDF00001ED51D8B403D015EF75
:1008380000F000D01200E9EC1DF02BEC1DF0000ECA
:10084800236E000E226E8AEC1DF0B80E5B6E000E51
:100858005C6E5BC00FF05CC010F0990E116EFF0E5D
:10086800126EE4EC1CF0020E376E5BC038F05CC010
:1008780039F0FF0E3B6E3A68000E3D6E000E3C6E7E
:10088800010E3E6E020E36EC15F05BC00FF05CC038
:1008980010F0E10E116EFF0E126EE4EC1CF00A0E61
:1008A800376E5BC038F05CC039F0FF0E3B6E3A68BB
:1008B800000E3D6E000E3C6E010E3E6E020E36ECD2
:1008C80015F00A0E376E9C0E386E000E396EFF0E4C
:1008D8003B6E3A68000E3D6E000E3C6E010E3E6E99
:1008E800230E36EC15F05BC00FF05CC010F0E70E7D
:1008F800116EFF0E126EE4EC1CF00A0E376E5BC030
:1009080038F05CC039F0FF0E3B6E3A68000E3D6E61
:10091800000E3C6E010E3E6E320E36EC15F00A0EDD
:10092800376E9E0E386E000E396EFF0E3B6E3A68BB
:10093800000E3D6E000E3C6E010E3E6E460E36EC0D
:1009480015F05BC00FF05CC010F0EB0E116EFF0EDF
:10095800126EE4EC1CF00A0E376E5BC038F05CC017
:1009680039F0FF0E3B6E3A68000E3D6E000E3C6E8D
:10097800010E3E6E500E36EC15F00A0E376EA00EC4
:10098800386E000E396EFF0E3B6E3A68000E3D6EF3
:10099800000E3C6E010E3E6E640E36EC15F05BC028
:1009A8000FF05CC010F0FC0E116EFF0E126EE4EC3E
:1009B8001CF00A0E376E5BC038F05CC039F0FF0ED1
:1009C8003B6E3A68000E3D6E000E3C6E010E3E6EA8
:1009D800780E36EC15F05BC00FF05CC010F0C90E55
:1009E800116EFF0E126EE4EC1CF0140E376E5BC035
:1009F80038F05CC039F0070E3B6E3A68000E3D6E69
:100A0800000E3C6E010E3E6E1E0E36EC15F0000E0A
:100A1800226E1E0E216E000E246E1B0E236E000E1B
:100A2800266E3C0E256E000E286E120E276E070EDF
:100A38002A6E296868EC1AF0000E3A6E280E396E94
:100A4800000E3C6E230E3B6E000E3E6E070E3D6E92
:100A5800F80E406E000E3F6E48EC1BF0000E1B6E49
:100A68003C0E1A6E000E1D6E230E1C6E000E1F6EBD
:100A7800070E1E6EFF0E216EE00E206E6CEC0EF05F
:100A8800000E1B6E500E1A6E000E1D6E230E1C6E8D
:100A9800000E1F6E070E1E6E070E216EE00E206EF2
:100AA8006CEC0EF01E0E376E8D0E386E000E396E21
:100AB800070E3B6E3A68000E3D6E000E3C6E020E4D
:100AC8003E6E640E36EC15F05BC00FF05CC010F0A3
:100AD800DA0E116EFF0E126EE4EC1CF0320E376E59
:100AE8005BC038F05CC039F0FF0E3B6E3A68000E10
:100AF8003D6E000E3C6E010E3E6E1E0E36EC15F07D
:100B0800000E226E1E0E216E000E246E390E236E0C
:100B1800000E266E3C0E256E000E286E120E276EF5
:100B2800FF0E2A6E296868EC1AF0000E3A6E280E3D
:100B3800396E000E3C6E410E3B6E000E3E6E070E87
:100B48003D6EF80E406E000E3F6E48EC1BF0000E36
:100B58001B6E3C0E1A6E000E1D6E410E1C6E000EB2
:100B68001F6E070E1E6EFF0E216EE00E206E6CECDF
:100B78000EF0000E1B6E500E1A6E000E1D6E410E0A
:100B88001C6E000E1F6E070E1E6E070E216EE00E05
:100B9800206E6CEC0EF03C0E376E8A0E386E000E2E
:100BA800396EFF0E3B6E3A68000E3D6E000E3C6ECD
:100BB800020E3E6E640E36EC15F05BC00FF05CC0A2
:100BC80010F0BD0E116EFF0E126EE4EC1CF0500E0C
:100BD800376E5BC038F05CC039F0000E3B6E1F0EFC
:100BE8003A6E000E3D6E000E3C6E010E3E6E1E0EFD
:100BF80036EC15F0000E226E1E0E216E000E246ECD
:100C0800570E236E000E266E3C0E256E000E286EC3
:100C1800120E276E000E2A6E1F0E296E68EC1AF04F
:100C2800000E1B6E280E1A6E000E1D6E5F0E1C6ED7
:100C3800000E1F6E070E1E6EF80E216E000E206E3F
:100C48006CEC0EF0000E1B6E3C0E1A6E000E1D6E44
:100C58005F0E1C6E000E1F6E070E1E6EFF0E216EBD
:100C6800E00E206E6CEC0EF0000E3A6E500E396EEF
:100C7800000E3C6E5F0E3B6E000E3E6E070E3D6E24
:100C8800070E406EE00E3F6E48EC1BF05A0E376EB2
:100C9800930E386E000E396E000E3B6E1F0E3A6EC4
:100CA800000E3D6E000E3C6E020E3E6E640E36EC7B
:100CB80015F05BC00FF05CC010F0D30E116EFF0E84
:100CC800126EE4EC1CF06E0E376E5BC038F05CC040
:100CD80039F0F80E3B6E1F0E3A6E000E3D6E000E98
:100CE8003C6E010E3E6E1E0E36EC15F0000E226EA6
:100CF8001E0E216E000E246E750E236E000E266EDB
:100D08003C0E256E000E286E120E276EF80E2A6E07
:100D18001F0E296E68EC1AF0000E3A6E280E396E16
:100D2800000E3C6E7D0E3B6E000E3E6E070E3D6E55
:100D3800F80E406E000E3F6E48EC1BF0000E1B6E66
:100D48003C0E1A6E000E1D6E7D0E1C6E000E1F6E80
:100D5800070E1E6EFF0E216EE00E206E6CEC0EF07C
:100D6800000E1B6E500E1A6E000E1D6E7D0E1C6E50
:100D7800000E1F6E070E1E6E070E216EE00E206E0F
:100D88006CEC0EF0780E376E900E386E000E396EE1
:100D9800F80E3B6E1F0E3A6E000E3D6E000E3C6E56
:100DA800020E3E6E640E36EC15F01E0E376E960E71
:100DB800386E000E396E070E3B6E3A68000E3D6EB7
:100DC800000E3C6E020E3E6E020E36EC15F05BC055
:100DD8000FF05CC010F0F30E116EFF0E126EE4EC13
:100DE8001CF0140E376E5BC038F05CC039F0070E8B
:100DF8003B6E3A68000E3D6E000E3C6E010E3E6E74
:100E0800030E36EC15F05BC00FF05CC010F0EF0E6F
:100E1800116EFF0E126EE4EC1CF0500E376E5BC0C4
:100E280038F05CC039F0000E3B6E1F0E3A6E000EB3
:100E38003D6E000E3C6E010E3E6E030E36EC15F054
:100E48005A0E376E990E386E000E396E000E3B6ED4
:100E58001F0E3A6E000E3D6E000E3C6E020E3E6E88
:100E6800020E36EC15F05BC00FF05CC010F0840E7B
:100E7800116EFF0E126EE4EC1CF08C0E376E5BC028
:100E880038F05CC039F0FF0E3B6E3A68000E3D6EDC
:100E9800000E3C6E010E3E6E010E36EC15F0950EFE
:100EA800376EA40E386E000E396EFF0E3B6E3A6830
:100EB800000E3D6E000E3C6E010E3E6E060E36ECC8
:100EC80015F0950E376EA20E386E000E396EFF0EB5
:100ED8003B6E3A68000E3D6E000E3C6E010E3E6E93
:100EE800200E36EC15F0950E376EAA0E386E000EF1
:100EF800396EFF0E3B6E3A68000E3D6E000E3C6E7A
:100F0800010E3E6E3A0E36EC15F0950E376EA80EB1
:100F1800386E000E396EFF0E3B6E3A68000E3D6E5D
:100F2800000E3C6E010E3E6E570E36EC15F0950E17
:100F3800376EA60E386E000E396EFF0E3B6E3A689D
:100F4800000E3D6E000E3C6E010E3E6E700E36ECCD
:100F580015F01200386E38AEEFD0386C3850800A71
:100F6800120FD8A08DD0000E206E030E1F6E000E3B
:100F7800186E0A0E176E000E126E640E116E38503F
:100F88000F6E106A0FBE100683EC19F00FC015F033
:100F980010C016F0E6EC17F0090E15241D6E000EB1
:100FA80016201E6E40EC1DF0360E1D24F66EFF0E48
:100FB8001E20F76E0900F5CF26F00900F5CF27F0BF
:100FC8000A00F5CF28F0000E186E640E176E385020
:100FD800156E166A15BE1606E6EC17F0120E1524E5
:100FE8001D6E000E16201E6E000E206E030E1F6E64
:100FF80040EC1DF0360E1D24F66EFF0E1E20F76E17
:101008000900F5CF23F00900F5CF24F00A00F5CF49
:1010180025F0E6EC12F023C035F024C036F025C0E8
:1010280037F035C023F036C024F037C025F0000E65
:10103800206E030E1F6E000E126E0A0E116E3850CF
:101048000F6E106A0FBE100683EC19F00FC01DF06A
:1010580010C01EF040EC1DF0360E1D24F66EFF0E7B
:101068001E20F76E0900F5CF26F00900F5CF27F00E
:101078000A00F5CF28F0E6EC12F041D15AD154D04D
:101088003850800A750FD8A04FD0000E186E0A0E7F
:10109800176E3850156E166A15BE1606E6EC17F070
:1010A800090E15241D6E000E16201E6E000E206EF1
:1010B800030E1F6E40EC1DF0360E1D24F66EFF0E5B
:1010C8001E20F76E0900F5CF23F00900F5CF24F0B4
:1010D8000A00F5CF25F0000E206E030E1F6E000EDD
:1010E800126E0A0E116E38500F6E106A0FBE10067F
:1010F80083EC19F00FC01DF010C01EF040EC1DF07D
:10110800360E1D24F66EFF0E1E20F76E0900F5CF71
:1011180026F00900F5CF27F00A00F5CF28F0E6EC15
:1011280012F0EDD006D100D03850030D360EF3245E
:10113800F66EFF0EF2D0FDD03850800A120FD8A0FC
:101148008DD0000E206E030E1F6E000E186E0A0E54
:10115800176E000E126E640E116E38500F6E106A04
:101168000FBE100683EC19F00FC015F010C016F072
:10117800E6EC17F0090E15241D6E000E16201E6EE3
:1011880040EC1DF05D0E1D24F66EFF0E1E20F76E5E
:101198000900F5CF26F00900F5CF27F00A00F5CFB2
:1011A80028F0000E186E640E176E3850156E166A09
:1011B80015BE1606E6EC17F0120E15241D6E000E6D
:1011C80016201E6E000E206E030E1F6E40EC1DF0E2
:1011D8005D0E1D24F66EFF0E1E20F76E0900F5CF7A
:1011E80023F00900F5CF24F00A00F5CF25F0E6EC4E
:1011F80012F023C035F024C036F025C037F035C0D2
:1012080023F036C024F037C025F0000E206E030E00
:101218001F6E000E126E0A0E116E38500F6E106A95
:101228000FBE100683EC19F00FC01DF010C01EF0A1
:1012380040EC1DF05D0E1D24F66EFF0E1E20F76EAD
:101248000900F5CF26F00900F5CF27F00A00F5CF01
:1012580028F0E6EC12F053D06CD059D03850800A00
:10126800750FD8A054D0000E186E0A0E176E38509D
:10127800156E166A15BE1606E6EC17F0090E15244B
:101288001D6E000E16201E6E000E206E030E1F6EC1
:1012980040EC1DF05D0E1D24F66EFF0E1E20F76E4D
:1012A8000900F5CF23F00900F5CF24F00A00F5CFA7
:1012B80025F0000E206E030E1F6E000E126E0A0E31
:1012C800116E38500F6E106A0FBE100683EC19F0BD
:1012D8000FC01DF010C01EF040EC1DF05D0E1D2467
:1012E800F66EFF0E1E20F76E0900F5CF26F00900F6
:1012F800F5CF27F00A00F5CF28F0E6EC12F023C06E
:1013080032F024C033F025C034F013D000D0385068
:10131800030D5D0EF324F66EFF0EF420F76E090040
:10132800F5CF32F00900F5CF33F00A00F5CF34F0ED
:1013380000D01200426E42501E0DF350230F436E30
:101348004150D8A467D0000E3A6E280E396E43C0BB
:101358003BF03C6A000E3E6E070E3D6E000E406E7E
:10136800000E3F6E48EC1BF0000E3A6E3C0E396ED4
:1013780043C03BF03C6A000E3E6E070E3D6E000E09
:10138800406E000E3F6E48EC1BF0000E3A6E500E99
:10139800396E43C03BF03C6A000E3E6E070E3D6E50
:1013A800000E406E000E3F6E48EC1BF0000E1B6EE8
:1013B800280E1A6E43C01CF01D6A000E1F6E070E21
:1013C8001E6EF80E216E000E206E6CEC0EF0000EF4
:1013D8001B6E3C0E1A6E43C01CF01D6A000E1F6E79
:1013E800070E1E6EFF0E216EE00E206E6CEC0EF0E6
:1013F800000E1B6E500E1A6E43C01CF01D6A000EC4
:101408001F6E070E1E6E070E216EE00E206E6CEC2E
:101418000EF000D04104D8A467D0000E3A6E280E12
:10142800396E43C03BF03C6A000E3E6E070E3D6EBF
:10143800F80E406E000E3F6E48EC1BF0000E3A6E40
:101448003C0E396E43C03BF03C6A000E3E6E070E00
:101458003D6E000E406E000E3F6E48EC1BF0000E15
:101468003A6E500E396E43C03BF03C6A000E3E6E39
:10147800070E3D6E000E406E000E3F6E48EC1BF0EE
:10148800000E1B6E280E1A6E43C01CF01D6A000E5B
:101498001F6E070E1E6EF80E216E000E206E6CEC8D
:1014A8000EF0000E1B6E3C0E1A6E43C01CF01D6A37
:1014B800000E1F6E070E1E6EFF0E216EE00E206ED0
:1014C8006CEC0EF0000E1B6E500E1A6E43C01CF032
:1014D8001D6A000E1F6E070E1E6E070E216EE00EAF
:1014E800206E6CEC0EF000D0030E4118D8A467D023
:1014F800000E3A6E280E396E43C03BF03C6A000E6F
:101508003E6E070E3D6E000E406E000E3F6E48ECBC
:101518001BF0000E3A6E3C0E396E43C03BF03C6A3D
:10152800000E3E6E070E3D6EFF0E406EE00E3F6EE3
:1015380048EC1BF0000E3A6E500E396E43C03BF07B
:101548003C6A000E3E6E070E3D6E000E406E000EA9
:101558003F6E48EC1BF0000E1B6E280E1A6E43C03F
:101568001CF01D6A000E1F6E070E1E6EF80E216E0F
:10157800000E206E6CEC0EF0000E1B6E3C0E1A6E08
:1015880043C01CF01D6A000E1F6E070E1E6EFF0E74
:10159800216EE00E206E6CEC0EF0000E1B6E500EED
:1015A8001A6E43C01CF01D6A000E1F6E070E1E6ED9
:1015B800070E216EE00E206E6CEC0EF000D0020ECD
:1015C8004118D8A467D0000E3A6E280E396E43C071
:1015D8003BF03C6A000E3E6E070E3D6E000E406EFC
:1015E800000E3F6E48EC1BF0000E3A6E3C0E396E52
:1015F80043C03BF03C6A000E3E6E070E3D6E000E87
:10160800406E000E3F6E48EC1BF0000E3A6E500E16
:10161800396E43C03BF03C6A000E3E6E070E3D6ECD
:10162800070E406EE00E3F6E48EC1BF0000E1B6E7E
:10163800280E1A6E43C01CF01D6A000E1F6E070E9E
:101648001E6EF80E216E000E206E6CEC0EF0000E71
:101658001B6E3C0E1A6E43C01CF01D6A000E1F6EF6
:10166800070E1E6EFF0E216EE00E206E6CEC0EF063
:10167800000E1B6E500E1A6E43C01CF01D6A000E41
:101688001F6E070E1E6E070E216EE00E206E6CECAC
:101698000EF000D012003B6E6D0E3B649BD0000E26
:1016A800206E030E1F6E000E186E0A0E176E000EC7
:1016B800126E640E116E3BC00FF0106A83EC19F0C5
:1016C8000FC015F010C016F0E6EC17F0090E15243F
:1016D8001D6E000E16201E6E40EC1DF0360E1D24E9
:1016E800F66EFF0E1E20F76E0900F5CF26F00900F2
:1016F800F5CF27F00A00F5CF28F0000E186E640E1B
:10170800176E3BC015F0166AE6EC17F0120E15249A
:101718001D6E000E16201E6E000E206E030E1F6E2C
:1017280040EC1DF0360E1D24F66EFF0E1E20F76EDF
:101738000900F5CF23F00900F5CF24F00A00F5CF12
:1017480025F0E6EC12F023C038F024C039F025C0AB
:101758003AF0000E206E030E1F6E000E126E0A0E77
:10176800116E3BC00FF0106A83EC19F00FC01DF02A
:1017780010C01EF040EC1DF0360E1D24F66EFF0E54
:101788001E20F76E0900F5CF26F00900F5CF27F0E7
:101798000A00F5CF28F038C023F039C024F03AC049
:1017A80025F0E6EC12F023C035F024C036F025C051
:1017B80037F035C023F036C024F037C025F0000ECE
:1017C800266E000E276E3F0E286EE6EC12F07DD0D6
:1017D80083D062D00A0E3B645FD0000E206E030EE9
:1017E8001F6E000E126E0A0E116E3BC00FF0106ACB
:1017F80083EC19F00FC01DF010C01EF040EC1DF076
:10180800360E1D24F66EFF0E1E20F76E0900F5CF6A
:1018180026F00900F5CF27F00A00F5CF28F0000ED2
:10182800186E0A0E176E3BC015F0166AE6EC17F034
:10183800090E15241D6E000E16201E6E000E206E59
:10184800030E1F6E40EC1DF0360E1D24F66EFF0EC3
:101858001E20F76E0900F5CF23F00900F5CF24F01C
:101868000A00F5CF25F0E6EC12F023C038F024C0CA
:1018780039F025C03AF038C023F039C024F03AC016
:1018880025F0000E266E000E276E3F0E286EE6EC41
:1018980012F01BD021D000D03B50030D360EF3249C
:1018A800F66EFF0EF420F76E0900F5CF23F009005D
:1018B800F5CF24F00A00F5CF25F0000E266E000EB5
:1018C800276E3F0E286EE6EC12F023C032F024C0DB
:1018D80033F025C034F000D0120054EC1DF00FC0D6
:1018E80048F010C049F048C01DF049C01EF0000E75
:1018F800206E050E1F6E40EC1DF01DC023F01EC0AB
:1019080024F0C6EC1CF023C027F024C028F025C022
:1019180029F0000E2A6E800E2B6E440E2C6EC5EC3C
:1019280014F027C0ACF028C0ADF029C0AEF0ACC0B0
:101938000FF0ADC010F0AEC011F0000E126E600EC8
:10194800136E400E146E9BEC17F0D8B002D0010E47
:1019580001D0000E636E5DC062F0000E81BA010E08
:10196800616E60C0B6F0000E81B8010E0001B56F5F
:101978006250D8A402D0300E01D0310E0001A46FFD
:101988006150D8A402D0300E01D0310E0001A26FF0
:101998000001B6510001D8A402D0300E01D0310E9A
:1019A8000001AA6F0001B5510001D8A402D0300E81
:1019B80001D0310E0001A86F5F50D8A402D0300EBC
:1019C80001D0310E00019E6F5E50D8A402D0300EB7
:1019D80001D0310E0001A06F6350D8A402D04E0E82
:1019E80001D0440E0001A66F00D00A0E376E9C0E7F
:1019F800386E000E396EFF0E3B6E3A68000E3D6E73
:101A0800000E3C6E010E3E6E230E36EC15F0950E60
:101A1800376EA40E386E000E396EFF0E3B6E3A68B4
:101A2800000E3D6E000E3C6E010E3E6E060E36EC4C
:101A380015F0950E376EA20E386E000E396EFF0E39
:101A48003B6E3A68000E3D6E000E3C6E010E3E6E17
:101A5800200E36EC15F0950E376EAA0E386E000E75
:101A6800396EFF0E3B6E3A68000E3D6E000E3C6EFE
:101A7800010E3E6E3A0E36EC15F0950E376EA80E36
:101A8800386E000E396EFF0E3B6E3A68000E3D6EE2
:101A9800000E3C6E010E3E6E570E36EC15F00A0E27
:101AA800376E9E0E386E000E396EFF0E3B6E3A682A
:101AB800000E3D6E000E3C6E010E3E6E460E36EC7C
:101AC80015F00A0E376EA00E386E000E396EFF0E36
:101AD8003B6E3A68000E3D6E000E3C6E010E3E6E87
:101AE800640E36EC15F0950E376EA60E386E000EA5
:101AF800396EFF0E3B6E3A68000E3D6E000E3C6E6E
:101B0800010E3E6E700E36EC15F012003EC042F02B
:101B1800436A446A3D34423601E343804250476E8B
:101B280041C042F0436A446A4034423601E343808C
:101B38004250466E4750D8B40BD04650475CD8B098
:101B48000ED0475000084624426E180E426407D053
:101B58003FC03CF040C03DF041C03EF0B8D04650D8
:101B6800D8B40BD04750465CD8B00ED046500008C9
:101B78004724426E180E426407D03CC03CF03DC07A
:101B88003DF03EC03EF0A3D0060E456E3EAE02D0FC
:101B9800458E00D041BE458C3D8EFF0E3C16FF0E93
:101BA8003D16000E3E16408EFF0E3F16FF0E4016E5
:101BB800000E41164650475CD8B01ED0D8903F362C
:101BC80040364136460647504618D8B40FD0450629
:101BD80045C042F0070E4216D8B408D0EFD706D059
:101BE800D8903E323D323C32472A00D04650471802
:101BF800D8B424D0F5D722D04750465CD8B01ED0F0
:101C0800D8903C363D363E36470647504618D8B43D
:101C18000FD0450645C042F0070E4216D8B408D08A
:101C2800EFD706D0D890413240323F32462A00D012
:101C380046504718D8B402D0F5D700D045AE0CD0DE
:101C4800FF0E3C1AFF0E3D1AFF0E3E1A010E3C26EF
:101C5800000E3D22000E3E2245AC0DD0FF0E3F1A6D
:101C6800FF0E401AFF0E411A010E3F26000E4022B9
:101C7800000E412200D0000E456E3C503F263D50DC
:101C880040223E50412241AE0FD0FF0E3F1AFF0EB8
:101C9800401AFF0E411A010E3F26000E4022000E88
:101CA8004122010E456E00D03FC00FF040C010F039
:101CB80041C011F047C012F045C013F0E3EC16F034
:101CC8000FC03CF010C03DF011C03EF000D0120033
:101CD8001EC022F01FC023F0221E231E224A232AE0
:101CE800010E2224286E000E2320296E000E256E78
:101CF800010E246E1EC022F01FC023F0D890223699
:101D08002336221E231E224A232A22C026F023C05D
:101D180027F0000E2B6E000E2A6E1EC02CF01FC07E
:101D28002DF01C501E24166E20C017F021C018F08C
:101D38001A50FDEC1CF01E5000081C24166E20C022
:101D480017F021C018F01A50FDEC1CF01CC016F05A
:101D580020C017F021C018F01A501E24FDEC1CF00A
:101D68001CC016F020C017F021C018F01E50000843
:101D78001A24FDEC1CF078D029BE0BD02C06D8A074
:101D88002D06020E2626000E27222650282627502A
:101D980029222A4A2B2A020E2426000E2522245004
:101DA8002826255029221C502C24166E20C017F0F6
:101DB80021C018F01A502A24FDEC1CF01C502C24C9
:101DC800166E20C017F021C018F02A5000081A24F7
:101DD800FDEC1CF02C5000081C24166E20C017F0D7
:101DE80021C018F01A502A24FDEC1CF02C500008D1
:101DF8001C24166E20C017F021C018F02A500008C5
:101E08001A24FDEC1CF01C502A24166E20C017F072
:101E180021C018F01A502C24FDEC1CF01C502A2468
:101E2800166E20C017F021C018F02C5000081A2494
:101E3800FDEC1CF02A5000081C24166E20C017F078
:101E480021C018F01A502C24FDEC1CF02A50000870
:101E58001C24166E20C017F021C018F02C50000862
:101E68001A24FDEC1CF000D02C502A5C2B50800A60
:101E7800226E2D50800A2258D8A07ED71200496EB3
:101E8800B6D048C015F0166A000E186E0A0E176E06
:101E9800E6EC17F01550300F00018D6F48C00FF0B9
:101EA800106A000E126E0A0E116E83EC19F00F50B4
:101EB800300F00018E6F1E0E376E8D0E386E000EBD
:101EC800396E070E3B6E3A68000E3D6E000E3C6E92
:101ED800020E3E6E640E36EC15F097D048C015F031
:101EE800166A000E186E0A0E176EE6EC17F01550FB
:101EF800300F00018A6F48C00FF0106A000E126E92
:101F08000A0E116E83EC19F00F50300F00018B6F21
:101F18003C0E376E8A0E386E000E396EFF0E3B6E21
:101F28003A68000E3D6E000E3C6E020E3E6E640E68
:101F380036EC15F06AD048C015F0166A000E186E17
:101F48000A0E176EE6EC17F01550300F0001936F6C
:101F580048C00FF0106A000E126E0A0E116E83EC64
:101F680019F00F50300F0001946F5A0E376E930E10
:101F7800386E000E396E000E3B6E1F0E3A6E000E64
:101F88003D6E000E3C6E020E3E6E640E36EC15F091
:101F98003CD048C015F0166A000E186E0A0E176E6F
:101FA800E6EC17F01550300F0001906F48C00FF0A5
:101FB800106A000E126E0A0E116E83EC19F00F50A3
:101FC800300F0001916F780E376E900E386E000E4C
:101FD800396EF80E3B6E1F0E3A6E000E3D6E000E07
:101FE8003C6E020E3E6E640E36EC15F00ED0495073
:101FF800000AD8B446D7010AD8B470D7030AD8B4AF
:102008009AD7010AD8B4C5D700D01200346E800E12
:102018003460A6D09F0E2C6401D0A2D03250D8A430
:1020280003D0010E326E00D01F0E2D6404D07E0E38
:102038002D6403D000D03F0E2D6E000E366E040EB8
:10204800366401D08DD0530E2D6015D0E00E2D24AE
:102058001D6E1E6AFF0E1E22000E206E050E1F6EDC
:1020680040EC1DF036501D26000E1E22330E1D2496
:10207800F66EFD0E14D0AD0E2D241D6E1E6AFF0ED9
:102088001E22000E206E050E1F6E40EC1DF036500D
:102098001D26000E1E22320E1D24F66EFE0E1E2078
:1020A800F76E0800F5CF33F000D0000E356E060E3F
:1020B800356401D053D033A023D03204D8A40CD037
:1020C8002C503524166E2EC017F02FC018F034503F
:1020D8003624FDEC1CF03ED035503202F3502C244F
:1020E800216E32C022F032C023F02EC024F02FC05F
:1020F80025F036503202F350342498EC1BF02AD0E5
:102108002E50301804E12F503118D8B423D032049F
:10211800D8A40CD02C503524166E30C017F031C01E
:1021280018F034503624FDEC1CF014D0355032022F
:10213800F3502C24216E32C022F032C023F030C07C
:1021480024F031C025F036503202F350342498EC94
:102158001BF000D0352AD8903332A9D7362A6FD74A
:10216800120025C02DF026C02EF02D1E2E1E2D4A41
:102178002E2A010E2D24336E000E2E20346E000EF2
:10218800306E010E2F6E25C02DF026C02EF0D8908F
:102198002D362E362D1E2E1E2D4A2E2A2DC031F0FC
:1021A8002EC032F0000E366E000E356E25C037F0A8
:1021B80026C038F067D034BE0BD03706D8A0380612
:1021C800020E3126000E322231503326325034228C
:1021D800354A362A020E2F26000E30222F5033267B
:1021E8003050342227A025D0375000082324166EFB
:1021F8003750372429242D6E2D28176E2BC018F040
:102208002CC019F021503524BBEC18F035500008CB
:102218002324166E3550352429242D6E2D28176E4B
:102228002BC018F02CC019F021503724BBEC18F043
:1022380000D027A227D0375000082324166E375025
:10224800372429242D6E2D28176E2BC018F02CC08A
:1022580019F0355000082124BBEC18F0355000085F
:102268002324166E3550352429242D6E2D28176EFB
:102278002BC018F02CC019F0375000082124BBECF3
:1022880018F000D03750355C3650800A2D6E385023
:10229800800A2D58D8A08FD7120011C015F0166AE1
:1022A800176A1034153601E3168015501D6E1D503F
:1022B800D8A402D05DD078D014C015F0166A176A79
:1022C8001334153601E3168015501C6E1C50D8A423
:1022D80002D04ED069D0108EFF0E0F16FF0E1016CA
:1022E800000E1116138EFF0E1216FF0E1316000E97
:1022F8001416000E186E000E196E000E1A6E000EDF
:102308001B6E7F0E1D5E1C50980F1D5E180E1C6EF6
:10231800D890183619361A361B3612500F5C1350DF
:10232800105814501158D8A007D012500F5E1350EF
:10233800105A1450115A1880D8900F36103611368A
:102348001C2EE6D700D01DAE10D01D50800A970F66
:10235800D8B003D00DD028D000D0D8901B321A3274
:10236800193218321D3EF9D717D0170E1D6411D037
:10237800000E0F6E000E106E000E116E000E126E23
:1023880013D007D0D890183619361A361B361D06C2
:1023980000D01D50D8A4F6D718C00FF019C010F0FF
:1023A8001AC011F01BC012F01200010E03EC1EF04F
:1023B800000E246E960E236E1FEC1BF0110E03EC1C
:1023C8001EF0010E246EF40E236E1FEC1BF0B10EEE
:1023D80003EC1EF0010EFBEC1DF02C0EFBEC1DF0C7
:1023E8002D0EFBEC1DF0B20E03EC1EF0010EFBEC03
:1023F8001DF02C0EFBEC1DF02D0EFBEC1DF0B30EAA
:1024080003EC1EF0010EFBEC1DF02C0EFBEC1DF096
:102418002D0EFBEC1DF0010EFBEC1DF02C0EFBEC61
:102428001DF02D0EFBEC1DF0B40E03EC1EF0070E94
:10243800FBEC1DF0C00E03EC1EF0A20EFBEC1DF031
:10244800020EFBEC1DF0840EFBEC1DF0C10E03EC3C
:102458001EF0C50EFBEC1DF0C20E03EC1EF00A0EBA
:10246800FBEC1DF0000EFBEC1DF0C30E03EC1EF0A0
:102478008A0EFBEC1DF02A0EFBEC1DF0C40E03ECDB
:102488001EF08A0EFBEC1DF0EE0EFBEC1DF0C50EE7
:1024980003EC1EF00E0EFBEC1DF0200E03EC1EF0FC
:1024A800360E03EC1EF0C80EFBEC1DF03A0E03ECE2
:1024B8001EF0050EFBEC1DF01200113412341A6EDA
:1024C8001A50D8A402D061D07CD014341534196EB7
:1024D8001950D8A402D059D074D0118EFF0E0F16FF
:1024E800FF0E1016FF0E1116000E1216148EFF0E98
:1024F8001216FF0E1316FF0E1416000E1516000EF8
:10250800156E000E166E000E176E000E186E7F0EFA
:102518001A5E1950A00F1A5E200E196E00D0D890BE
:10252800153616361736183612500F5C13501058D9
:102538001450115815501258D8A00AD012500F5ED6
:102548001350105A1450115A1550125A158000D0B1
:10255800D8900F36103611361236192EE0D700D023
:102568001AAE10D01A50800A9F0FD8B003D00DD0E1
:1025780028D000D0D89018321732163215321A3EA9
:10258800F9D717D01F0E1A6411D0000E0F6E000E67
:10259800106E000E116E000E126E13D007D0D89078
:1025A80015361636173618361A0600D01A50D8A41B
:1025B800F6D715C00FF016C010F017C011F018C0EC
:1025C80012F0120025C029F02A6A2B6A2434293611
:1025D80001E32A8029502C6E2C50D8A402D00ED0AA
:1025E8006CD028C029F02A6A2B6A2734293601E3DF
:1025F8002A802950316E3150D8A407D0000E236E9E
:10260800000E246E000E256E58D031507B0F2C26FC
:1026180025C031F02850311A800E3116248E278EAD
:10262800FF0E2616FF0E2716000E2816000E2D6E1A
:10263800000E2E6E000E2F6E070E306E00D023A0F7
:1026480007D026502D2627502E2228502F2200D082
:10265800D890253224322332D89026362736283689
:10266800302EEDD700D0090E306E00D023A007D051
:1026780026502D2627502E2228502F2200D0D890C1
:10268800253224322332D8902F322E322D32302E5A
:10269800EDD700D02DC00FF02EC010F02FC011F0D4
:1026A8002CC012F031C013F0E3EC16F00FC023F089
:1026B80010C024F011C025F000D01200E00E03EC89
:1026C8001EF0020EFBEC1DF01C0EFBEC1DF0070EBD
:1026D800FBEC1DF0120EFBEC1DF0370EFBEC1DF0B1
:1026E800320EFBEC1DF0290EFBEC1DF02D0EFBEC61
:1026F8001DF0290EFBEC1DF0250EFBEC1DF02B0E3A
:10270800FBEC1DF0390EFBEC1DF0000EFBEC1DF090
:10271800010EFBEC1DF0030EFBEC1DF0100EFBECA4
:102728001DF0E10E03EC1EF0030EFBEC1DF01D0E78
:10273800FBEC1DF0070EFBEC1DF0060EFBEC1DF08C
:102748002E0EFBEC1DF02C0EFBEC1DF0290EFBEC05
:102758001DF02D0EFBEC1DF02E0EFBEC1DF02E0EC9
:10276800FBEC1DF0370EFBEC1DF03F0EFBEC1DF0F3
:10277800000EFBEC1DF0000EFBEC1DF0020EFBEC56
:102788001DF0100EFBEC1DF0130E03EC1EF0000EF6
:10279800246E0A0E236E1FEC1BF0290E03EC1EF0AC
:1027A800000E246E640E236E1FEC1BF0120079ECF1
:1027B8001DF0BFEC1DF0F19E1FEC04F000D054ECAE
:1027C8001DF00FC059F010C05AF059C01DF05AC082
:1027D8001EF0000E206E050E1F6E40EC1DF01DC091
:1027E80023F01EC024F0C6EC1CF023C027F024C040
:1027F80028F025C029F0000E2A6E800E2B6E440E9C
:102808002C6EC5EC14F027C0ACF028C0ADF029C080
:10281800AEF0AD0E4E6EFF0E4F6EACC050F0ADC0B8
:1028280051F0AEC052F00EEC00F0ACC00FF0ADC0ED
:1028380010F0AEC011F0000E126E600E136E400E56
:10284800146E9BEC17F0D8B002D0010E01D0000E28
:10285800636EF70E4E6EFF0E4F6E63C050F0516AF6
:102868000EEC00F05F50D8B40AD0000E5F6E010E77
:102878005E6E5EC04AF04B6AF5EC1AF000D0635009
:10288800D8B403D013EC16F09AD7000E606E000E81
:102898005D6E46EC17F093D70CEF00F03BC03DF0AF
:1028A8003E6A3F6A3A343D3601E33E803D50476E0A
:1028B8004750D8A402D039D063D0170E3D6E39C026
:1028C8003EF03AC03FF03BC040F03D28416E04D096
:1028D800D89040323F323E32412EFAD73E50426EB7
:1028E8003A8EFF0E3916FF0E3A16000E3B16395077
:1028F800436E3A50446E3B50456E466A8E0E475EB4
:1029080047AE10D04750800A8F0FD8B003D00DD0F3
:1029180037D000D0D8904632453244324332473E11
:10292800F9D719D0170E476411D0000E396E000E72
:102938003A6E000E3B6E000E3C6E22D007D0D89047
:102948004336443645364636470600D04750D8B455
:1029580002D0F5D700D04250D8B409D0461E451E43
:10296800441E436C000E44224522462200D043C038
:1029780039F044C03AF045C03BF046C03CF000D0C6
:10298800120029C02DF02E6A2F6A28342D3601E353
:102998002E802D50346E3450D8A402D00ED061D081
:1029A8002CC02DF02E6A2F6A2B342D3601E32E8091
:1029B8002D50356E3550D8A407D0000E276E000E66
:1029C800286E000E296E4DD0000E316E000E326E4C
:1029D800000E336E3550890F345E29C035F02C5007
:1029E800351A800E3516288EFF0E2716FF0E28166C
:1029F800000E29162B8EFF0E2A16FF0E2B16000E20
:102A08002C16180E306E00D0D89031363236333648
:102A18002A50275C2B5028582C502958D8A007D06A
:102A28002A50275E2B50285A2C50295A3180D8908A
:102A3800273628362936302EE7D700D031C00FF098
:102A480032C010F033C011F034C012F035C013F0AA
:102A5800E3EC16F00FC027F010C028F011C029F0E1
:102A680000D01200416E41C047F037C046F038C070
:102A78000FF039C010F0A7EC1CF00FC042F010C0E6
:102A880043F0000E456E000E446E54D06850D8B422
:102A98002CD03E50050D47503F6E406AF3503F26FC
:102AA800F450402240BE21D0405004E1810E3F5CEA
:102AB800D8A01BD0000E476E3E50070DF350462499
:102AC800030F466EA00E466403D0A00E466E00D0DB
:102AD80044503824D96E45503920DA6E200EDE185D
:102AE800D8B425D002D023D000D046C02CF0445012
:102AF8003824D96E45503920DA6EDF502D6E3AC031
:102B08002EF03BC02FF03CC030F03DC031F03EC04D
:102B180032F047500AEC10F03E50060DF3504724AF
:102B2800476E800E476403D0800E476E00D0444A3B
:102B3800452A00D04250445C43504558D8A0A6D7F7
:102B48001200216E800E216069D09F0E166401D09C
:102B580065D0FF0E1B6EFF0E1C6E175021C01DF0B6
:102B68001E6A1D26000E1E221B501D261C501E22EA
:102B78001EBE0AD01E5004E1800E1D5CD8A004D0F1
:102B880021500008800F176EFF0E1B6EFF0E1C6E83
:102B9800185016C01DF01E6A1D26000E1E221B505E
:102BA8001D261C501E221EBE0BD01E5004E1A00E76
:102BB8001D5CD8A005D016500008A00F186E00D0D4
:102BC80016C012F0215017241B6E1B04136E1650EA
:102BD80018241C6E1C04146E215071EC1BF01A5042
:102BE8001F6E19C020F08280829218C016F016500D
:102BF800D8B413D001D011D017C021F02150D8B4C7
:102C08000AD001D008D01F50DFEC1DF02050DFECB7
:102C18001DF02106F3D71606EAD78282120071EC5E
:102C28000CF0000E0001B06F010EAF6F818E440EE4
:102C380000019C6F010E45EC1CF0010E23EC1CF00A
:102C4800010EDFEC1BF0020E01EC1CF06004D8A4AE
:102C580005D0070E4A6E020E34EC1AF0080E67EC27
:102C68001CF0030E01EC1CF0020E67EC1CF0010EC8
:102C780001EC1CF081AA10D0020E23EC1CF0070E08
:102C880067EC1CF0030E23EC1CF0020E67EC1CF042
:102C9800010E23EC1CF000D0020E45EC1CF05D0484
:102CA800D8A406D0060E4A6E000E34EC1AF000D0F6
:102CB800020E45EC1CF0060E67EC1CF0030E45EC0A
:102CC8001CF0020E67EC1CF0010E45EC1CF081A80C
:102CD80010D0020EDFEC1BF0060E67EC1CF0030EA2
:102CE800DFEC1BF0020E67EC1CF0010EDFEC1BF0B2
:102CF80000D01200496E5AD048C015F0166A000E6E
:102D0800186E0A0E176EE6EC17F01550300F00011A
:102D1800966F48C00FF0106A000E126E0A0E116E00
:102D280083EC19F00F50300F0001976F1E0E376EAD
:102D3800960E386E000E396E070E3B6E3A68000E1E
:102D48003D6E000E3C6E020E3E6E020E36EC15F025
:102D580035D048C015F0166A000E186E0A0E176EA8
:102D6800E6EC17F01550300F0001996F48C00FF0CE
:102D7800106A000E126E0A0E116E83EC19F00F50D5
:102D8800300F00019A6F5A0E376E990E386E000E8A
:102D9800396E070E3B6E3A68000E3D6E000E3C6EB3
:102DA800020E3E6E020E36EC15F008D04950000AAD
:102DB800D8B4A2D7020AD8B4CCD700D01200125087
:102DC800D8B405D00F5010101110D8A40ED0000E92
:102DD8000F6E000E106E000E116E53D006D0122A20
:102DE800D890113210320F3200D0000E0F14146E2A
:102DF800000E1014156EFE0E1114166E14501510D8
:102E08001610D8B40ED0EBD70CD0122A010E0F260C
:102E1800000E1022000E1122D890113210320F32FB
:102E280000D0000E0F14146E000E1014156EFF0E55
:102E38001114166E145015101610D8B408D0E5D712
:102E480006D01206D8900F361036113600D010BEB4
:102E580004D0020E1260F5D700D012B002D0109E36
:102E680000D0D8901232125011121350D8B402D098
:102E7800118E00D00FC00FF010C010F011C011F06B
:102E880000D01200000E0001B06F000EAF6F819EDF
:102E98004E0E00019C6F010E45EC1CF0010E23EC58
:102EA8001CF0010EDFEC1BF0020E01EC1CF0050E0D
:102EB80067EC1CF0030E01EC1CF0030E67EC1CF031
:102EC800010E01EC1CF081AA10D0020E23EC1CF0BC
:102ED800060E67EC1CF0030E23EC1CF0030E67ECE7
:102EE8001CF0010E23EC1CF000D0020E45EC1CF087
:102EF800070E67EC1CF0030E45EC1CF0030E67ECA4
:102F08001CF0010E45EC1CF081A810D0020EDFEC7D
:102F18001BF0070E67EC1CF0030EDFEC1BF0030E32
:102F280067EC1CF0010EDFEC1BF000D0120011AEB4
:102F380017D00FC015F010C016F011C017F0151EED
:102F4800161E171E152A000E16221722000E15240B
:102F58000F6E000E1620106E800E1720116E00D016
:102F680014AE17D012C015F013C016F014C017F025
:102F7800151E161E171E152A000E16221722000EE1
:102F88001524126E000E1620136E800E1720146E74
:102F980000D0000E0F1A000E101A800E111A000E23
:102FA800121A000E131A800E141A12500F5C1350C6
:102FB800105814501158D8B002D0D89002D0D880E8
:102FC80000D01200000E1A6E18AE07D0176C181E2B
:102FD800D8B0182A010E1A6E00D016AE07D0156C9C
:102FE800161ED8B0162A010E1A1A00D0000E1C6E32
:102FF800000E1B6E17501810D8B421D0010E196E90
:1030080005D0D89017361836192A00D018BE02D025
:10301800F8D700D0D8901B361C361750155C1850BE
:103028001658D8A006D01750155E1850165A1B808F
:1030380000D0D89018321732192EECD700D01A5079
:10304800D8B405D01B6C1C1ED8B01C2A00D01BC0DD
:1030580015F01CC016F000D01200000E176E000EFE
:10306800186E000E196E000E1A6E135014101510FB
:103078001610D8B42FD0010E1B6E07D0D890133677
:103088001436153616361B2A00D016BE02D0F6D7CF
:1030980000D0D8901736183619361A3613500F5CE8
:1030A800145010581550115816501258D8A00AD05C
:1030B80013500F5E1450105A1550115A1650125AC8
:1030C800178000D0D89016321532143213321B2EC6
:1030D800E0D700D017C00FF018C010F019C011F0D9
:1030E8001AC012F01200206E800E20603FD09F0E92
:1030F800166401D03BD0FF0E1A6EFF0E1B6E1750E0
:1031080020C01CF01D6A1C26000E1D221A501C2609
:103118001B501D221DBE0BD01D5004E1800E1C5CEF
:10312800D8A005D020500008800F176E00D0195085
:103138001E6E18C01FF016C012F0205017241A6E09
:103148001A04136E16C014F0205071EC1BF0828024
:10315800829207D01E50DFEC1DF01F50DFEC1DF0EF
:1031680000D017061728D8A4F5D782821200206E3F
:10317800800E20603FD09F0E166401D03BD0FF0E1A
:103188001A6EFF0E1B6E175016C01CF01D6A1C2607
:10319800000E1D221A501C261B501D221DBE0BD0CE
:1031A8001D5004E1A00E1C5CD8A005D016500008E4
:1031B800A00F176E00D019501E6E18C01FF016C051
:1031C80012F020C013F0165017241A6E1A04146E49
:1031D800205071EC1BF08280829207D01E50DFECE9
:1031E8001DF01F50DFEC1DF000D017061728D8A4DB
:1031F800F5D7828212000600EACF04F0E1CF05F08D
:10320800E2CF06F0D9CF07F0DACF08F0F3CF09F014
:10321800F4CF0AF0F6CF0BF0F7CF0CF0F8CF0DF0A3
:10322800F5CF0EF0F2A203D0B2EC1DF000D0F0A062
:1032380003D0A5EC1DF000D0F0A203D01DEC1EF0C9
:1032480000D00EC0F5FF0DC0F8FF0CC0F7FF0BC093
:10325800F6FF0AC0F4FF09C0F3FF08C0DAFF07C091
:10326800D9FF06C0E2FF05C0E1FF04C0EAFF03C0C2
:10327800E9FF02C0FBFF01C0FAFF1100838E5BC0AB
:103288000FF05CC010F0FC0E116EFF0E126EE4EC35
:103298001CF00A0E376E5BC038F05CC039F0FF0EC8
:1032A8003B6E3A68000E3D6E000E3C6E010E3E6E9F
:1032B800780E36EC15F098EC1DF0839E5BC00FF08D
:1032C8005CC010F0FA0E116EFF0E126EE4EC1CF0EA
:1032D8000A0E376E5BC038F05CC039F0FF0E3B6EEB
:1032E8003A68000E3D6E000E3C6E010E3E6E780E82
:1032F80036EC15F098EC1DF071EC0CF01200000E95
:10330800146E10AE07D00F6C101ED8B0102A010E24
:10331800146E00D012AE05D0116C121ED8B0122A4D
:1033280000D011501210D8B41DD0010E136E05D064
:10333800D89011361236132A00D012BE02D0F8D710
:1033480000D011500F5C12501058D8A005D0115061
:103358000F5E1250105A00D0D89012321132132E2C
:10336800F0D700D01450D8B405D00F6C101ED8B0C8
:10337800102A00D00FC00FF010C010F000D01200BB
:103388002050211022102310D8B429D0010E246E09
:1033980007D0D8902036213622362336242A00D06A
:1033A80023BE02D0F6D700D020501C5C21501D58F7
:1033B80022501E5823501F58D8A009D020501C5EF8
:1033C80021501D5A22501E5A23501F5A00D0D890FF
:1033D8002332223221322032242EE6D700D01CC0DC
:1033E8001CF01DC01DF01EC01EF01FC01FF01200F3
:1033F800116E000EAC6E000EAB6E11A002D0AC8840
:1034080000D011A203D0AC8CAB8C00D011A402D098
:10341800AC8E00D011A602D0AB8802D0AB8A00D007
:1034280011B8AC849E9811AA02D0AB8600D011AC1A
:1034380002D09D8A01D09D9A9E9A11AE02D09D8895
:1034480001D09D980FC0AFFF1050B06EAC8AAB8E04
:10345800949C948EACB8ACBE02D0948C00D0120070
:103468004B6E83507F09836E4A044C6E4C50D8B41F
:1034780015D001D013D04C50010D800EF324D96E15
:10348800000EF420DA6EDF50836E4CC048F04B50CB
:103498007EEC16F0CAEC1DF04C06E8D780C083FF1E
:1034A800000E486E4B507EEC16F0CAEC1DF0020E72
:1034B8004B18D8A402D0000E606E4B50D8A403D08D
:1034C800000E5D6E00D0120023C016F025C017F064
:1034D80029C018F02AC019F0215077EC18F02350B1
:1034E80027242B6E2B04166E25C017F029C018F060
:1034F8002AC019F0215077EC18F023C016F027C025
:1035080017F029C018F02AC019F02150BBEC18F0A8
:1035180023C016F027C017F029C018F02AC019F0E8
:10352800215025242B6E2B04BBEC18F012008E0EB4
:103538001F6E07D0D8901A321932183217321F2A44
:1035480000D0000E17141B6E000E18141C6E000E0F
:1035580019141D6EFF0E1A141E6E1B501C101D1020
:103568001E10D8A4E7D717C00FF018C010F019C064
:1035780011F01FC012F0000E136EE3EC16F00FC02E
:1035880017F010C018F011C019F000D0120000EEAA
:10359800ACF02B0EEE6AE806FDE100EE5BF00D0ED6
:1035A800EE6AE806FDE12A0EF66E3A0EF76E000E98
:1035B800F86E00EE80F010EE2CF00900F5CFEEFF6B
:1035C800E550E150FAE1420EF66E3C0EF76E000E41
:1035D800F86E0900F5CF68F0000EF86E0001DBEF19
:1035E80013F025D05F50D8B405D0000E5F6E000EE2
:1035F8005E6E1DD0010E45EC1CF0010E23EC1CF094
:10360800010EDFEC1BF0010E01EC1CF042EC19F08E
:10361800000E45EC1CF0000E23EC1CF0000EDFEC55
:103628001BF0000E01EC1CF042EC19F000D05E50CB
:10363800D8A4D8D7120023C01DF024C01EF0000E55
:10364800206EFA0E1F6E40EC1DF01DC027F01EC044
:1036580028F027C025F028C026F0251E261E254A5A
:10366800262AFF0E2524276EFF0E2620286EB80E68
:10367800B16E27C0D6FF2850D76EA192B18000D076
:10368800A1A2FED7B19012003D5000083B24166E4F
:10369800D8803D34176E3FC018F040C019F039503B
:1036A800BBEC18F039C021F03AC022F03BC023F03F
:1036B8003CC024F03DC025F03EC026F0000E286E28
:1036C800030E276E000E2A6E000E296E3FC02BF0E7
:1036D80040C02CF0B5EC10F01200156E2A0E03EC69
:1036E8001EF0000EFBEC1DF015506524FBEC1DF0E0
:1036F800000EFBEC1DF013506524FBEC1DF02B0EA7
:1037080003EC1EF0000EFBEC1DF012506724FBECDE
:103718001DF0000EFBEC1DF014506724FBEC1DF0AF
:103728002C0E03EC1EF01200296E29C02AF02B6A19
:103738000ED021C016F023C017F024C018F025C001
:1037480019F02A50BBEC18F02A4A2B2A00D0225034
:1037580029C026F0276A2626000E272226502A5C32
:103768002B50800A286E2750800A2858D8A0E1D705
:1037780012004B504C104D10D8B407D0000E4B1A05
:10378800000E4C1A800E4D1A00D048C03CF049C0BB
:103798003DF04AC03EF04BC03FF04CC040F04DC039
:1037A80041F08AEC0DF03CC048F03DC049F03EC005
:1037B8004AF000D01200446E030E666E44C041F019
:1037C80066509EEC09F00AD0849201D084828494D9
:1037D80013D0849201D0848284840ED04450000A8D
:1037E800D8B4F2D7010AD8B4F1D7030AD8B4F1D7BC
:1037F800010AD8B4F0D700D01200446E020E666EEB
:1038080044C041F066509EEC09F00AD0809A01D07D
:10381800808A819C13D0809A01D0808A818C0ED0B6
:103828004450000AD8B4F2D7010AD8B4F1D7030A31
:10383800D8B4F1D7010AD8B4F0D700D01200446E3A
:10384800010E666E44C041F066509EEC09F00AD045
:10385800809201D08082809413D0809201D080829F
:1038680080840ED04450000AD8B4F2D7010AD8B4E4
:10387800F1D7030AD8B4F1D7010AD8B4F0D700D0E9
:103888001200446E000E666E44C041F066509EEC15
:1038980009F00AD0809601D08086809813D080964F
:1038A80001D0808680880ED04450000AD8B4F2D760
:1038B800010AD8B4F1D7030AD8B4F1D7010AD8B4A9
:1038C800F0D700D012004A6E4AC04BF04B50D8B423
:1038D80015D001D013D04B50010D800EF324D96EB2
:1038E800000EF420DA6EDF50836E4BC048F066504D
:1038F80043EC0FF042EC19F04B06E8D7000E486E87
:10390800665043EC0FF012002A0E03EC1EF0000E76
:10391800FBEC1DF0000EFBEC1DF0000EFBEC1DF0A7
:103928007F0EFBEC1DF02B0E03EC1EF0000EFBECE3
:103938001DF0000EFBEC1DF0000EFBEC1DF09F0EC1
:10394800FBEC1DF012000FC013F010C014F003D0F0
:10395800134A142A00D013C0D9FF14C0DAFFDF506D
:10396800D8A4F6D70FC011F010C012F0111E121E05
:10397800114A122A135011240F6E14501220106E7F
:1039880000D01200000E266E24AE07D0236C241E31
:10399800D8B0242A010E266E00D023C00FF024C010
:1039A80010F0116A8E0E126E26C013F0E3EC16F0BA
:1039B8000FC023F010C024F011C025F000D0120071
:1039C8000FC013F010C014F005D0134A142A114A7E
:1039D800122A00D011C0F6FF12C0F7FF13C0D9FF9A
:1039E80014C0DAFF0800F5CFDFFFDF50D8A4EDD709
:1039F8001200196E800E196013D09F0E166401D044
:103A08000FD016C012F01928136E1628146E19500C
:103A180071EC1BF01850FBEC1DF01750FBEC1DF07F
:103A28001200407924301912027800183030003022
:103A3800300030300030300030300030300044008A
:103A48003000300030003000440030003000828206
:103A58008290800EC76E300EC66ED9EC11F088ECDD
:103A68001CF062EC13F0360E03EC1EF0C00EFBECFB
:103A78001DF0010E646E12001D501F02F3CF21F0DD
:103A8800F4CF22F01D502002F35022261E501F02B0
:103A9800F350222621C01DF022C01EF000D01200D3
:103AA800C28200D0C2B2FED7C450126E116AC3508F
:103AB8001124136E000E1220146E13C00FF014C0E0
:103AC80010F000D012000F5010101110D8B406D00A
:103AD800000E0F1A000E101A800E111A0FC00FF0E8
:103AE80010C010F011C011F01200D5EC1DF012EC4E
:103AF8001EF0600ED36EF292F090F092F19CF19A63
:103B0800F188F288F086F088F28E1200000E166EA8
:103B1800800E176EA00E186E22C019F023C01AF07E
:103B2800000EA5EC15F01200020ED56E0B0ED76E26
:103B3800DB0ED66EF294D58E00D0F2A4FED7D59EB9
:103B48001200F0900001AF050001B011D8A402D016
:103B5800010E01D0000E5D6E00D01200F29200013D
:103B6800AF050001B011D8A402D0010E01D0000E9B
:103B7800606E00D01200010E926E370E936E000E2A
:103B8800946E000E956E000E966E1200838EF2EC07
:103B98001DF098EC1DF0839E19EC1EF098EC1DF0BA
:103BA8001200000E106E190E0F6E3C0EFCEC19F090
:103BB800600ED36E1200106E9E96C9CF0FF010C023
:103BC800C9FF00D0C7A0FED712008298000E246E4D
:103BD800640E236E1FEC1BF082881200F90ECB6E68
:103BE800050ECA6E4A0EBB6E3C0EBA6E1200116EFE
:103BF800829282801150DFEC1DF082821200116ED9
:103C0800829282901150DFEC1DF0828212000F6EBA
:103C180000D0ACA2FED70FC0ADFF1200010EC26EDD
:103C28000E0EC16EA90EC06E1200000EBA6E8196FD
:0C3C38001200F092010E5F6E12000100FD
:10FD320000000000000000005F0000000700070054
:10FD4200147F147F14242A7F2A1223130864623634
:10FD5200495620500008070300001C2241000041C0
:10FD6200221C002A1C7F1C2A08083E0808008070FA
:10FD7200300008080808080000606000201008042D
:10FD8200023E5149453E00427F4000724949494680
:10FD92002141494D331814127F1027454545393CFE
:10FDA2004A494931412111090736494949364649EB
:10FDB20049291E000014000000403400000008140D
:10FDC2002241141414141400412214080201590986
:10FDD200063E415D594E7C1211127C7F49494936DB
:10FDE2003E414141227F4141413E7F494949417F54
:10FDF200090909013E414151737F0808087F00410A
:10FE02007F41002040413F017F081422417F404052
:10FE120040407F021C027F7F0408107F3E41414127
:10FE22003E7F090909063E4151215E7F0919294693
:10FE3200264949493203017F01033F4040403F1FA9
:10FE42002040201F3F4038403F63140814630304DE
:10FE52007804036159494D43007F4141410204083E
:10FE62001020004141417F04020102044040404011
:10FE720040000307080020545478407F2844443847
:10FE82003844444428384444287F38545454180091
:10FE9200087E090218A4A49C787F08040478004410
:10FEA2007D40002040403D007F1028440000417FFB
:10FEB20040007C047804787C080404783844444484
:10FEC20038FC1824241818242418FC7C080404087C
:10FED200485454542404043F44243C4040207C1C95
:10FEE2002040201C3C4030403C44281028444C9088
:10FEF20090907C4464544C440008364100000077E2
:10FF02000000004136080002010204020100000064
:10FF12000A00000064000000E8030000102700004F
:10FF2200A086010040420F008096980000E1F5058E
:10FF320000CA9A3B00803FCDCC3DD7233C12833A86
:10FF4200B7D138C62737388635C0D633CC2B327076
:10FF52008930E7DB2EE53C1E42A20D00803F0020E7
:10FF62004100C842007A44401C4650C347247449A9
:10FF720097184BBCBE4C6B6E4E03155079AD60F3B7
:10FF820049714557502045574C54204E5350204EEE
:10FF9200534C54204D4400454345333330314C20BB
:10FFA20046616C6C2032322D533300566F6C746193
:10FFB2006765203D202566200D0A004E4F525448A9
:10FFC2002F534F55544800454153542F57455354CE
:10FFD200004E2F53204C5400452F57204C54004DB7
:10FFE2006F64653A0046523A0046533A00504E5307
:0EFFF200005045570025640020002A00000042
:020000040020DA
:08000000FFFFFFFFFFFFFFFF00
:020000040030CA
:0E000000FF08191EFF8281FF0FC00FE00F40A6
:00000001FF
